{
  "contractName": "Admin",
  "abi": [
    {
      "inputs": [],
      "stateMutability": "nonpayable",
      "type": "constructor"
    },
    {
      "inputs": [],
      "name": "owner",
      "outputs": [
        {
          "internalType": "address",
          "name": "",
          "type": "address"
        }
      ],
      "stateMutability": "view",
      "type": "function",
      "constant": true
    },
    {
      "inputs": [
        {
          "internalType": "address",
          "name": "_eth_address",
          "type": "address"
        },
        {
          "internalType": "string",
          "name": "_name",
          "type": "string"
        },
        {
          "internalType": "string",
          "name": "_location",
          "type": "string"
        },
        {
          "internalType": "string",
          "name": "_email",
          "type": "string"
        },
        {
          "internalType": "string",
          "name": "_description",
          "type": "string"
        }
      ],
      "name": "createEmployee",
      "outputs": [],
      "stateMutability": "nonpayable",
      "type": "function"
    },
    {
      "inputs": [
        {
          "internalType": "address",
          "name": "_eth_address",
          "type": "address"
        },
        {
          "internalType": "string",
          "name": "_name",
          "type": "string"
        },
        {
          "internalType": "string",
          "name": "_location",
          "type": "string"
        },
        {
          "internalType": "string",
          "name": "_email",
          "type": "string"
        },
        {
          "internalType": "string",
          "name": "_description",
          "type": "string"
        }
      ],
      "name": "createOrganization",
      "outputs": [],
      "stateMutability": "nonpayable",
      "type": "function"
    },
    {
      "inputs": [
        {
          "internalType": "address",
          "name": "_employee_address",
          "type": "address"
        }
      ],
      "name": "isEmployee",
      "outputs": [
        {
          "internalType": "bool",
          "name": "",
          "type": "bool"
        }
      ],
      "stateMutability": "view",
      "type": "function",
      "constant": true
    },
    {
      "inputs": [
        {
          "internalType": "address",
          "name": "_organization_address",
          "type": "address"
        }
      ],
      "name": "isOrganization",
      "outputs": [
        {
          "internalType": "bool",
          "name": "",
          "type": "bool"
        }
      ],
      "stateMutability": "view",
      "type": "function",
      "constant": true
    },
    {
      "inputs": [],
      "name": "employeeCount",
      "outputs": [
        {
          "internalType": "uint256",
          "name": "",
          "type": "uint256"
        }
      ],
      "stateMutability": "view",
      "type": "function",
      "constant": true
    },
    {
      "inputs": [
        {
          "internalType": "address",
          "name": "_employee",
          "type": "address"
        }
      ],
      "name": "getEmployeeContractByAddress",
      "outputs": [
        {
          "internalType": "address",
          "name": "",
          "type": "address"
        }
      ],
      "stateMutability": "view",
      "type": "function",
      "constant": true
    },
    {
      "inputs": [
        {
          "internalType": "uint256",
          "name": "index",
          "type": "uint256"
        }
      ],
      "name": "getEmployeeContractByIndex",
      "outputs": [
        {
          "internalType": "address",
          "name": "",
          "type": "address"
        }
      ],
      "stateMutability": "view",
      "type": "function",
      "constant": true
    },
    {
      "inputs": [],
      "name": "OrganizationCount",
      "outputs": [
        {
          "internalType": "uint256",
          "name": "",
          "type": "uint256"
        }
      ],
      "stateMutability": "view",
      "type": "function",
      "constant": true
    },
    {
      "inputs": [
        {
          "internalType": "address",
          "name": "_organization",
          "type": "address"
        }
      ],
      "name": "getOrganizationContractByAddress",
      "outputs": [
        {
          "internalType": "address",
          "name": "",
          "type": "address"
        }
      ],
      "stateMutability": "view",
      "type": "function",
      "constant": true
    },
    {
      "inputs": [
        {
          "internalType": "uint256",
          "name": "index",
          "type": "uint256"
        }
      ],
      "name": "getOrganizationContractByIndex",
      "outputs": [
        {
          "internalType": "address",
          "name": "",
          "type": "address"
        }
      ],
      "stateMutability": "view",
      "type": "function",
      "constant": true
    },
    {
      "inputs": [
        {
          "internalType": "string",
          "name": "_name",
          "type": "string"
        }
      ],
      "name": "getOrganizationByName",
      "outputs": [
        {
          "internalType": "address",
          "name": "",
          "type": "address"
        }
      ],
      "stateMutability": "view",
      "type": "function",
      "constant": true
    },
    {
      "inputs": [
        {
          "internalType": "string",
          "name": "_name",
          "type": "string"
        },
        {
          "internalType": "uint256",
          "name": "_emp_index",
          "type": "uint256"
        }
      ],
      "name": "getEmployeesByName",
      "outputs": [
        {
          "internalType": "address",
          "name": "",
          "type": "address"
        }
      ],
      "stateMutability": "view",
      "type": "function",
      "constant": true
    },
    {
      "inputs": [
        {
          "internalType": "string",
          "name": "_name",
          "type": "string"
        }
      ],
      "name": "getTotalEmployeeInEmpsByName",
      "outputs": [
        {
          "internalType": "uint256",
          "name": "",
          "type": "uint256"
        }
      ],
      "stateMutability": "view",
      "type": "function",
      "constant": true
    },
    {
      "inputs": [
        {
          "internalType": "uint256",
          "name": "_emp_index",
          "type": "uint256"
        }
      ],
      "name": "getEmployeeNameByIndex",
      "outputs": [
        {
          "internalType": "string",
          "name": "",
          "type": "string"
        }
      ],
      "stateMutability": "view",
      "type": "function",
      "constant": true
    },
    {
      "inputs": [
        {
          "internalType": "uint256",
          "name": "_org_index",
          "type": "uint256"
        }
      ],
      "name": "getOrganizationNameByIndex",
      "outputs": [
        {
          "internalType": "string",
          "name": "",
          "type": "string"
        }
      ],
      "stateMutability": "view",
      "type": "function",
      "constant": true
    }
  ],
  "bytecode": "0x608060405234801561001057600080fd5b50336000806101000a81548173ffffffffffffffffffffffffffffffffffffffff021916908373ffffffffffffffffffffffffffffffffffffffff1602179055506159df806100606000396000f3fe60806040523480156200001157600080fd5b506004361062000135576000357c0100000000000000000000000000000000000000000000000000000000900480638da5cb5b11620000c2578063c684ba28116200008c578063c684ba28146200036e578063cc5a561114620003a4578063de32415814620003da578063ea66543f14620003fc5762000135565b80638da5cb5b14620002d45780638dd2c6c914620002f65780639047bf581462000316578063b1ce8eab14620003385762000135565b80636968ffe411620001045780636968ffe414620002125780636d62d31314620002325780636ffb43b114620002685780637cbf7310146200029e5762000135565b80630bae724c146200013a57806315d809f91462000170578063323ddfc414620001a6578063447a81fe14620001dc575b600080fd5b6200015860048036038101906200015291906200102c565b62000432565b604051620001679190620010d7565b60405180910390f35b6200018e6004803603810190620001889190620010f4565b6200049c565b6040516200019d9190620010d7565b60405180910390f35b620001c46004803603810190620001be919062001157565b620004f1565b604051620001d39190620010d7565b60405180910390f35b620001fa6004803603810190620001f49190620010f4565b6200055a565b604051620002099190620010d7565b60405180910390f35b6200023060048036038101906200022a919062001189565b620005af565b005b6200025060048036038101906200024a91906200128d565b620007e5565b6040516200025f9190620010d7565b60405180910390f35b6200028660048036038101906200028091906200128d565b6200082f565b604051620002959190620012ef565b60405180910390f35b620002bc6004803603810190620002b69190620010f4565b6200085c565b604051620002cb919062001395565b60405180910390f35b620002de62000917565b604051620002ed9190620010d7565b60405180910390f35b6200031460048036038101906200030e919062001189565b6200093b565b005b6200032062000bf1565b6040516200032f9190620012ef565b60405180910390f35b62000356600480360381019062000350919062001157565b62000bfe565b604051620003659190620013d6565b60405180910390f35b6200038c600480360381019062000386919062001157565b62000c96565b6040516200039b9190620010d7565b60405180910390f35b620003c26004803603810190620003bc9190620010f4565b62000cff565b604051620003d1919062001395565b60405180910390f35b620003e462000dba565b604051620003f39190620012ef565b60405180910390f35b6200041a600480360381019062000414919062001157565b62000dc7565b604051620004299190620013d6565b60405180910390f35b600060058360405162000446919062001435565b908152602001604051809103902082815481106200046957620004686200144e565b5b9060005260206000200160009054906101000a900473ffffffffffffffffffffffffffffffffffffffff16905092915050565b6000620004ea60048381548110620004b957620004b86200144e565b5b9060005260206000200160009054906101000a900473ffffffffffffffffffffffffffffffffffffffff1662000c96565b9050919050565b6000600160008373ffffffffffffffffffffffffffffffffffffffff1673ffffffffffffffffffffffffffffffffffffffff16815260200190815260200160002060009054906101000a900473ffffffffffffffffffffffffffffffffffffffff169050919050565b6000620005a8600383815481106200057757620005766200144e565b5b9060005260206000200160009054906101000a900473ffffffffffffffffffffffffffffffffffffffff16620004f1565b9050919050565b60008060009054906101000a900473ffffffffffffffffffffffffffffffffffffffff168686848787604051620005e69062000e5f565b620005f7969594939291906200147d565b604051809103906000f08015801562000614573d6000803e3d6000fd5b50905080600160008873ffffffffffffffffffffffffffffffffffffffff1673ffffffffffffffffffffffffffffffffffffffff16815260200190815260200160002060006101000a81548173ffffffffffffffffffffffffffffffffffffffff021916908373ffffffffffffffffffffffffffffffffffffffff1602179055506003869080600181540180825580915050600190039060005260206000200160009091909190916101000a81548173ffffffffffffffffffffffffffffffffffffffff021916908373ffffffffffffffffffffffffffffffffffffffff16021790555060006005866040516200070c919062001435565b908152602001604051809103902080549050036200075c576007859080600181540180825580915050600190039060005260206000200160009091909190915090816200075a919062001742565b505b6005856040516200076e919062001435565b9081526020016040518091039020869080600181540180825580915050600190039060005260206000200160009091909190916101000a81548173ffffffffffffffffffffffffffffffffffffffff021916908373ffffffffffffffffffffffffffffffffffffffff160217905550505050505050565b6000600682604051620007f9919062001435565b908152602001604051809103902060009054906101000a900473ffffffffffffffffffffffffffffffffffffffff169050919050565b600060058260405162000843919062001435565b9081526020016040518091039020805490509050919050565b6060600782815481106200087557620008746200144e565b5b9060005260206000200180546200088c9062001535565b80601f0160208091040260200160405190810160405280929190818152602001828054620008ba9062001535565b80156200090b5780601f10620008df576101008083540402835291602001916200090b565b820191906000526020600020905b815481529060010190602001808311620008ed57829003601f168201915b50505050509050919050565b60008054906101000a900473ffffffffffffffffffffffffffffffffffffffff1681565b60008054906101000a900473ffffffffffffffffffffffffffffffffffffffff1673ffffffffffffffffffffffffffffffffffffffff163373ffffffffffffffffffffffffffffffffffffffff16146200099457600080fd5b60008060009054906101000a900473ffffffffffffffffffffffffffffffffffffffff168686848787604051620009cb9062000e6d565b620009dc969594939291906200147d565b604051809103906000f080158015620009f9573d6000803e3d6000fd5b50905080600260008873ffffffffffffffffffffffffffffffffffffffff1673ffffffffffffffffffffffffffffffffffffffff16815260200190815260200160002060006101000a81548173ffffffffffffffffffffffffffffffffffffffff021916908373ffffffffffffffffffffffffffffffffffffffff1602179055506004869080600181540180825580915050600190039060005260206000200160009091909190916101000a81548173ffffffffffffffffffffffffffffffffffffffff021916908373ffffffffffffffffffffffffffffffffffffffff160217905550600073ffffffffffffffffffffffffffffffffffffffff1660068660405162000b07919062001435565b908152602001604051809103902060009054906101000a900473ffffffffffffffffffffffffffffffffffffffff1673ffffffffffffffffffffffffffffffffffffffff160362000b8a5760088590806001815401808255809150506001900390600052602060002001600090919091909150908162000b88919062001742565b505b8560068660405162000b9d919062001435565b908152602001604051809103902060006101000a81548173ffffffffffffffffffffffffffffffffffffffff021916908373ffffffffffffffffffffffffffffffffffffffff160217905550505050505050565b6000600380549050905090565b60008073ffffffffffffffffffffffffffffffffffffffff16600260008473ffffffffffffffffffffffffffffffffffffffff1673ffffffffffffffffffffffffffffffffffffffff16815260200190815260200160002060009054906101000a900473ffffffffffffffffffffffffffffffffffffffff1673ffffffffffffffffffffffffffffffffffffffff1614159050919050565b6000600260008373ffffffffffffffffffffffffffffffffffffffff1673ffffffffffffffffffffffffffffffffffffffff16815260200190815260200160002060009054906101000a900473ffffffffffffffffffffffffffffffffffffffff169050919050565b60606008828154811062000d185762000d176200144e565b5b90600052602060002001805462000d2f9062001535565b80601f016020809104026020016040519081016040528092919081815260200182805462000d5d9062001535565b801562000dae5780601f1062000d825761010080835404028352916020019162000dae565b820191906000526020600020905b81548152906001019060200180831162000d9057829003601f168201915b50505050509050919050565b6000600480549050905090565b60008073ffffffffffffffffffffffffffffffffffffffff16600160008473ffffffffffffffffffffffffffffffffffffffff1673ffffffffffffffffffffffffffffffffffffffff16815260200190815260200160002060009054906101000a900473ffffffffffffffffffffffffffffffffffffffff1673ffffffffffffffffffffffffffffffffffffffff1614159050919050565b61328e806200182a83390190565b610ef28062004ab883390190565b6000604051905090565b600080fd5b600080fd5b600080fd5b600080fd5b6000601f19601f8301169050919050565b7f4e487b7100000000000000000000000000000000000000000000000000000000600052604160045260246000fd5b62000ee48262000e99565b810181811067ffffffffffffffff8211171562000f065762000f0562000eaa565b5b80604052505050565b600062000f1b62000e7b565b905062000f29828262000ed9565b919050565b600067ffffffffffffffff82111562000f4c5762000f4b62000eaa565b5b62000f578262000e99565b9050602081019050919050565b82818337600083830152505050565b600062000f8a62000f848462000f2e565b62000f0f565b90508281526020810184848401111562000fa95762000fa862000e94565b5b62000fb684828562000f64565b509392505050565b600082601f83011262000fd65762000fd562000e8f565b5b813562000fe884826020860162000f73565b91505092915050565b6000819050919050565b620010068162000ff1565b81146200101257600080fd5b50565b600081359050620010268162000ffb565b92915050565b6000806040838503121562001046576200104562000e85565b5b600083013567ffffffffffffffff81111562001067576200106662000e8a565b5b620010758582860162000fbe565b9250506020620010888582860162001015565b9150509250929050565b600073ffffffffffffffffffffffffffffffffffffffff82169050919050565b6000620010bf8262001092565b9050919050565b620010d181620010b2565b82525050565b6000602082019050620010ee6000830184620010c6565b92915050565b6000602082840312156200110d576200110c62000e85565b5b60006200111d8482850162001015565b91505092915050565b6200113181620010b2565b81146200113d57600080fd5b50565b600081359050620011518162001126565b92915050565b60006020828403121562001170576200116f62000e85565b5b6000620011808482850162001140565b91505092915050565b600080600080600060a08688031215620011a857620011a762000e85565b5b6000620011b88882890162001140565b955050602086013567ffffffffffffffff811115620011dc57620011db62000e8a565b5b620011ea8882890162000fbe565b945050604086013567ffffffffffffffff8111156200120e576200120d62000e8a565b5b6200121c8882890162000fbe565b935050606086013567ffffffffffffffff81111562001240576200123f62000e8a565b5b6200124e8882890162000fbe565b925050608086013567ffffffffffffffff81111562001272576200127162000e8a565b5b620012808882890162000fbe565b9150509295509295909350565b600060208284031215620012a657620012a562000e85565b5b600082013567ffffffffffffffff811115620012c757620012c662000e8a565b5b620012d58482850162000fbe565b91505092915050565b620012e98162000ff1565b82525050565b6000602082019050620013066000830184620012de565b92915050565b600081519050919050565b600082825260208201905092915050565b60005b83811015620013485780820151818401526020810190506200132b565b60008484015250505050565b600062001361826200130c565b6200136d818562001317565b93506200137f81856020860162001328565b6200138a8162000e99565b840191505092915050565b60006020820190508181036000830152620013b1818462001354565b905092915050565b60008115159050919050565b620013d081620013b9565b82525050565b6000602082019050620013ed6000830184620013c5565b92915050565b600081905092915050565b60006200140b826200130c565b620014178185620013f3565b93506200142981856020860162001328565b80840191505092915050565b6000620014438284620013fe565b915081905092915050565b7f4e487b7100000000000000000000000000000000000000000000000000000000600052603260045260246000fd5b600060c082019050620014946000830189620010c6565b620014a36020830188620010c6565b8181036040830152620014b7818762001354565b90508181036060830152620014cd818662001354565b90508181036080830152620014e3818562001354565b905081810360a0830152620014f9818462001354565b9050979650505050505050565b7f4e487b7100000000000000000000000000000000000000000000000000000000600052602260045260246000fd5b600060028204905060018216806200154e57607f821691505b60208210810362001564576200156362001506565b5b50919050565b60008190508160005260206000209050919050565b60006020601f8301049050919050565b60008160020a8302905092915050565b600060088302620015d17fffffffffffffffffffffffffffffffffffffffffffffffffffffffffffffffff826200158f565b620015dd86836200158f565b95508019841693508086168417925050509392505050565b6000819050919050565b6000620016206200161a620016148462000ff1565b620015f5565b62000ff1565b9050919050565b6000819050919050565b6200163c83620015ff565b620016546200164b8262001627565b8484546200159f565b825550505050565b600090565b6200166b6200165c565b6200167881848462001631565b505050565b5b81811015620016a0576200169460008262001661565b6001810190506200167e565b5050565b601f821115620016ef57620016b9816200156a565b620016c4846200157f565b81016020851015620016d4578190505b620016ec620016e3856200157f565b8301826200167d565b50505b505050565b60008160020a8304905092915050565b60006200171760001984600802620016f4565b1980831691505092915050565b600062001732838362001704565b9150826002028217905092915050565b6200174d826200130c565b67ffffffffffffffff81111562001769576200176862000eaa565b5b62001775825462001535565b62001782828285620016a4565b600060209050601f831160018114620017ba5760008415620017a5578287015190505b620017b1858262001724565b86555062001821565b601f198416620017ca866200156a565b60005b82811015620017f457848901518255600182019150602085019450602081019050620017cd565b8683101562001814578489015162001810601f89168262001704565b8355505b6001600288020188555050505b50505050505056fe60806040523480156200001157600080fd5b506040516200328e3803806200328e833981810160405281019062000037919062000304565b856000806101000a81548173ffffffffffffffffffffffffffffffffffffffff021916908373ffffffffffffffffffffffffffffffffffffffff16021790555083600490816200008891906200066d565b5084600160006101000a81548173ffffffffffffffffffffffffffffffffffffffff021916908373ffffffffffffffffffffffffffffffffffffffff1602179055508260029081620000db91906200066d565b508160039081620000ed91906200066d565b508060059081620000ff91906200066d565b5050505050505062000754565b6000604051905090565b600080fd5b600080fd5b600073ffffffffffffffffffffffffffffffffffffffff82169050919050565b60006200014d8262000120565b9050919050565b6200015f8162000140565b81146200016b57600080fd5b50565b6000815190506200017f8162000154565b92915050565b600080fd5b600080fd5b6000601f19601f8301169050919050565b7f4e487b7100000000000000000000000000000000000000000000000000000000600052604160045260246000fd5b620001da826200018f565b810181811067ffffffffffffffff82111715620001fc57620001fb620001a0565b5b80604052505050565b6000620002116200010c565b90506200021f8282620001cf565b919050565b600067ffffffffffffffff821115620002425762000241620001a0565b5b6200024d826200018f565b9050602081019050919050565b60005b838110156200027a5780820151818401526020810190506200025d565b60008484015250505050565b60006200029d620002978462000224565b62000205565b905082815260208101848484011115620002bc57620002bb6200018a565b5b620002c98482856200025a565b509392505050565b600082601f830112620002e957620002e862000185565b5b8151620002fb84826020860162000286565b91505092915050565b60008060008060008060c0878903121562000324576200032362000116565b5b60006200033489828a016200016e565b96505060206200034789828a016200016e565b955050604087015167ffffffffffffffff8111156200036b576200036a6200011b565b5b6200037989828a01620002d1565b945050606087015167ffffffffffffffff8111156200039d576200039c6200011b565b5b620003ab89828a01620002d1565b935050608087015167ffffffffffffffff811115620003cf57620003ce6200011b565b5b620003dd89828a01620002d1565b92505060a087015167ffffffffffffffff8111156200040157620004006200011b565b5b6200040f89828a01620002d1565b9150509295509295509295565b600081519050919050565b7f4e487b7100000000000000000000000000000000000000000000000000000000600052602260045260246000fd5b600060028204905060018216806200046f57607f821691505b60208210810362000485576200048462000427565b5b50919050565b60008190508160005260206000209050919050565b60006020601f8301049050919050565b60008160020a8302905092915050565b600060088302620004f27fffffffffffffffffffffffffffffffffffffffffffffffffffffffffffffffff82620004b0565b620004fe8683620004b0565b95508019841693508086168417925050509392505050565b6000819050919050565b6000819050919050565b60006200054b620005456200053f8462000516565b62000520565b62000516565b9050919050565b6000819050919050565b62000567836200052a565b6200057f620005768262000552565b848454620004c0565b825550505050565b600090565b6200059662000587565b620005a38184846200055c565b505050565b5b81811015620005cb57620005bf6000826200058c565b600181019050620005a9565b5050565b601f8211156200061a57620005e4816200048b565b620005ef84620004a0565b81016020851015620005ff578190505b620006176200060e85620004a0565b830182620005a8565b50505b505050565b60008160020a8304905092915050565b600062000642600019846008026200061f565b1980831691505092915050565b60006200065d83836200062f565b9150826002028217905092915050565b62000678826200041c565b67ffffffffffffffff811115620006945762000693620001a0565b5b620006a0825462000456565b620006ad828285620005cf565b600060209050601f831160018114620006e55760008415620006d0578287015190505b620006dc85826200064f565b8655506200074c565b601f198416620006f5866200048b565b60005b828110156200071f57848901518255600182019150602085019450602081019050620006f8565b868310156200073f57848901516200073b601f8916826200062f565b8355505b6001600288020188555050505b505050505050565b612b2a80620007646000396000f3fe608060405234801561001057600080fd5b5060043610610128576000357c0100000000000000000000000000000000000000000000000000000000900480637b1d2d00116100bf578063c07f7d161161008e578063c07f7d16146102a8578063cf6431c6146102c4578063d57e0ad6146102e0578063f5e616a614610316578063fee7989e1461032057610128565b80637b1d2d001461021957806394fb3da714610235578063a3e3bf7d14610253578063adb8bfd11461027557610128565b8063542047a0116100fb578063542047a01461018f5780636212fa02146101ab578063645f29a8146101c957806368d91c85146101fd57610128565b806305f53b291461012d5780632e1083d01461014b57806344afd1341461016757806344f034ae14610185575b600080fd5b610135610353565b6040516101429190611f91565b60405180910390f35b61016560048036038101906101609190612106565b610360565b005b61016f610416565b60405161017c9190611f91565b60405180910390f35b61018d610423565b005b6101a960048036038101906101a491906121e5565b61051b565b005b6101b3610788565b6040516101c09190611f91565b60405180910390f35b6101e360048036038101906101de919061230e565b610795565b6040516101f49594939291906123d8565b60405180910390f35b61021760048036038101906102129190612440565b6107f8565b005b610233600480360381019061022e91906124cb565b6109a5565b005b61023d610b47565b60405161024a9190611f91565b60405180910390f35b61025b610b54565b60405161026c95949392919061253a565b60405180910390f35b61028f600480360381019061028a919061230e565b610dc8565b60405161029f94939291906125a9565b60405180910390f35b6102c260048036038101906102bd91906125fc565b610e8e565b005b6102de60048036038101906102d99190612106565b6110aa565b005b6102fa60048036038101906102f5919061230e565b611160565b60405161030d97969594939291906126b7565b60405180910390f35b61031e6111cc565b005b61033a6004803603810190610335919061230e565b6112c4565b60405161034a9493929190612742565b60405180910390f35b6000600780549050905090565b60068160405161037091906127ca565b908152602001604051809103902060010160009054906101000a900473ffffffffffffffffffffffffffffffffffffffff1673ffffffffffffffffffffffffffffffffffffffff163373ffffffffffffffffffffffffffffffffffffffff16146103d957600080fd5b60016006826040516103eb91906127ca565b908152602001604051809103902060030160006101000a81548160ff02191690831515021790555050565b6000600980549050905090565b600073ffffffffffffffffffffffffffffffffffffffff16600a60003373ffffffffffffffffffffffffffffffffffffffff1673ffffffffffffffffffffffffffffffffffffffff16815260200190815260200160002060010160009054906101000a900473ffffffffffffffffffffffffffffffffffffffff1673ffffffffffffffffffffffffffffffffffffffff16036104be57600080fd5b6001600a60003373ffffffffffffffffffffffffffffffffffffffff1673ffffffffffffffffffffffffffffffffffffffff16815260200190815260200160002060040160006101000a81548160ff021916908315150217905550565b600160009054906101000a900473ffffffffffffffffffffffffffffffffffffffff1673ffffffffffffffffffffffffffffffffffffffff163373ffffffffffffffffffffffffffffffffffffffff161461057557600080fd5b61057d611e5a565b86816000018190525085816020019073ffffffffffffffffffffffffffffffffffffffff16908173ffffffffffffffffffffffffffffffffffffffff16815250508481604001819052508381606001819052506000816080019015159081151581525050818160c00181905250828160a001901515908115158152505080600a60008873ffffffffffffffffffffffffffffffffffffffff1673ffffffffffffffffffffffffffffffffffffffff168152602001908152602001600020600082015181600001908161064f91906129f3565b5060208201518160010160006101000a81548173ffffffffffffffffffffffffffffffffffffffff021916908373ffffffffffffffffffffffffffffffffffffffff16021790555060408201518160020190816106ac91906129f3565b5060608201518160030190816106c291906129f3565b5060808201518160040160006101000a81548160ff02191690831515021790555060a08201518160040160016101000a81548160ff02191690831515021790555060c082015181600501908161071891906129f3565b50905050600b869080600181540180825580915050600190039060005260206000200160009091909190916101000a81548173ffffffffffffffffffffffffffffffffffffffff021916908373ffffffffffffffffffffffffffffffffffffffff16021790555050505050505050565b6000600d80549050905090565b6000606080600060606107e5600d87815481106107b5576107b4612ac5565b5b9060005260206000200160009054906101000a900473ffffffffffffffffffffffffffffffffffffffff16611389565b9450945094509450945091939590929450565b600160009054906101000a900473ffffffffffffffffffffffffffffffffffffffff1673ffffffffffffffffffffffffffffffffffffffff163373ffffffffffffffffffffffffffffffffffffffff161461085257600080fd5b61085a611eb1565b83816000018190525082816020019073ffffffffffffffffffffffffffffffffffffffff16908173ffffffffffffffffffffffffffffffffffffffff16815250508181604001819052506000816060019015159081151581525050806006856040516108c691906127ca565b908152602001604051809103902060008201518160000190816108e991906129f3565b5060208201518160010160006101000a81548173ffffffffffffffffffffffffffffffffffffffff021916908373ffffffffffffffffffffffffffffffffffffffff160217905550604082015181600201908161094691906129f3565b5060608201518160030160006101000a81548160ff02191690831515021790555090505060078490806001815401808255809150506001900390600052602060002001600090919091909150908161099e91906129f3565b5050505050565b600160009054906101000a900473ffffffffffffffffffffffffffffffffffffffff1673ffffffffffffffffffffffffffffffffffffffff163373ffffffffffffffffffffffffffffffffffffffff16146109ff57600080fd5b610a07611ef1565b83816000018190525082816020019073ffffffffffffffffffffffffffffffffffffffff16908173ffffffffffffffffffffffffffffffffffffffff168152505081816040018181525050600081606001901515908115158152505080600885604051610a7491906127ca565b90815260200160405180910390206000820151816000019081610a9791906129f3565b5060208201518160010160006101000a81548173ffffffffffffffffffffffffffffffffffffffff021916908373ffffffffffffffffffffffffffffffffffffffff1602179055506040820151816002015560608201518160030160006101000a81548160ff021916908315150217905550905050600984908060018154018082558091505060019003906000526020600020016000909190919091509081610b4091906129f3565b5050505050565b6000600b80549050905090565b6000606080606080600160009054906101000a900473ffffffffffffffffffffffffffffffffffffffff166004600260036005838054610b9390612810565b80601f0160208091040260200160405190810160405280929190818152602001828054610bbf90612810565b8015610c0c5780601f10610be157610100808354040283529160200191610c0c565b820191906000526020600020905b815481529060010190602001808311610bef57829003601f168201915b50505050509350828054610c1f90612810565b80601f0160208091040260200160405190810160405280929190818152602001828054610c4b90612810565b8015610c985780601f10610c6d57610100808354040283529160200191610c98565b820191906000526020600020905b815481529060010190602001808311610c7b57829003601f168201915b50505050509250818054610cab90612810565b80601f0160208091040260200160405190810160405280929190818152602001828054610cd790612810565b8015610d245780601f10610cf957610100808354040283529160200191610d24565b820191906000526020600020905b815481529060010190602001808311610d0757829003601f168201915b50505050509150808054610d3790612810565b80601f0160208091040260200160405190810160405280929190818152602001828054610d6390612810565b8015610db05780601f10610d8557610100808354040283529160200191610db0565b820191906000526020600020905b815481529060010190602001808311610d9357829003601f168201915b50505050509050945094509450945094509091929394565b6060600060606000610e7f60078681548110610de757610de6612ac5565b5b906000526020600020018054610dfc90612810565b80601f0160208091040260200160405190810160405280929190818152602001828054610e2890612810565b8015610e755780601f10610e4a57610100808354040283529160200191610e75565b820191906000526020600020905b815481529060010190602001808311610e5857829003601f168201915b50505050506116c2565b93509350935093509193509193565b600160009054906101000a900473ffffffffffffffffffffffffffffffffffffffff1673ffffffffffffffffffffffffffffffffffffffff163373ffffffffffffffffffffffffffffffffffffffff1614610ee857600080fd5b610ef0611f31565b84816000019073ffffffffffffffffffffffffffffffffffffffff16908173ffffffffffffffffffffffffffffffffffffffff1681525050838160200181905250828160400181905250600081606001901515908115158152505081816080018190525080600c60008773ffffffffffffffffffffffffffffffffffffffff1673ffffffffffffffffffffffffffffffffffffffff16815260200190815260200160002060008201518160000160006101000a81548173ffffffffffffffffffffffffffffffffffffffff021916908373ffffffffffffffffffffffffffffffffffffffff1602179055506020820151816001019081610ff091906129f3565b50604082015181600201908161100691906129f3565b5060608201518160030160006101000a81548160ff021916908315150217905550608082015181600401908161103c91906129f3565b50905050600d859080600181540180825580915050600190039060005260206000200160009091909190916101000a81548173ffffffffffffffffffffffffffffffffffffffff021916908373ffffffffffffffffffffffffffffffffffffffff1602179055505050505050565b6008816040516110ba91906127ca565b908152602001604051809103902060010160009054906101000a900473ffffffffffffffffffffffffffffffffffffffff1673ffffffffffffffffffffffffffffffffffffffff163373ffffffffffffffffffffffffffffffffffffffff161461112357600080fd5b600160088260405161113591906127ca565b908152602001604051809103902060030160006101000a81548160ff02191690831515021790555050565b6060600060608060008060606111b3600b898154811061118357611182612ac5565b5b9060005260206000200160009054906101000a900473ffffffffffffffffffffffffffffffffffffffff166118a4565b9650965096509650965096509650919395979092949650565b600073ffffffffffffffffffffffffffffffffffffffff16600c60003373ffffffffffffffffffffffffffffffffffffffff1673ffffffffffffffffffffffffffffffffffffffff16815260200190815260200160002060000160009054906101000a900473ffffffffffffffffffffffffffffffffffffffff1673ffffffffffffffffffffffffffffffffffffffff160361126757600080fd5b6001600c60003373ffffffffffffffffffffffffffffffffffffffff1673ffffffffffffffffffffffffffffffffffffffff16815260200190815260200160002060030160006101000a81548160ff021916908315150217905550565b6060600080600061137a600986815481106112e2576112e1612ac5565b5b9060005260206000200180546112f790612810565b80601f016020809104026020016040519081016040528092919081815260200182805461132390612810565b80156113705780601f1061134557610100808354040283529160200191611370565b820191906000526020600020905b81548152906001019060200180831161135357829003601f168201915b5050505050611d04565b93509350935093509193509193565b600060608060006060600c60008773ffffffffffffffffffffffffffffffffffffffff1673ffffffffffffffffffffffffffffffffffffffff16815260200190815260200160002060000160009054906101000a900473ffffffffffffffffffffffffffffffffffffffff16600c60008873ffffffffffffffffffffffffffffffffffffffff1673ffffffffffffffffffffffffffffffffffffffff168152602001908152602001600020600101600c60008973ffffffffffffffffffffffffffffffffffffffff1673ffffffffffffffffffffffffffffffffffffffff168152602001908152602001600020600201600c60008a73ffffffffffffffffffffffffffffffffffffffff1673ffffffffffffffffffffffffffffffffffffffff16815260200190815260200160002060030160009054906101000a900460ff16600c60008b73ffffffffffffffffffffffffffffffffffffffff1673ffffffffffffffffffffffffffffffffffffffff16815260200190815260200160002060040183805461151790612810565b80601f016020809104026020016040519081016040528092919081815260200182805461154390612810565b80156115905780601f1061156557610100808354040283529160200191611590565b820191906000526020600020905b81548152906001019060200180831161157357829003601f168201915b505050505093508280546115a390612810565b80601f01602080910402602001604051908101604052809291908181526020018280546115cf90612810565b801561161c5780601f106115f15761010080835404028352916020019161161c565b820191906000526020600020905b8154815290600101906020018083116115ff57829003601f168201915b5050505050925080805461162f90612810565b80601f016020809104026020016040519081016040528092919081815260200182805461165b90612810565b80156116a85780601f1061167d576101008083540402835291602001916116a8565b820191906000526020600020905b81548152906001019060200180831161168b57829003601f168201915b505050505090509450945094509450945091939590929450565b60606000606060006006856040516116da91906127ca565b90815260200160405180910390206000016006866040516116fb91906127ca565b908152602001604051809103902060010160009054906101000a900473ffffffffffffffffffffffffffffffffffffffff1660068760405161173d91906127ca565b908152602001604051809103902060020160068860405161175e91906127ca565b908152602001604051809103902060030160009054906101000a900460ff1683805461178990612810565b80601f01602080910402602001604051908101604052809291908181526020018280546117b590612810565b80156118025780601f106117d757610100808354040283529160200191611802565b820191906000526020600020905b8154815290600101906020018083116117e557829003601f168201915b5050505050935081805461181590612810565b80601f016020809104026020016040519081016040528092919081815260200182805461184190612810565b801561188e5780601f106118635761010080835404028352916020019161188e565b820191906000526020600020905b81548152906001019060200180831161187157829003601f168201915b5050505050915093509350935093509193509193565b606060006060806000806060600a60008973ffffffffffffffffffffffffffffffffffffffff1673ffffffffffffffffffffffffffffffffffffffff168152602001908152602001600020600001600a60008a73ffffffffffffffffffffffffffffffffffffffff1673ffffffffffffffffffffffffffffffffffffffff16815260200190815260200160002060010160009054906101000a900473ffffffffffffffffffffffffffffffffffffffff16600a60008b73ffffffffffffffffffffffffffffffffffffffff1673ffffffffffffffffffffffffffffffffffffffff168152602001908152602001600020600201600a60008c73ffffffffffffffffffffffffffffffffffffffff1673ffffffffffffffffffffffffffffffffffffffff168152602001908152602001600020600301600a60008d73ffffffffffffffffffffffffffffffffffffffff1673ffffffffffffffffffffffffffffffffffffffff16815260200190815260200160002060040160019054906101000a900460ff16600a60008e73ffffffffffffffffffffffffffffffffffffffff1673ffffffffffffffffffffffffffffffffffffffff16815260200190815260200160002060040160009054906101000a900460ff16600a60008f73ffffffffffffffffffffffffffffffffffffffff1673ffffffffffffffffffffffffffffffffffffffff168152602001908152602001600020600501868054611ac790612810565b80601f0160208091040260200160405190810160405280929190818152602001828054611af390612810565b8015611b405780601f10611b1557610100808354040283529160200191611b40565b820191906000526020600020905b815481529060010190602001808311611b2357829003601f168201915b50505050509650848054611b5390612810565b80601f0160208091040260200160405190810160405280929190818152602001828054611b7f90612810565b8015611bcc5780601f10611ba157610100808354040283529160200191611bcc565b820191906000526020600020905b815481529060010190602001808311611baf57829003601f168201915b50505050509450838054611bdf90612810565b80601f0160208091040260200160405190810160405280929190818152602001828054611c0b90612810565b8015611c585780601f10611c2d57610100808354040283529160200191611c58565b820191906000526020600020905b815481529060010190602001808311611c3b57829003601f168201915b50505050509350808054611c6b90612810565b80601f0160208091040260200160405190810160405280929190818152602001828054611c9790612810565b8015611ce45780601f10611cb957610100808354040283529160200191611ce4565b820191906000526020600020905b815481529060010190602001808311611cc757829003601f168201915b505050505090509650965096509650965096509650919395979092949650565b60606000806000600885604051611d1b91906127ca565b9081526020016040518091039020600001600886604051611d3c91906127ca565b908152602001604051809103902060010160009054906101000a900473ffffffffffffffffffffffffffffffffffffffff16600887604051611d7e91906127ca565b908152602001604051809103902060020154600888604051611da091906127ca565b908152602001604051809103902060030160009054906101000a900460ff16838054611dcb90612810565b80601f0160208091040260200160405190810160405280929190818152602001828054611df790612810565b8015611e445780601f10611e1957610100808354040283529160200191611e44565b820191906000526020600020905b815481529060010190602001808311611e2757829003601f168201915b5050505050935093509350935093509193509193565b6040518060e0016040528060608152602001600073ffffffffffffffffffffffffffffffffffffffff1681526020016060815260200160608152602001600015158152602001600015158152602001606081525090565b604051806080016040528060608152602001600073ffffffffffffffffffffffffffffffffffffffff168152602001606081526020016000151581525090565b604051806080016040528060608152602001600073ffffffffffffffffffffffffffffffffffffffff168152602001600081526020016000151581525090565b6040518060a00160405280600073ffffffffffffffffffffffffffffffffffffffff1681526020016060815260200160608152602001600015158152602001606081525090565b6000819050919050565b611f8b81611f78565b82525050565b6000602082019050611fa66000830184611f82565b92915050565b6000604051905090565b600080fd5b600080fd5b600080fd5b600080fd5b6000601f19601f8301169050919050565b7f4e487b7100000000000000000000000000000000000000000000000000000000600052604160045260246000fd5b61201382611fca565b810181811067ffffffffffffffff8211171561203257612031611fdb565b5b80604052505050565b6000612045611fac565b9050612051828261200a565b919050565b600067ffffffffffffffff82111561207157612070611fdb565b5b61207a82611fca565b9050602081019050919050565b82818337600083830152505050565b60006120a96120a484612056565b61203b565b9050828152602081018484840111156120c5576120c4611fc5565b5b6120d0848285612087565b509392505050565b600082601f8301126120ed576120ec611fc0565b5b81356120fd848260208601612096565b91505092915050565b60006020828403121561211c5761211b611fb6565b5b600082013567ffffffffffffffff81111561213a57612139611fbb565b5b612146848285016120d8565b91505092915050565b600073ffffffffffffffffffffffffffffffffffffffff82169050919050565b600061217a8261214f565b9050919050565b61218a8161216f565b811461219557600080fd5b50565b6000813590506121a781612181565b92915050565b60008115159050919050565b6121c2816121ad565b81146121cd57600080fd5b50565b6000813590506121df816121b9565b92915050565b60008060008060008060c0878903121561220257612201611fb6565b5b600087013567ffffffffffffffff8111156122205761221f611fbb565b5b61222c89828a016120d8565b965050602061223d89828a01612198565b955050604087013567ffffffffffffffff81111561225e5761225d611fbb565b5b61226a89828a016120d8565b945050606087013567ffffffffffffffff81111561228b5761228a611fbb565b5b61229789828a016120d8565b93505060806122a889828a016121d0565b92505060a087013567ffffffffffffffff8111156122c9576122c8611fbb565b5b6122d589828a016120d8565b9150509295509295509295565b6122eb81611f78565b81146122f657600080fd5b50565b600081359050612308816122e2565b92915050565b60006020828403121561232457612323611fb6565b5b6000612332848285016122f9565b91505092915050565b6123448161216f565b82525050565b600081519050919050565b600082825260208201905092915050565b60005b83811015612384578082015181840152602081019050612369565b60008484015250505050565b600061239b8261234a565b6123a58185612355565b93506123b5818560208601612366565b6123be81611fca565b840191505092915050565b6123d2816121ad565b82525050565b600060a0820190506123ed600083018861233b565b81810360208301526123ff8187612390565b905081810360408301526124138186612390565b905061242260608301856123c9565b81810360808301526124348184612390565b90509695505050505050565b60008060006060848603121561245957612458611fb6565b5b600084013567ffffffffffffffff81111561247757612476611fbb565b5b612483868287016120d8565b935050602061249486828701612198565b925050604084013567ffffffffffffffff8111156124b5576124b4611fbb565b5b6124c1868287016120d8565b9150509250925092565b6000806000606084860312156124e4576124e3611fb6565b5b600084013567ffffffffffffffff81111561250257612501611fbb565b5b61250e868287016120d8565b935050602061251f86828701612198565b9250506040612530868287016122f9565b9150509250925092565b600060a08201905061254f600083018861233b565b81810360208301526125618187612390565b905081810360408301526125758186612390565b905081810360608301526125898185612390565b9050818103608083015261259d8184612390565b90509695505050505050565b600060808201905081810360008301526125c38187612390565b90506125d2602083018661233b565b81810360408301526125e48185612390565b90506125f360608301846123c9565b95945050505050565b6000806000806080858703121561261657612615611fb6565b5b600061262487828801612198565b945050602085013567ffffffffffffffff81111561264557612644611fbb565b5b612651878288016120d8565b935050604085013567ffffffffffffffff81111561267257612671611fbb565b5b61267e878288016120d8565b925050606085013567ffffffffffffffff81111561269f5761269e611fbb565b5b6126ab878288016120d8565b91505092959194509250565b600060e08201905081810360008301526126d1818a612390565b90506126e0602083018961233b565b81810360408301526126f28188612390565b905081810360608301526127068187612390565b905061271560808301866123c9565b61272260a08301856123c9565b81810360c08301526127348184612390565b905098975050505050505050565b6000608082019050818103600083015261275c8187612390565b905061276b602083018661233b565b6127786040830185611f82565b61278560608301846123c9565b95945050505050565b600081905092915050565b60006127a48261234a565b6127ae818561278e565b93506127be818560208601612366565b80840191505092915050565b60006127d68284612799565b915081905092915050565b7f4e487b7100000000000000000000000000000000000000000000000000000000600052602260045260246000fd5b6000600282049050600182168061282857607f821691505b60208210810361283b5761283a6127e1565b5b50919050565b60008190508160005260206000209050919050565b60006020601f8301049050919050565b60008160020a8302905092915050565b6000600883026128a67fffffffffffffffffffffffffffffffffffffffffffffffffffffffffffffffff82612866565b6128b08683612866565b95508019841693508086168417925050509392505050565b6000819050919050565b60006128ed6128e86128e384611f78565b6128c8565b611f78565b9050919050565b6000819050919050565b612907836128d2565b61291b612913826128f4565b848454612876565b825550505050565b600090565b612930612923565b61293b8184846128fe565b505050565b5b8181101561295f57612954600082612928565b600181019050612941565b5050565b601f8211156129a45761297581612841565b61297e84612856565b8101602085101561298d578190505b6129a161299985612856565b830182612940565b50505b505050565b60008160020a8304905092915050565b60006129ca600019846008026129a9565b1980831691505092915050565b60006129e383836129b9565b9150826002028217905092915050565b6129fc8261234a565b67ffffffffffffffff811115612a1557612a14611fdb565b5b612a1f8254612810565b612a2a828285612963565b600060209050601f831160018114612a5d5760008415612a4b578287015190505b612a5585826129d7565b865550612abd565b601f198416612a6b86612841565b60005b82811015612a9357848901518255600182019150602085019450602081019050612a6e565b86831015612ab05784890151612aac601f8916826129b9565b8355505b6001600288020188555050505b505050505050565b7f4e487b7100000000000000000000000000000000000000000000000000000000600052603260045260246000fdfea26469706673582212200c0912cb7d4e6854920aecbebb90c38a701cef23ceaf171b738187287fcde8ae64736f6c6343000812003360806040523480156200001157600080fd5b5060405162000ef238038062000ef2833981810160405281019062000037919062000304565b856000806101000a81548173ffffffffffffffffffffffffffffffffffffffff021916908373ffffffffffffffffffffffffffffffffffffffff16021790555083600190816200008891906200066d565b5084600260006101000a81548173ffffffffffffffffffffffffffffffffffffffff021916908373ffffffffffffffffffffffffffffffffffffffff1602179055508260039081620000db91906200066d565b508160049081620000ed91906200066d565b508060059081620000ff91906200066d565b5050505050505062000754565b6000604051905090565b600080fd5b600080fd5b600073ffffffffffffffffffffffffffffffffffffffff82169050919050565b60006200014d8262000120565b9050919050565b6200015f8162000140565b81146200016b57600080fd5b50565b6000815190506200017f8162000154565b92915050565b600080fd5b600080fd5b6000601f19601f8301169050919050565b7f4e487b7100000000000000000000000000000000000000000000000000000000600052604160045260246000fd5b620001da826200018f565b810181811067ffffffffffffffff82111715620001fc57620001fb620001a0565b5b80604052505050565b6000620002116200010c565b90506200021f8282620001cf565b919050565b600067ffffffffffffffff821115620002425762000241620001a0565b5b6200024d826200018f565b9050602081019050919050565b60005b838110156200027a5780820151818401526020810190506200025d565b60008484015250505050565b60006200029d620002978462000224565b62000205565b905082815260208101848484011115620002bc57620002bb6200018a565b5b620002c98482856200025a565b509392505050565b600082601f830112620002e957620002e862000185565b5b8151620002fb84826020860162000286565b91505092915050565b60008060008060008060c0878903121562000324576200032362000116565b5b60006200033489828a016200016e565b96505060206200034789828a016200016e565b955050604087015167ffffffffffffffff8111156200036b576200036a6200011b565b5b6200037989828a01620002d1565b945050606087015167ffffffffffffffff8111156200039d576200039c6200011b565b5b620003ab89828a01620002d1565b935050608087015167ffffffffffffffff811115620003cf57620003ce6200011b565b5b620003dd89828a01620002d1565b92505060a087015167ffffffffffffffff8111156200040157620004006200011b565b5b6200040f89828a01620002d1565b9150509295509295509295565b600081519050919050565b7f4e487b7100000000000000000000000000000000000000000000000000000000600052602260045260246000fd5b600060028204905060018216806200046f57607f821691505b60208210810362000485576200048462000427565b5b50919050565b60008190508160005260206000209050919050565b60006020601f8301049050919050565b60008160020a8302905092915050565b600060088302620004f27fffffffffffffffffffffffffffffffffffffffffffffffffffffffffffffffff82620004b0565b620004fe8683620004b0565b95508019841693508086168417925050509392505050565b6000819050919050565b6000819050919050565b60006200054b620005456200053f8462000516565b62000520565b62000516565b9050919050565b6000819050919050565b62000567836200052a565b6200057f620005768262000552565b848454620004c0565b825550505050565b600090565b6200059662000587565b620005a38184846200055c565b505050565b5b81811015620005cb57620005bf6000826200058c565b600181019050620005a9565b5050565b601f8211156200061a57620005e4816200048b565b620005ef84620004a0565b81016020851015620005ff578190505b620006176200060e85620004a0565b830182620005a8565b50505b505050565b60008160020a8304905092915050565b600062000642600019846008026200061f565b1980831691505092915050565b60006200065d83836200062f565b9150826002028217905092915050565b62000678826200041c565b67ffffffffffffffff811115620006945762000693620001a0565b5b620006a0825462000456565b620006ad828285620005cf565b600060209050601f831160018114620006e55760008415620006d0578287015190505b620006dc85826200064f565b8655506200074c565b601f198416620006f5866200048b565b60005b828110156200071f57848901518255600182019150602085019450602081019050620006f8565b868310156200073f57848901516200073b601f8916826200062f565b8355505b6001600288020188555050505b505050505050565b61078e80620007646000396000f3fe608060405234801561001057600080fd5b5060043610610068576000357c010000000000000000000000000000000000000000000000000000000090048062ac80951461006d57806352b9b9731461008957806359420e48146100a7578063e894d0a2146100d7575b600080fd5b610087600480360381019061008291906104e6565b6100f9565b005b6100916101b9565b60405161009e919061052c565b60405180910390f35b6100c160048036038101906100bc9190610573565b6101c6565b6040516100ce91906105af565b60405180910390f35b6100df61020e565b6040516100f095949392919061065a565b60405180910390f35b600260009054906101000a900473ffffffffffffffffffffffffffffffffffffffff1673ffffffffffffffffffffffffffffffffffffffff163373ffffffffffffffffffffffffffffffffffffffff161461015357600080fd5b6006819080600181540180825580915050600190039060005260206000200160009091909190916101000a81548173ffffffffffffffffffffffffffffffffffffffff021916908373ffffffffffffffffffffffffffffffffffffffff16021790555050565b6000600680549050905090565b6000600682815481106101dc576101db6106c9565b5b9060005260206000200160009054906101000a900473ffffffffffffffffffffffffffffffffffffffff169050919050565b6060600060608060606001600260009054906101000a900473ffffffffffffffffffffffffffffffffffffffff1660036004600584805461024e90610727565b80601f016020809104026020016040519081016040528092919081815260200182805461027a90610727565b80156102c75780601f1061029c576101008083540402835291602001916102c7565b820191906000526020600020905b8154815290600101906020018083116102aa57829003601f168201915b505050505094508280546102da90610727565b80601f016020809104026020016040519081016040528092919081815260200182805461030690610727565b80156103535780601f1061032857610100808354040283529160200191610353565b820191906000526020600020905b81548152906001019060200180831161033657829003601f168201915b5050505050925081805461036690610727565b80601f016020809104026020016040519081016040528092919081815260200182805461039290610727565b80156103df5780601f106103b4576101008083540402835291602001916103df565b820191906000526020600020905b8154815290600101906020018083116103c257829003601f168201915b505050505091508080546103f290610727565b80601f016020809104026020016040519081016040528092919081815260200182805461041e90610727565b801561046b5780601f106104405761010080835404028352916020019161046b565b820191906000526020600020905b81548152906001019060200180831161044e57829003601f168201915b50505050509050945094509450945094509091929394565b600080fd5b600073ffffffffffffffffffffffffffffffffffffffff82169050919050565b60006104b382610488565b9050919050565b6104c3816104a8565b81146104ce57600080fd5b50565b6000813590506104e0816104ba565b92915050565b6000602082840312156104fc576104fb610483565b5b600061050a848285016104d1565b91505092915050565b6000819050919050565b61052681610513565b82525050565b6000602082019050610541600083018461051d565b92915050565b61055081610513565b811461055b57600080fd5b50565b60008135905061056d81610547565b92915050565b60006020828403121561058957610588610483565b5b60006105978482850161055e565b91505092915050565b6105a9816104a8565b82525050565b60006020820190506105c460008301846105a0565b92915050565b600081519050919050565b600082825260208201905092915050565b60005b838110156106045780820151818401526020810190506105e9565b60008484015250505050565b6000601f19601f8301169050919050565b600061062c826105ca565b61063681856105d5565b93506106468185602086016105e6565b61064f81610610565b840191505092915050565b600060a08201905081810360008301526106748188610621565b905061068360208301876105a0565b81810360408301526106958186610621565b905081810360608301526106a98185610621565b905081810360808301526106bd8184610621565b90509695505050505050565b7f4e487b7100000000000000000000000000000000000000000000000000000000600052603260045260246000fd5b7f4e487b7100000000000000000000000000000000000000000000000000000000600052602260045260246000fd5b6000600282049050600182168061073f57607f821691505b602082108103610752576107516106f8565b5b5091905056fea2646970667358221220a9ddf2193650ab9d26a9549bf7db3e5f332e52191ef0fbb39dd71942864b139764736f6c63430008120033a2646970667358221220c6cf8c6d6bd88d4a38eace4684191ee5b49d3d79e2fe88d5e042403d2a1c8db464736f6c63430008120033",
  "immutableReferences": {},
  "source": "// SPDX-License-Identifier: MIT\npragma solidity >=0.4.22 <0.9.0;\nimport \"./Organization.sol\";\nimport \"./Employee.sol\";\n\ncontract Admin {\n    address public owner;\n\n    mapping(address => address) registeredEmployeesmap;\n    mapping(address => address) registeredOrganizationmap;\n    address[] registeredEmployees;\n    address[] registeredOrganization;\n\n    // for search by name\n    mapping(string => address[]) empsmap;\n    mapping(string => address) orgsmap;\n    string[] emps;\n    string[] orgs;\n\n    constructor() {\n        owner = msg.sender;\n    }\n\n    modifier onlyOwner() {\n        require(msg.sender == owner);\n        _;\n    }\n\n    function createEmployee(\n        address _eth_address,\n        string memory _name,\n        string memory _location,\n        string memory _email,\n        string memory _description\n    ) public {\n        Employee emp = new Employee(\n            owner,\n            _eth_address,\n            _name,\n            _description,\n            _location,\n            _email\n        );\n        registeredEmployeesmap[_eth_address] = address(emp);\n        registeredEmployees.push(_eth_address);\n        // adding to search array\n        if (empsmap[_name].length == 0) {\n            emps.push(_name);\n        }\n        empsmap[_name].push(_eth_address);\n    }\n\n    function createOrganization(\n        address _eth_address,\n        string memory _name,\n        string memory _location,\n        string memory _email,\n        string memory _description\n    ) public onlyOwner {\n        Organization org = new Organization(\n            owner,\n            _eth_address,\n            _name,\n            _description,\n            _location,\n            _email\n        );\n        registeredOrganizationmap[_eth_address] = address(org);\n        registeredOrganization.push(_eth_address);\n        // adding to search array\n        if (orgsmap[_name] == address(0x0)) {\n            orgs.push(_name);\n        }\n        orgsmap[_name] = _eth_address;\n    }\n\n    function isEmployee(address _employee_address) public view returns (bool) {\n        return registeredEmployeesmap[_employee_address] != address(0x0);\n    }\n\n    function isOrganization(\n        address _organization_address\n    ) public view returns (bool) {\n        return registeredOrganizationmap[_organization_address] != address(0x0);\n    }\n\n    function employeeCount() public view returns (uint256) {\n        return registeredEmployees.length;\n    }\n\n    function getEmployeeContractByAddress(\n        address _employee\n    ) public view returns (address) {\n        return registeredEmployeesmap[_employee];\n    }\n\n    function getEmployeeContractByIndex(\n        uint256 index\n    ) public view returns (address) {\n        return getEmployeeContractByAddress(registeredEmployees[index]);\n    }\n\n    function OrganizationCount() public view returns (uint256) {\n        return registeredOrganization.length;\n    }\n\n    function getOrganizationContractByAddress(\n        address _organization\n    ) public view returns (address) {\n        return registeredOrganizationmap[_organization];\n    }\n\n    function getOrganizationContractByIndex(\n        uint256 index\n    ) public view returns (address) {\n        return getOrganizationContractByAddress(registeredOrganization[index]);\n    }\n\n    // search emps or orgs by name\n\n    function getOrganizationByName(\n        string memory _name\n    ) public view returns (address) {\n        return orgsmap[_name];\n    }\n\n    function getEmployeesByName(\n        string memory _name,\n        uint256 _emp_index\n    ) public view returns (address) {\n        return empsmap[_name][_emp_index];\n    }\n\n    function getTotalEmployeeInEmpsByName(string memory _name)public\n    view\n    returns (uint256)\n  {\n    return empsmap[_name].length;\n  }\n\n    function getEmployeeNameByIndex(\n        uint256 _emp_index\n    ) public view returns (string memory) {\n        return emps[_emp_index];\n    }\n\n    function getOrganizationNameByIndex(\n        uint256 _org_index\n    ) public view returns (string memory) {\n        return orgs[_org_index];\n    }\n}\n",
  "sourcePath": "E:\\skillset\\src\\contracts\\Admin.sol",
  "compiler": {
    "name": "solc",
    "version": "0.8.18+commit.87f61d96.Emscripten.clang"
  },
  "schemaVersion": "3.4.12",
  "updatedAt": "2023-03-09T00:57:21.608Z",
  "networkType": "ethereum",
  "devdoc": {
    "kind": "dev",
    "methods": {},
    "version": 1
  },
  "userdoc": {
    "kind": "user",
    "methods": {},
    "version": 1
  }
}