{
  "contractName": "Admin",
  "abi": [
    {
      "inputs": [],
      "stateMutability": "nonpayable",
      "type": "constructor"
    },
    {
      "inputs": [],
      "name": "owner",
      "outputs": [
        {
          "internalType": "address",
          "name": "",
          "type": "address"
        }
      ],
      "stateMutability": "view",
      "type": "function",
      "constant": true
    },
    {
      "inputs": [
        {
          "internalType": "address",
          "name": "_eth_address",
          "type": "address"
        },
        {
          "internalType": "string",
          "name": "_name",
          "type": "string"
        },
        {
          "internalType": "string",
          "name": "_location",
          "type": "string"
        },
        {
          "internalType": "string",
          "name": "_description",
          "type": "string"
        }
      ],
      "name": "createEmployee",
      "outputs": [],
      "stateMutability": "nonpayable",
      "type": "function"
    },
    {
      "inputs": [
        {
          "internalType": "address",
          "name": "_eth_address",
          "type": "address"
        },
        {
          "internalType": "string",
          "name": "_name",
          "type": "string"
        },
        {
          "internalType": "string",
          "name": "_location",
          "type": "string"
        },
        {
          "internalType": "string",
          "name": "_description",
          "type": "string"
        }
      ],
      "name": "createOrganization",
      "outputs": [],
      "stateMutability": "nonpayable",
      "type": "function"
    },
    {
      "inputs": [
        {
          "internalType": "address",
          "name": "_employee_address",
          "type": "address"
        }
      ],
      "name": "isEmployee",
      "outputs": [
        {
          "internalType": "bool",
          "name": "",
          "type": "bool"
        }
      ],
      "stateMutability": "view",
      "type": "function",
      "constant": true
    },
    {
      "inputs": [
        {
          "internalType": "address",
          "name": "_organization_address",
          "type": "address"
        }
      ],
      "name": "isOrganizaiton",
      "outputs": [
        {
          "internalType": "bool",
          "name": "",
          "type": "bool"
        }
      ],
      "stateMutability": "view",
      "type": "function",
      "constant": true
    }
  ],
  "bytecode": "0x608060405234801561001057600080fd5b50336000806101000a81548173ffffffffffffffffffffffffffffffffffffffff021916908373ffffffffffffffffffffffffffffffffffffffff1602179055506117d2806100606000396000f3fe60806040523480156200001157600080fd5b50600436106200007b576000357c0100000000000000000000000000000000000000000000000000000000900480633f9803d614620000805780636cfd32d714620000a05780638da5cb5b14620000d6578063a8d4d05a14620000f8578063ea66543f1462000118575b600080fd5b6200009e60048036038101906200009891906200078e565b6200014e565b005b620000be6004803603810190620000b891906200085d565b620002f5565b604051620000cd9190620008ac565b60405180910390f35b620000e06200038d565b604051620000ef9190620008da565b60405180910390f35b6200011660048036038101906200011091906200078e565b620003b1565b005b6200013660048036038101906200013091906200085d565b620004ff565b604051620001459190620008ac565b60405180910390f35b60008054906101000a900473ffffffffffffffffffffffffffffffffffffffff1673ffffffffffffffffffffffffffffffffffffffff163373ffffffffffffffffffffffffffffffffffffffff1614620001a757600080fd5b60008060009054906101000a900473ffffffffffffffffffffffffffffffffffffffff1685858486604051620001dd9062000597565b620001ed95949392919062000980565b604051809103906000f0801580156200020a573d6000803e3d6000fd5b50905080600260008773ffffffffffffffffffffffffffffffffffffffff1673ffffffffffffffffffffffffffffffffffffffff16815260200190815260200160002060006101000a81548173ffffffffffffffffffffffffffffffffffffffff021916908373ffffffffffffffffffffffffffffffffffffffff1602179055506004859080600181540180825580915050600190039060005260206000200160009091909190916101000a81548173ffffffffffffffffffffffffffffffffffffffff021916908373ffffffffffffffffffffffffffffffffffffffff1602179055505050505050565b60008073ffffffffffffffffffffffffffffffffffffffff16600260008473ffffffffffffffffffffffffffffffffffffffff1673ffffffffffffffffffffffffffffffffffffffff16815260200190815260200160002060009054906101000a900473ffffffffffffffffffffffffffffffffffffffff1673ffffffffffffffffffffffffffffffffffffffff1614159050919050565b60008054906101000a900473ffffffffffffffffffffffffffffffffffffffff1681565b60008060009054906101000a900473ffffffffffffffffffffffffffffffffffffffff1685858486604051620003e790620005a5565b620003f795949392919062000980565b604051809103906000f08015801562000414573d6000803e3d6000fd5b50905080600160008773ffffffffffffffffffffffffffffffffffffffff1673ffffffffffffffffffffffffffffffffffffffff16815260200190815260200160002060006101000a81548173ffffffffffffffffffffffffffffffffffffffff021916908373ffffffffffffffffffffffffffffffffffffffff1602179055506003859080600181540180825580915050600190039060005260206000200160009091909190916101000a81548173ffffffffffffffffffffffffffffffffffffffff021916908373ffffffffffffffffffffffffffffffffffffffff1602179055505050505050565b60008073ffffffffffffffffffffffffffffffffffffffff16600160008473ffffffffffffffffffffffffffffffffffffffff1673ffffffffffffffffffffffffffffffffffffffff16815260200190815260200160002060009054906101000a900473ffffffffffffffffffffffffffffffffffffffff1673ffffffffffffffffffffffffffffffffffffffff1614159050919050565b6106d580620009f383390190565b6106d580620010c883390190565b6000604051905090565b600080fd5b600080fd5b600073ffffffffffffffffffffffffffffffffffffffff82169050919050565b6000620005f482620005c7565b9050919050565b6200060681620005e7565b81146200061257600080fd5b50565b6000813590506200062681620005fb565b92915050565b600080fd5b600080fd5b6000601f19601f8301169050919050565b7f4e487b7100000000000000000000000000000000000000000000000000000000600052604160045260246000fd5b620006818262000636565b810181811067ffffffffffffffff82111715620006a357620006a262000647565b5b80604052505050565b6000620006b8620005b3565b9050620006c6828262000676565b919050565b600067ffffffffffffffff821115620006e957620006e862000647565b5b620006f48262000636565b9050602081019050919050565b82818337600083830152505050565b6000620007276200072184620006cb565b620006ac565b90508281526020810184848401111562000746576200074562000631565b5b6200075384828562000701565b509392505050565b600082601f8301126200077357620007726200062c565b5b81356200078584826020860162000710565b91505092915050565b60008060008060808587031215620007ab57620007aa620005bd565b5b6000620007bb8782880162000615565b945050602085013567ffffffffffffffff811115620007df57620007de620005c2565b5b620007ed878288016200075b565b935050604085013567ffffffffffffffff811115620008115762000810620005c2565b5b6200081f878288016200075b565b925050606085013567ffffffffffffffff811115620008435762000842620005c2565b5b62000851878288016200075b565b91505092959194509250565b600060208284031215620008765762000875620005bd565b5b6000620008868482850162000615565b91505092915050565b60008115159050919050565b620008a6816200088f565b82525050565b6000602082019050620008c360008301846200089b565b92915050565b620008d481620005e7565b82525050565b6000602082019050620008f16000830184620008c9565b92915050565b600081519050919050565b600082825260208201905092915050565b60005b838110156200093357808201518184015260208101905062000916565b60008484015250505050565b60006200094c82620008f7565b62000958818562000902565b93506200096a81856020860162000913565b620009758162000636565b840191505092915050565b600060a082019050620009976000830188620008c9565b620009a66020830187620008c9565b8181036040830152620009ba81866200093f565b90508181036060830152620009d081856200093f565b90508181036080830152620009e681846200093f565b9050969550505050505056fe608060405234801561001057600080fd5b506040516106d53803806106d5833981810160405281019061003291906102c0565b846000806101000a81548173ffffffffffffffffffffffffffffffffffffffff021916908373ffffffffffffffffffffffffffffffffffffffff160217905550826001908161008191906105b6565b5083600260006101000a81548173ffffffffffffffffffffffffffffffffffffffff021916908373ffffffffffffffffffffffffffffffffffffffff16021790555081600390816100d291906105b6565b5080600490816100e291906105b6565b505050505050610688565b6000604051905090565b600080fd5b600080fd5b600073ffffffffffffffffffffffffffffffffffffffff82169050919050565b600061012c82610101565b9050919050565b61013c81610121565b811461014757600080fd5b50565b60008151905061015981610133565b92915050565b600080fd5b600080fd5b6000601f19601f8301169050919050565b7f4e487b7100000000000000000000000000000000000000000000000000000000600052604160045260246000fd5b6101b282610169565b810181811067ffffffffffffffff821117156101d1576101d061017a565b5b80604052505050565b60006101e46100ed565b90506101f082826101a9565b919050565b600067ffffffffffffffff8211156102105761020f61017a565b5b61021982610169565b9050602081019050919050565b60005b83811015610244578082015181840152602081019050610229565b60008484015250505050565b600061026361025e846101f5565b6101da565b90508281526020810184848401111561027f5761027e610164565b5b61028a848285610226565b509392505050565b600082601f8301126102a7576102a661015f565b5b81516102b7848260208601610250565b91505092915050565b600080600080600060a086880312156102dc576102db6100f7565b5b60006102ea8882890161014a565b95505060206102fb8882890161014a565b945050604086015167ffffffffffffffff81111561031c5761031b6100fc565b5b61032888828901610292565b935050606086015167ffffffffffffffff811115610349576103486100fc565b5b61035588828901610292565b925050608086015167ffffffffffffffff811115610376576103756100fc565b5b61038288828901610292565b9150509295509295909350565b600081519050919050565b7f4e487b7100000000000000000000000000000000000000000000000000000000600052602260045260246000fd5b600060028204905060018216806103e157607f821691505b6020821081036103f4576103f361039a565b5b50919050565b60008190508160005260206000209050919050565b60006020601f8301049050919050565b60008160020a8302905092915050565b60006008830261045f7fffffffffffffffffffffffffffffffffffffffffffffffffffffffffffffffff8261041f565b610469868361041f565b95508019841693508086168417925050509392505050565b6000819050919050565b6000819050919050565b60006104b06104ab6104a684610481565b61048b565b610481565b9050919050565b6000819050919050565b6104ca83610495565b6104de6104d6826104b7565b84845461042f565b825550505050565b600090565b6104f36104e6565b6104fe8184846104c1565b505050565b5b81811015610522576105176000826104eb565b600181019050610504565b5050565b601f82111561056757610538816103fa565b6105418461040f565b81016020851015610550578190505b61056461055c8561040f565b830182610503565b50505b505050565b60008160020a8304905092915050565b600061058d6000198460080261056c565b1980831691505092915050565b60006105a6838361057c565b9150826002028217905092915050565b6105bf8261038f565b67ffffffffffffffff8111156105d8576105d761017a565b5b6105e282546103c9565b6105ed828285610526565b600060209050601f831160018114610620576000841561060e578287015190505b610618858261059a565b865550610680565b601f19841661062e866103fa565b60005b8281101561065657848901518255600182019150602085019450602081019050610631565b86831015610673578489015161066f601f89168261057c565b8355505b6001600288020188555050505b505050505050565b603f806106966000396000f3fe6080604052600080fdfea2646970667358221220db7873b2c5ac8bf98eb6f1da8463eae92bb399a0e3ae355db71696593e76af2164736f6c63430008120033608060405234801561001057600080fd5b506040516106d53803806106d5833981810160405281019061003291906102c0565b846000806101000a81548173ffffffffffffffffffffffffffffffffffffffff021916908373ffffffffffffffffffffffffffffffffffffffff160217905550826004908161008191906105b6565b5083600160006101000a81548173ffffffffffffffffffffffffffffffffffffffff021916908373ffffffffffffffffffffffffffffffffffffffff16021790555081600290816100d291906105b6565b5080600390816100e291906105b6565b505050505050610688565b6000604051905090565b600080fd5b600080fd5b600073ffffffffffffffffffffffffffffffffffffffff82169050919050565b600061012c82610101565b9050919050565b61013c81610121565b811461014757600080fd5b50565b60008151905061015981610133565b92915050565b600080fd5b600080fd5b6000601f19601f8301169050919050565b7f4e487b7100000000000000000000000000000000000000000000000000000000600052604160045260246000fd5b6101b282610169565b810181811067ffffffffffffffff821117156101d1576101d061017a565b5b80604052505050565b60006101e46100ed565b90506101f082826101a9565b919050565b600067ffffffffffffffff8211156102105761020f61017a565b5b61021982610169565b9050602081019050919050565b60005b83811015610244578082015181840152602081019050610229565b60008484015250505050565b600061026361025e846101f5565b6101da565b90508281526020810184848401111561027f5761027e610164565b5b61028a848285610226565b509392505050565b600082601f8301126102a7576102a661015f565b5b81516102b7848260208601610250565b91505092915050565b600080600080600060a086880312156102dc576102db6100f7565b5b60006102ea8882890161014a565b95505060206102fb8882890161014a565b945050604086015167ffffffffffffffff81111561031c5761031b6100fc565b5b61032888828901610292565b935050606086015167ffffffffffffffff811115610349576103486100fc565b5b61035588828901610292565b925050608086015167ffffffffffffffff811115610376576103756100fc565b5b61038288828901610292565b9150509295509295909350565b600081519050919050565b7f4e487b7100000000000000000000000000000000000000000000000000000000600052602260045260246000fd5b600060028204905060018216806103e157607f821691505b6020821081036103f4576103f361039a565b5b50919050565b60008190508160005260206000209050919050565b60006020601f8301049050919050565b60008160020a8302905092915050565b60006008830261045f7fffffffffffffffffffffffffffffffffffffffffffffffffffffffffffffffff8261041f565b610469868361041f565b95508019841693508086168417925050509392505050565b6000819050919050565b6000819050919050565b60006104b06104ab6104a684610481565b61048b565b610481565b9050919050565b6000819050919050565b6104ca83610495565b6104de6104d6826104b7565b84845461042f565b825550505050565b600090565b6104f36104e6565b6104fe8184846104c1565b505050565b5b81811015610522576105176000826104eb565b600181019050610504565b5050565b601f82111561056757610538816103fa565b6105418461040f565b81016020851015610550578190505b61056461055c8561040f565b830182610503565b50505b505050565b60008160020a8304905092915050565b600061058d6000198460080261056c565b1980831691505092915050565b60006105a6838361057c565b9150826002028217905092915050565b6105bf8261038f565b67ffffffffffffffff8111156105d8576105d761017a565b5b6105e282546103c9565b6105ed828285610526565b600060209050601f831160018114610620576000841561060e578287015190505b610618858261059a565b865550610680565b601f19841661062e866103fa565b60005b8281101561065657848901518255600182019150602085019450602081019050610631565b86831015610673578489015161066f601f89168261057c565b8355505b6001600288020188555050505b505050505050565b603f806106966000396000f3fe6080604052600080fdfea2646970667358221220f9d4d3468f53768dfbc91baa332a568fbd6dc2d8b42b79eba71d2c50343eb26b64736f6c63430008120033a2646970667358221220bd2c0c196862cb96f36d8b11c568d244789240a9cff449a8d9c588c13a4961e764736f6c63430008120033",
  "immutableReferences": {},
  "source": "// SPDX-License-Identifier: MIT\npragma solidity >=0.4.22 <0.9.0;\nimport \"./Organization.sol\";\nimport \"./Employee.sol\";\n\ncontract Admin {\n    address public owner;\n\n    mapping(address => address) registeredEmployeesmap;\n    mapping(address => address) registeredOrganizationmap;\n    address[] registeredEmployees;\n    address[] registeredOrganization;\n\n    constructor() {\n        owner = msg.sender;\n    }\n\n    modifier onlyOwner() {\n        require(msg.sender == owner);\n        _;\n    }\n\n    function createEmployee(\n        address _eth_address,\n        string memory _name,\n        string memory _location,\n        string memory _description\n    ) public {\n        Employee emp = new Employee(\n            owner,\n            _eth_address,\n            _name,\n            _description,\n            _location\n        );\n        registeredEmployeesmap[_eth_address] = address(emp);\n        registeredEmployees.push(_eth_address);\n    }\n\n    function createOrganization(\n        address _eth_address,\n        string memory _name,\n        string memory _location,\n        string memory _description\n    ) public onlyOwner {\n        Organization org = new Organization(\n            owner,\n            _eth_address,\n            _name,\n            _description,\n            _location\n        );\n        registeredOrganizationmap[_eth_address] = address(org);\n        registeredOrganization.push(_eth_address);\n    }\n\n    function isEmployee(address _employee_address) public view returns (bool) {\n        return registeredEmployeesmap[_employee_address] != address(0x0);\n    }\n\n    function isOrganizaiton(\n        address _organization_address\n    ) public view returns (bool) {\n        return registeredOrganizationmap[_organization_address] != address(0x0);\n    }\n}\n",
  "sourcePath": "E:\\skillset\\src\\contracts\\Admin.sol",
  "compiler": {
    "name": "solc",
    "version": "0.8.18+commit.87f61d96.Emscripten.clang"
  },
  "schemaVersion": "3.4.12",
  "updatedAt": "2023-03-07T13:19:15.251Z",
  "networkType": "ethereum",
  "devdoc": {
    "kind": "dev",
    "methods": {},
    "version": 1
  },
  "userdoc": {
    "kind": "user",
    "methods": {},
    "version": 1
  }
}