{
  "contractName": "Admin",
  "abi": [
    {
      "inputs": [],
      "stateMutability": "nonpayable",
      "type": "constructor"
    },
    {
      "inputs": [],
      "name": "owner",
      "outputs": [
        {
          "internalType": "address",
          "name": "",
          "type": "address"
        }
      ],
      "stateMutability": "view",
      "type": "function",
      "constant": true
    },
    {
      "inputs": [
        {
          "internalType": "address",
          "name": "_eth_address",
          "type": "address"
        },
        {
          "internalType": "string",
          "name": "_name",
          "type": "string"
        },
        {
          "internalType": "string",
          "name": "_location",
          "type": "string"
        },
        {
          "internalType": "string",
          "name": "_email",
          "type": "string"
        },
        {
          "internalType": "string",
          "name": "_description",
          "type": "string"
        }
      ],
      "name": "createEmployee",
      "outputs": [],
      "stateMutability": "nonpayable",
      "type": "function"
    },
    {
      "inputs": [
        {
          "internalType": "address",
          "name": "_eth_address",
          "type": "address"
        },
        {
          "internalType": "string",
          "name": "_name",
          "type": "string"
        },
        {
          "internalType": "string",
          "name": "_location",
          "type": "string"
        },
        {
          "internalType": "string",
          "name": "_email",
          "type": "string"
        },
        {
          "internalType": "string",
          "name": "_description",
          "type": "string"
        }
      ],
      "name": "createOrganization",
      "outputs": [],
      "stateMutability": "nonpayable",
      "type": "function"
    },
    {
      "inputs": [
        {
          "internalType": "address",
          "name": "_employee_address",
          "type": "address"
        }
      ],
      "name": "isEmployee",
      "outputs": [
        {
          "internalType": "bool",
          "name": "",
          "type": "bool"
        }
      ],
      "stateMutability": "view",
      "type": "function",
      "constant": true
    },
    {
      "inputs": [
        {
          "internalType": "address",
          "name": "_organization_address",
          "type": "address"
        }
      ],
      "name": "isOrganization",
      "outputs": [
        {
          "internalType": "bool",
          "name": "",
          "type": "bool"
        }
      ],
      "stateMutability": "view",
      "type": "function",
      "constant": true
    },
    {
      "inputs": [],
      "name": "employeeCount",
      "outputs": [
        {
          "internalType": "uint256",
          "name": "",
          "type": "uint256"
        }
      ],
      "stateMutability": "view",
      "type": "function",
      "constant": true
    },
    {
      "inputs": [
        {
          "internalType": "address",
          "name": "_employee",
          "type": "address"
        }
      ],
      "name": "getEmployeeContractByAddress",
      "outputs": [
        {
          "internalType": "address",
          "name": "",
          "type": "address"
        }
      ],
      "stateMutability": "view",
      "type": "function",
      "constant": true
    },
    {
      "inputs": [
        {
          "internalType": "uint256",
          "name": "index",
          "type": "uint256"
        }
      ],
      "name": "getEmployeeContractByIndex",
      "outputs": [
        {
          "internalType": "address",
          "name": "",
          "type": "address"
        }
      ],
      "stateMutability": "view",
      "type": "function",
      "constant": true
    },
    {
      "inputs": [],
      "name": "OrganizationCount",
      "outputs": [
        {
          "internalType": "uint256",
          "name": "",
          "type": "uint256"
        }
      ],
      "stateMutability": "view",
      "type": "function",
      "constant": true
    },
    {
      "inputs": [
        {
          "internalType": "address",
          "name": "_organization",
          "type": "address"
        }
      ],
      "name": "getOrganizationContractByAddress",
      "outputs": [
        {
          "internalType": "address",
          "name": "",
          "type": "address"
        }
      ],
      "stateMutability": "view",
      "type": "function",
      "constant": true
    },
    {
      "inputs": [
        {
          "internalType": "uint256",
          "name": "index",
          "type": "uint256"
        }
      ],
      "name": "getOrganizationContractByIndex",
      "outputs": [
        {
          "internalType": "address",
          "name": "",
          "type": "address"
        }
      ],
      "stateMutability": "view",
      "type": "function",
      "constant": true
    },
    {
      "inputs": [
        {
          "internalType": "string",
          "name": "_name",
          "type": "string"
        }
      ],
      "name": "getOrganizationByName",
      "outputs": [
        {
          "internalType": "address",
          "name": "",
          "type": "address"
        }
      ],
      "stateMutability": "view",
      "type": "function",
      "constant": true
    },
    {
      "inputs": [
        {
          "internalType": "string",
          "name": "_name",
          "type": "string"
        },
        {
          "internalType": "uint256",
          "name": "_emp_index",
          "type": "uint256"
        }
      ],
      "name": "getEmployeesByName",
      "outputs": [
        {
          "internalType": "address",
          "name": "",
          "type": "address"
        }
      ],
      "stateMutability": "view",
      "type": "function",
      "constant": true
    },
    {
      "inputs": [
        {
          "internalType": "string",
          "name": "_name",
          "type": "string"
        }
      ],
      "name": "getTotalEmployeeInEmpsByName",
      "outputs": [
        {
          "internalType": "uint256",
          "name": "",
          "type": "uint256"
        }
      ],
      "stateMutability": "view",
      "type": "function",
      "constant": true
    },
    {
      "inputs": [
        {
          "internalType": "uint256",
          "name": "_emp_index",
          "type": "uint256"
        }
      ],
      "name": "getEmployeeNameByIndex",
      "outputs": [
        {
          "internalType": "string",
          "name": "",
          "type": "string"
        }
      ],
      "stateMutability": "view",
      "type": "function",
      "constant": true
    },
    {
      "inputs": [
        {
          "internalType": "uint256",
          "name": "_org_index",
          "type": "uint256"
        }
      ],
      "name": "getOrganizationNameByIndex",
      "outputs": [
        {
          "internalType": "string",
          "name": "",
          "type": "string"
        }
      ],
      "stateMutability": "view",
      "type": "function",
      "constant": true
    }
  ],
  "bytecode": "0x608060405234801561001057600080fd5b50336000806101000a81548173ffffffffffffffffffffffffffffffffffffffff021916908373ffffffffffffffffffffffffffffffffffffffff160217905550615c99806100606000396000f3fe60806040523480156200001157600080fd5b506004361062000135576000357c0100000000000000000000000000000000000000000000000000000000900480638da5cb5b11620000c2578063c684ba28116200008c578063c684ba28146200036e578063cc5a561114620003a4578063de32415814620003da578063ea66543f14620003fc5762000135565b80638da5cb5b14620002d45780638dd2c6c914620002f65780639047bf581462000316578063b1ce8eab14620003385762000135565b80636968ffe411620001045780636968ffe414620002125780636d62d31314620002325780636ffb43b114620002685780637cbf7310146200029e5762000135565b80630bae724c146200013a57806315d809f91462000170578063323ddfc414620001a6578063447a81fe14620001dc575b600080fd5b620001586004803603810190620001529190620010fd565b62000432565b604051620001679190620011a8565b60405180910390f35b6200018e6004803603810190620001889190620011c5565b6200049c565b6040516200019d9190620011a8565b60405180910390f35b620001c46004803603810190620001be919062001228565b620004f1565b604051620001d39190620011a8565b60405180910390f35b620001fa6004803603810190620001f49190620011c5565b6200055a565b604051620002099190620011a8565b60405180910390f35b6200023060048036038101906200022a91906200125a565b620005af565b005b6200025060048036038101906200024a91906200135e565b620007e5565b6040516200025f9190620011a8565b60405180910390f35b6200028660048036038101906200028091906200135e565b6200082f565b604051620002959190620013c0565b60405180910390f35b620002bc6004803603810190620002b69190620011c5565b6200085c565b604051620002cb919062001466565b60405180910390f35b620002de62000917565b604051620002ed9190620011a8565b60405180910390f35b6200031460048036038101906200030e91906200125a565b6200093b565b005b6200032062000cc2565b6040516200032f9190620013c0565b60405180910390f35b62000356600480360381019062000350919062001228565b62000ccf565b604051620003659190620014a7565b60405180910390f35b6200038c600480360381019062000386919062001228565b62000d67565b6040516200039b9190620011a8565b60405180910390f35b620003c26004803603810190620003bc9190620011c5565b62000dd0565b604051620003d1919062001466565b60405180910390f35b620003e462000e8b565b604051620003f39190620013c0565b60405180910390f35b6200041a600480360381019062000414919062001228565b62000e98565b604051620004299190620014a7565b60405180910390f35b600060058360405162000446919062001506565b908152602001604051809103902082815481106200046957620004686200151f565b5b9060005260206000200160009054906101000a900473ffffffffffffffffffffffffffffffffffffffff16905092915050565b6000620004ea60048381548110620004b957620004b86200151f565b5b9060005260206000200160009054906101000a900473ffffffffffffffffffffffffffffffffffffffff1662000d67565b9050919050565b6000600160008373ffffffffffffffffffffffffffffffffffffffff1673ffffffffffffffffffffffffffffffffffffffff16815260200190815260200160002060009054906101000a900473ffffffffffffffffffffffffffffffffffffffff169050919050565b6000620005a8600383815481106200057757620005766200151f565b5b9060005260206000200160009054906101000a900473ffffffffffffffffffffffffffffffffffffffff16620004f1565b9050919050565b60008060009054906101000a900473ffffffffffffffffffffffffffffffffffffffff168686848787604051620005e69062000f30565b620005f7969594939291906200154e565b604051809103906000f08015801562000614573d6000803e3d6000fd5b50905080600160008873ffffffffffffffffffffffffffffffffffffffff1673ffffffffffffffffffffffffffffffffffffffff16815260200190815260200160002060006101000a81548173ffffffffffffffffffffffffffffffffffffffff021916908373ffffffffffffffffffffffffffffffffffffffff1602179055506003869080600181540180825580915050600190039060005260206000200160009091909190916101000a81548173ffffffffffffffffffffffffffffffffffffffff021916908373ffffffffffffffffffffffffffffffffffffffff16021790555060006005866040516200070c919062001506565b908152602001604051809103902080549050036200075c576007859080600181540180825580915050600190039060005260206000200160009091909190915090816200075a919062001813565b505b6005856040516200076e919062001506565b9081526020016040518091039020869080600181540180825580915050600190039060005260206000200160009091909190916101000a81548173ffffffffffffffffffffffffffffffffffffffff021916908373ffffffffffffffffffffffffffffffffffffffff160217905550505050505050565b6000600682604051620007f9919062001506565b908152602001604051809103902060009054906101000a900473ffffffffffffffffffffffffffffffffffffffff169050919050565b600060058260405162000843919062001506565b9081526020016040518091039020805490509050919050565b6060600782815481106200087557620008746200151f565b5b9060005260206000200180546200088c9062001606565b80601f0160208091040260200160405190810160405280929190818152602001828054620008ba9062001606565b80156200090b5780601f10620008df576101008083540402835291602001916200090b565b820191906000526020600020905b815481529060010190602001808311620008ed57829003601f168201915b50505050509050919050565b60008054906101000a900473ffffffffffffffffffffffffffffffffffffffff1681565b60008054906101000a900473ffffffffffffffffffffffffffffffffffffffff1673ffffffffffffffffffffffffffffffffffffffff163373ffffffffffffffffffffffffffffffffffffffff16146200099457600080fd5b600073ffffffffffffffffffffffffffffffffffffffff16600260008773ffffffffffffffffffffffffffffffffffffffff1673ffffffffffffffffffffffffffffffffffffffff16815260200190815260200160002060009054906101000a900473ffffffffffffffffffffffffffffffffffffffff1673ffffffffffffffffffffffffffffffffffffffff161462000a65576040517f08c379a000000000000000000000000000000000000000000000000000000000815260040162000a5c906200194a565b60405180910390fd5b60008060009054906101000a900473ffffffffffffffffffffffffffffffffffffffff16868684878760405162000a9c9062000f3e565b62000aad969594939291906200154e565b604051809103906000f08015801562000aca573d6000803e3d6000fd5b50905080600260008873ffffffffffffffffffffffffffffffffffffffff1673ffffffffffffffffffffffffffffffffffffffff16815260200190815260200160002060006101000a81548173ffffffffffffffffffffffffffffffffffffffff021916908373ffffffffffffffffffffffffffffffffffffffff1602179055506004869080600181540180825580915050600190039060005260206000200160009091909190916101000a81548173ffffffffffffffffffffffffffffffffffffffff021916908373ffffffffffffffffffffffffffffffffffffffff160217905550600073ffffffffffffffffffffffffffffffffffffffff1660068660405162000bd8919062001506565b908152602001604051809103902060009054906101000a900473ffffffffffffffffffffffffffffffffffffffff1673ffffffffffffffffffffffffffffffffffffffff160362000c5b5760088590806001815401808255809150506001900390600052602060002001600090919091909150908162000c59919062001813565b505b8560068660405162000c6e919062001506565b908152602001604051809103902060006101000a81548173ffffffffffffffffffffffffffffffffffffffff021916908373ffffffffffffffffffffffffffffffffffffffff160217905550505050505050565b6000600380549050905090565b60008073ffffffffffffffffffffffffffffffffffffffff16600260008473ffffffffffffffffffffffffffffffffffffffff1673ffffffffffffffffffffffffffffffffffffffff16815260200190815260200160002060009054906101000a900473ffffffffffffffffffffffffffffffffffffffff1673ffffffffffffffffffffffffffffffffffffffff1614159050919050565b6000600260008373ffffffffffffffffffffffffffffffffffffffff1673ffffffffffffffffffffffffffffffffffffffff16815260200190815260200160002060009054906101000a900473ffffffffffffffffffffffffffffffffffffffff169050919050565b60606008828154811062000de95762000de86200151f565b5b90600052602060002001805462000e009062001606565b80601f016020809104026020016040519081016040528092919081815260200182805462000e2e9062001606565b801562000e7f5780601f1062000e535761010080835404028352916020019162000e7f565b820191906000526020600020905b81548152906001019060200180831162000e6157829003601f168201915b50505050509050919050565b6000600480549050905090565b60008073ffffffffffffffffffffffffffffffffffffffff16600160008473ffffffffffffffffffffffffffffffffffffffff1673ffffffffffffffffffffffffffffffffffffffff16815260200190815260200160002060009054906101000a900473ffffffffffffffffffffffffffffffffffffffff1673ffffffffffffffffffffffffffffffffffffffff1614159050919050565b613405806200196d83390190565b610ef28062004d7283390190565b6000604051905090565b600080fd5b600080fd5b600080fd5b600080fd5b6000601f19601f8301169050919050565b7f4e487b7100000000000000000000000000000000000000000000000000000000600052604160045260246000fd5b62000fb58262000f6a565b810181811067ffffffffffffffff8211171562000fd75762000fd662000f7b565b5b80604052505050565b600062000fec62000f4c565b905062000ffa828262000faa565b919050565b600067ffffffffffffffff8211156200101d576200101c62000f7b565b5b620010288262000f6a565b9050602081019050919050565b82818337600083830152505050565b60006200105b620010558462000fff565b62000fe0565b9050828152602081018484840111156200107a576200107962000f65565b5b6200108784828562001035565b509392505050565b600082601f830112620010a757620010a662000f60565b5b8135620010b984826020860162001044565b91505092915050565b6000819050919050565b620010d781620010c2565b8114620010e357600080fd5b50565b600081359050620010f781620010cc565b92915050565b6000806040838503121562001117576200111662000f56565b5b600083013567ffffffffffffffff81111562001138576200113762000f5b565b5b62001146858286016200108f565b92505060206200115985828601620010e6565b9150509250929050565b600073ffffffffffffffffffffffffffffffffffffffff82169050919050565b6000620011908262001163565b9050919050565b620011a28162001183565b82525050565b6000602082019050620011bf600083018462001197565b92915050565b600060208284031215620011de57620011dd62000f56565b5b6000620011ee84828501620010e6565b91505092915050565b620012028162001183565b81146200120e57600080fd5b50565b6000813590506200122281620011f7565b92915050565b60006020828403121562001241576200124062000f56565b5b6000620012518482850162001211565b91505092915050565b600080600080600060a0868803121562001279576200127862000f56565b5b6000620012898882890162001211565b955050602086013567ffffffffffffffff811115620012ad57620012ac62000f5b565b5b620012bb888289016200108f565b945050604086013567ffffffffffffffff811115620012df57620012de62000f5b565b5b620012ed888289016200108f565b935050606086013567ffffffffffffffff81111562001311576200131062000f5b565b5b6200131f888289016200108f565b925050608086013567ffffffffffffffff81111562001343576200134262000f5b565b5b62001351888289016200108f565b9150509295509295909350565b60006020828403121562001377576200137662000f56565b5b600082013567ffffffffffffffff81111562001398576200139762000f5b565b5b620013a6848285016200108f565b91505092915050565b620013ba81620010c2565b82525050565b6000602082019050620013d76000830184620013af565b92915050565b600081519050919050565b600082825260208201905092915050565b60005b8381101562001419578082015181840152602081019050620013fc565b60008484015250505050565b60006200143282620013dd565b6200143e8185620013e8565b935062001450818560208601620013f9565b6200145b8162000f6a565b840191505092915050565b6000602082019050818103600083015262001482818462001425565b905092915050565b60008115159050919050565b620014a1816200148a565b82525050565b6000602082019050620014be600083018462001496565b92915050565b600081905092915050565b6000620014dc82620013dd565b620014e88185620014c4565b9350620014fa818560208601620013f9565b80840191505092915050565b6000620015148284620014cf565b915081905092915050565b7f4e487b7100000000000000000000000000000000000000000000000000000000600052603260045260246000fd5b600060c08201905062001565600083018962001197565b62001574602083018862001197565b818103604083015262001588818762001425565b905081810360608301526200159e818662001425565b90508181036080830152620015b4818562001425565b905081810360a0830152620015ca818462001425565b9050979650505050505050565b7f4e487b7100000000000000000000000000000000000000000000000000000000600052602260045260246000fd5b600060028204905060018216806200161f57607f821691505b602082108103620016355762001634620015d7565b5b50919050565b60008190508160005260206000209050919050565b60006020601f8301049050919050565b60008160020a8302905092915050565b600060088302620016a27fffffffffffffffffffffffffffffffffffffffffffffffffffffffffffffffff8262001660565b620016ae868362001660565b95508019841693508086168417925050509392505050565b6000819050919050565b6000620016f1620016eb620016e584620010c2565b620016c6565b620010c2565b9050919050565b6000819050919050565b6200170d83620016d0565b620017256200171c82620016f8565b84845462001670565b825550505050565b600090565b6200173c6200172d565b6200174981848462001702565b505050565b5b8181101562001771576200176560008262001732565b6001810190506200174f565b5050565b601f821115620017c0576200178a816200163b565b620017958462001650565b81016020851015620017a5578190505b620017bd620017b48562001650565b8301826200174e565b50505b505050565b60008160020a8304905092915050565b6000620017e860001984600802620017c5565b1980831691505092915050565b6000620018038383620017d5565b9150826002028217905092915050565b6200181e82620013dd565b67ffffffffffffffff8111156200183a576200183962000f7b565b5b62001846825462001606565b6200185382828562001775565b600060209050601f8311600181146200188b576000841562001876578287015190505b620018828582620017f5565b865550620018f2565b601f1984166200189b866200163b565b60005b82811015620018c5578489015182556001820191506020850194506020810190506200189e565b86831015620018e55784890151620018e1601f891682620017d5565b8355505b6001600288020188555050505b505050505050565b7f416c726561647920726567697374657265640000000000000000000000000000600082015250565b600062001932601283620013e8565b91506200193f82620018fa565b602082019050919050565b60006020820190508181036000830152620019658162001923565b905091905056fe60806040523480156200001157600080fd5b506040516200340538038062003405833981810160405281019062000037919062000304565b856000806101000a81548173ffffffffffffffffffffffffffffffffffffffff021916908373ffffffffffffffffffffffffffffffffffffffff16021790555083600490816200008891906200066d565b5084600160006101000a81548173ffffffffffffffffffffffffffffffffffffffff021916908373ffffffffffffffffffffffffffffffffffffffff1602179055508260029081620000db91906200066d565b508160039081620000ed91906200066d565b508060059081620000ff91906200066d565b5050505050505062000754565b6000604051905090565b600080fd5b600080fd5b600073ffffffffffffffffffffffffffffffffffffffff82169050919050565b60006200014d8262000120565b9050919050565b6200015f8162000140565b81146200016b57600080fd5b50565b6000815190506200017f8162000154565b92915050565b600080fd5b600080fd5b6000601f19601f8301169050919050565b7f4e487b7100000000000000000000000000000000000000000000000000000000600052604160045260246000fd5b620001da826200018f565b810181811067ffffffffffffffff82111715620001fc57620001fb620001a0565b5b80604052505050565b6000620002116200010c565b90506200021f8282620001cf565b919050565b600067ffffffffffffffff821115620002425762000241620001a0565b5b6200024d826200018f565b9050602081019050919050565b60005b838110156200027a5780820151818401526020810190506200025d565b60008484015250505050565b60006200029d620002978462000224565b62000205565b905082815260208101848484011115620002bc57620002bb6200018a565b5b620002c98482856200025a565b509392505050565b600082601f830112620002e957620002e862000185565b5b8151620002fb84826020860162000286565b91505092915050565b60008060008060008060c0878903121562000324576200032362000116565b5b60006200033489828a016200016e565b96505060206200034789828a016200016e565b955050604087015167ffffffffffffffff8111156200036b576200036a6200011b565b5b6200037989828a01620002d1565b945050606087015167ffffffffffffffff8111156200039d576200039c6200011b565b5b620003ab89828a01620002d1565b935050608087015167ffffffffffffffff811115620003cf57620003ce6200011b565b5b620003dd89828a01620002d1565b92505060a087015167ffffffffffffffff8111156200040157620004006200011b565b5b6200040f89828a01620002d1565b9150509295509295509295565b600081519050919050565b7f4e487b7100000000000000000000000000000000000000000000000000000000600052602260045260246000fd5b600060028204905060018216806200046f57607f821691505b60208210810362000485576200048462000427565b5b50919050565b60008190508160005260206000209050919050565b60006020601f8301049050919050565b60008160020a8302905092915050565b600060088302620004f27fffffffffffffffffffffffffffffffffffffffffffffffffffffffffffffffff82620004b0565b620004fe8683620004b0565b95508019841693508086168417925050509392505050565b6000819050919050565b6000819050919050565b60006200054b620005456200053f8462000516565b62000520565b62000516565b9050919050565b6000819050919050565b62000567836200052a565b6200057f620005768262000552565b848454620004c0565b825550505050565b600090565b6200059662000587565b620005a38184846200055c565b505050565b5b81811015620005cb57620005bf6000826200058c565b600181019050620005a9565b5050565b601f8211156200061a57620005e4816200048b565b620005ef84620004a0565b81016020851015620005ff578190505b620006176200060e85620004a0565b830182620005a8565b50505b505050565b60008160020a8304905092915050565b600062000642600019846008026200061f565b1980831691505092915050565b60006200065d83836200062f565b9150826002028217905092915050565b62000678826200041c565b67ffffffffffffffff811115620006945762000693620001a0565b5b620006a0825462000456565b620006ad828285620005cf565b600060209050601f831160018114620006e55760008415620006d0578287015190505b620006dc85826200064f565b8655506200074c565b601f198416620006f5866200048b565b60005b828110156200071f57848901518255600182019150602085019450602081019050620006f8565b868310156200073f57848901516200073b601f8916826200062f565b8355505b6001600288020188555050505b505050505050565b612ca180620007646000396000f3fe608060405234801561001057600080fd5b5060043610610128576000357c0100000000000000000000000000000000000000000000000000000000900480637b1d2d00116100bf578063c07f7d161161008e578063c07f7d16146102a8578063cf6431c6146102c4578063d57e0ad6146102e0578063f5e616a614610316578063fee7989e1461032057610128565b80637b1d2d001461021957806394fb3da714610235578063a3e3bf7d14610253578063adb8bfd11461027557610128565b8063542047a0116100fb578063542047a01461018f5780636212fa02146101ab578063645f29a8146101c957806368d91c85146101fd57610128565b806305f53b291461012d5780632e1083d01461014b57806344afd1341461016757806344f034ae14610185575b600080fd5b610135610353565b604051610142919061209c565b60405180910390f35b61016560048036038101906101609190612211565b610360565b005b61016f610416565b60405161017c919061209c565b60405180910390f35b61018d610423565b005b6101a960048036038101906101a491906122f0565b61051b565b005b6101b3610893565b6040516101c0919061209c565b60405180910390f35b6101e360048036038101906101de9190612419565b6108a0565b6040516101f49594939291906124e3565b60405180910390f35b6102176004803603810190610212919061254b565b610903565b005b610233600480360381019061022e91906125d6565b610ab0565b005b61023d610c52565b60405161024a919061209c565b60405180910390f35b61025b610c5f565b60405161026c959493929190612645565b60405180910390f35b61028f600480360381019061028a9190612419565b610ed3565b60405161029f94939291906126b4565b60405180910390f35b6102c260048036038101906102bd9190612707565b610f99565b005b6102de60048036038101906102d99190612211565b6111b5565b005b6102fa60048036038101906102f59190612419565b61126b565b60405161030d97969594939291906127c2565b60405180910390f35b61031e6112d7565b005b61033a60048036038101906103359190612419565b6113cf565b60405161034a949392919061284d565b60405180910390f35b6000600780549050905090565b60068160405161037091906128d5565b908152602001604051809103902060010160009054906101000a900473ffffffffffffffffffffffffffffffffffffffff1673ffffffffffffffffffffffffffffffffffffffff163373ffffffffffffffffffffffffffffffffffffffff16146103d957600080fd5b60016006826040516103eb91906128d5565b908152602001604051809103902060030160006101000a81548160ff02191690831515021790555050565b6000600980549050905090565b600073ffffffffffffffffffffffffffffffffffffffff16600a60003373ffffffffffffffffffffffffffffffffffffffff1673ffffffffffffffffffffffffffffffffffffffff16815260200190815260200160002060010160009054906101000a900473ffffffffffffffffffffffffffffffffffffffff1673ffffffffffffffffffffffffffffffffffffffff16036104be57600080fd5b6001600a60003373ffffffffffffffffffffffffffffffffffffffff1673ffffffffffffffffffffffffffffffffffffffff16815260200190815260200160002060040160006101000a81548160ff021916908315150217905550565b600160009054906101000a900473ffffffffffffffffffffffffffffffffffffffff1673ffffffffffffffffffffffffffffffffffffffff163373ffffffffffffffffffffffffffffffffffffffff161461057557600080fd5b8473ffffffffffffffffffffffffffffffffffffffff16600a60008773ffffffffffffffffffffffffffffffffffffffff1673ffffffffffffffffffffffffffffffffffffffff16815260200190815260200160002060010160009054906101000a900473ffffffffffffffffffffffffffffffffffffffff1673ffffffffffffffffffffffffffffffffffffffff1603610645576040517f08c379a000000000000000000000000000000000000000000000000000000000815260040161063c90612938565b60405180910390fd5b61064d611f65565b86816000018190525085816020019073ffffffffffffffffffffffffffffffffffffffff16908173ffffffffffffffffffffffffffffffffffffffff16815250508481604001819052506000816080019015159081151581525050818160c0018190525060011515831515036106ea57828160a0019015159081151581525050604051806020016040528060008152508160600181905250610705565b83816060018190525060008160a00190151590811515815250505b80600a60008873ffffffffffffffffffffffffffffffffffffffff1673ffffffffffffffffffffffffffffffffffffffff168152602001908152602001600020600082015181600001908161075a9190612b6a565b5060208201518160010160006101000a81548173ffffffffffffffffffffffffffffffffffffffff021916908373ffffffffffffffffffffffffffffffffffffffff16021790555060408201518160020190816107b79190612b6a565b5060608201518160030190816107cd9190612b6a565b5060808201518160040160006101000a81548160ff02191690831515021790555060a08201518160040160016101000a81548160ff02191690831515021790555060c08201518160050190816108239190612b6a565b50905050600b869080600181540180825580915050600190039060005260206000200160009091909190916101000a81548173ffffffffffffffffffffffffffffffffffffffff021916908373ffffffffffffffffffffffffffffffffffffffff16021790555050505050505050565b6000600d80549050905090565b6000606080600060606108f0600d87815481106108c0576108bf612c3c565b5b9060005260206000200160009054906101000a900473ffffffffffffffffffffffffffffffffffffffff16611494565b9450945094509450945091939590929450565b600160009054906101000a900473ffffffffffffffffffffffffffffffffffffffff1673ffffffffffffffffffffffffffffffffffffffff163373ffffffffffffffffffffffffffffffffffffffff161461095d57600080fd5b610965611fbc565b83816000018190525082816020019073ffffffffffffffffffffffffffffffffffffffff16908173ffffffffffffffffffffffffffffffffffffffff16815250508181604001819052506000816060019015159081151581525050806006856040516109d191906128d5565b908152602001604051809103902060008201518160000190816109f49190612b6a565b5060208201518160010160006101000a81548173ffffffffffffffffffffffffffffffffffffffff021916908373ffffffffffffffffffffffffffffffffffffffff1602179055506040820151816002019081610a519190612b6a565b5060608201518160030160006101000a81548160ff021916908315150217905550905050600784908060018154018082558091505060019003906000526020600020016000909190919091509081610aa99190612b6a565b5050505050565b600160009054906101000a900473ffffffffffffffffffffffffffffffffffffffff1673ffffffffffffffffffffffffffffffffffffffff163373ffffffffffffffffffffffffffffffffffffffff1614610b0a57600080fd5b610b12611ffc565b83816000018190525082816020019073ffffffffffffffffffffffffffffffffffffffff16908173ffffffffffffffffffffffffffffffffffffffff168152505081816040018181525050600081606001901515908115158152505080600885604051610b7f91906128d5565b90815260200160405180910390206000820151816000019081610ba29190612b6a565b5060208201518160010160006101000a81548173ffffffffffffffffffffffffffffffffffffffff021916908373ffffffffffffffffffffffffffffffffffffffff1602179055506040820151816002015560608201518160030160006101000a81548160ff021916908315150217905550905050600984908060018154018082558091505060019003906000526020600020016000909190919091509081610c4b9190612b6a565b5050505050565b6000600b80549050905090565b6000606080606080600160009054906101000a900473ffffffffffffffffffffffffffffffffffffffff166004600260036005838054610c9e90612987565b80601f0160208091040260200160405190810160405280929190818152602001828054610cca90612987565b8015610d175780601f10610cec57610100808354040283529160200191610d17565b820191906000526020600020905b815481529060010190602001808311610cfa57829003601f168201915b50505050509350828054610d2a90612987565b80601f0160208091040260200160405190810160405280929190818152602001828054610d5690612987565b8015610da35780601f10610d7857610100808354040283529160200191610da3565b820191906000526020600020905b815481529060010190602001808311610d8657829003601f168201915b50505050509250818054610db690612987565b80601f0160208091040260200160405190810160405280929190818152602001828054610de290612987565b8015610e2f5780601f10610e0457610100808354040283529160200191610e2f565b820191906000526020600020905b815481529060010190602001808311610e1257829003601f168201915b50505050509150808054610e4290612987565b80601f0160208091040260200160405190810160405280929190818152602001828054610e6e90612987565b8015610ebb5780601f10610e9057610100808354040283529160200191610ebb565b820191906000526020600020905b815481529060010190602001808311610e9e57829003601f168201915b50505050509050945094509450945094509091929394565b6060600060606000610f8a60078681548110610ef257610ef1612c3c565b5b906000526020600020018054610f0790612987565b80601f0160208091040260200160405190810160405280929190818152602001828054610f3390612987565b8015610f805780601f10610f5557610100808354040283529160200191610f80565b820191906000526020600020905b815481529060010190602001808311610f6357829003601f168201915b50505050506117cd565b93509350935093509193509193565b600160009054906101000a900473ffffffffffffffffffffffffffffffffffffffff1673ffffffffffffffffffffffffffffffffffffffff163373ffffffffffffffffffffffffffffffffffffffff1614610ff357600080fd5b610ffb61203c565b84816000019073ffffffffffffffffffffffffffffffffffffffff16908173ffffffffffffffffffffffffffffffffffffffff1681525050838160200181905250828160400181905250600081606001901515908115158152505081816080018190525080600c60008773ffffffffffffffffffffffffffffffffffffffff1673ffffffffffffffffffffffffffffffffffffffff16815260200190815260200160002060008201518160000160006101000a81548173ffffffffffffffffffffffffffffffffffffffff021916908373ffffffffffffffffffffffffffffffffffffffff16021790555060208201518160010190816110fb9190612b6a565b5060408201518160020190816111119190612b6a565b5060608201518160030160006101000a81548160ff02191690831515021790555060808201518160040190816111479190612b6a565b50905050600d859080600181540180825580915050600190039060005260206000200160009091909190916101000a81548173ffffffffffffffffffffffffffffffffffffffff021916908373ffffffffffffffffffffffffffffffffffffffff1602179055505050505050565b6008816040516111c591906128d5565b908152602001604051809103902060010160009054906101000a900473ffffffffffffffffffffffffffffffffffffffff1673ffffffffffffffffffffffffffffffffffffffff163373ffffffffffffffffffffffffffffffffffffffff161461122e57600080fd5b600160088260405161124091906128d5565b908152602001604051809103902060030160006101000a81548160ff02191690831515021790555050565b6060600060608060008060606112be600b898154811061128e5761128d612c3c565b5b9060005260206000200160009054906101000a900473ffffffffffffffffffffffffffffffffffffffff166119af565b9650965096509650965096509650919395979092949650565b600073ffffffffffffffffffffffffffffffffffffffff16600c60003373ffffffffffffffffffffffffffffffffffffffff1673ffffffffffffffffffffffffffffffffffffffff16815260200190815260200160002060000160009054906101000a900473ffffffffffffffffffffffffffffffffffffffff1673ffffffffffffffffffffffffffffffffffffffff160361137257600080fd5b6001600c60003373ffffffffffffffffffffffffffffffffffffffff1673ffffffffffffffffffffffffffffffffffffffff16815260200190815260200160002060030160006101000a81548160ff021916908315150217905550565b60606000806000611485600986815481106113ed576113ec612c3c565b5b90600052602060002001805461140290612987565b80601f016020809104026020016040519081016040528092919081815260200182805461142e90612987565b801561147b5780601f106114505761010080835404028352916020019161147b565b820191906000526020600020905b81548152906001019060200180831161145e57829003601f168201915b5050505050611e0f565b93509350935093509193509193565b600060608060006060600c60008773ffffffffffffffffffffffffffffffffffffffff1673ffffffffffffffffffffffffffffffffffffffff16815260200190815260200160002060000160009054906101000a900473ffffffffffffffffffffffffffffffffffffffff16600c60008873ffffffffffffffffffffffffffffffffffffffff1673ffffffffffffffffffffffffffffffffffffffff168152602001908152602001600020600101600c60008973ffffffffffffffffffffffffffffffffffffffff1673ffffffffffffffffffffffffffffffffffffffff168152602001908152602001600020600201600c60008a73ffffffffffffffffffffffffffffffffffffffff1673ffffffffffffffffffffffffffffffffffffffff16815260200190815260200160002060030160009054906101000a900460ff16600c60008b73ffffffffffffffffffffffffffffffffffffffff1673ffffffffffffffffffffffffffffffffffffffff16815260200190815260200160002060040183805461162290612987565b80601f016020809104026020016040519081016040528092919081815260200182805461164e90612987565b801561169b5780601f106116705761010080835404028352916020019161169b565b820191906000526020600020905b81548152906001019060200180831161167e57829003601f168201915b505050505093508280546116ae90612987565b80601f01602080910402602001604051908101604052809291908181526020018280546116da90612987565b80156117275780601f106116fc57610100808354040283529160200191611727565b820191906000526020600020905b81548152906001019060200180831161170a57829003601f168201915b5050505050925080805461173a90612987565b80601f016020809104026020016040519081016040528092919081815260200182805461176690612987565b80156117b35780601f10611788576101008083540402835291602001916117b3565b820191906000526020600020905b81548152906001019060200180831161179657829003601f168201915b505050505090509450945094509450945091939590929450565b60606000606060006006856040516117e591906128d5565b908152602001604051809103902060000160068660405161180691906128d5565b908152602001604051809103902060010160009054906101000a900473ffffffffffffffffffffffffffffffffffffffff1660068760405161184891906128d5565b908152602001604051809103902060020160068860405161186991906128d5565b908152602001604051809103902060030160009054906101000a900460ff1683805461189490612987565b80601f01602080910402602001604051908101604052809291908181526020018280546118c090612987565b801561190d5780601f106118e25761010080835404028352916020019161190d565b820191906000526020600020905b8154815290600101906020018083116118f057829003601f168201915b5050505050935081805461192090612987565b80601f016020809104026020016040519081016040528092919081815260200182805461194c90612987565b80156119995780601f1061196e57610100808354040283529160200191611999565b820191906000526020600020905b81548152906001019060200180831161197c57829003601f168201915b5050505050915093509350935093509193509193565b606060006060806000806060600a60008973ffffffffffffffffffffffffffffffffffffffff1673ffffffffffffffffffffffffffffffffffffffff168152602001908152602001600020600001600a60008a73ffffffffffffffffffffffffffffffffffffffff1673ffffffffffffffffffffffffffffffffffffffff16815260200190815260200160002060010160009054906101000a900473ffffffffffffffffffffffffffffffffffffffff16600a60008b73ffffffffffffffffffffffffffffffffffffffff1673ffffffffffffffffffffffffffffffffffffffff168152602001908152602001600020600201600a60008c73ffffffffffffffffffffffffffffffffffffffff1673ffffffffffffffffffffffffffffffffffffffff168152602001908152602001600020600301600a60008d73ffffffffffffffffffffffffffffffffffffffff1673ffffffffffffffffffffffffffffffffffffffff16815260200190815260200160002060040160019054906101000a900460ff16600a60008e73ffffffffffffffffffffffffffffffffffffffff1673ffffffffffffffffffffffffffffffffffffffff16815260200190815260200160002060040160009054906101000a900460ff16600a60008f73ffffffffffffffffffffffffffffffffffffffff1673ffffffffffffffffffffffffffffffffffffffff168152602001908152602001600020600501868054611bd290612987565b80601f0160208091040260200160405190810160405280929190818152602001828054611bfe90612987565b8015611c4b5780601f10611c2057610100808354040283529160200191611c4b565b820191906000526020600020905b815481529060010190602001808311611c2e57829003601f168201915b50505050509650848054611c5e90612987565b80601f0160208091040260200160405190810160405280929190818152602001828054611c8a90612987565b8015611cd75780601f10611cac57610100808354040283529160200191611cd7565b820191906000526020600020905b815481529060010190602001808311611cba57829003601f168201915b50505050509450838054611cea90612987565b80601f0160208091040260200160405190810160405280929190818152602001828054611d1690612987565b8015611d635780601f10611d3857610100808354040283529160200191611d63565b820191906000526020600020905b815481529060010190602001808311611d4657829003601f168201915b50505050509350808054611d7690612987565b80601f0160208091040260200160405190810160405280929190818152602001828054611da290612987565b8015611def5780601f10611dc457610100808354040283529160200191611def565b820191906000526020600020905b815481529060010190602001808311611dd257829003601f168201915b505050505090509650965096509650965096509650919395979092949650565b60606000806000600885604051611e2691906128d5565b9081526020016040518091039020600001600886604051611e4791906128d5565b908152602001604051809103902060010160009054906101000a900473ffffffffffffffffffffffffffffffffffffffff16600887604051611e8991906128d5565b908152602001604051809103902060020154600888604051611eab91906128d5565b908152602001604051809103902060030160009054906101000a900460ff16838054611ed690612987565b80601f0160208091040260200160405190810160405280929190818152602001828054611f0290612987565b8015611f4f5780601f10611f2457610100808354040283529160200191611f4f565b820191906000526020600020905b815481529060010190602001808311611f3257829003601f168201915b5050505050935093509350935093509193509193565b6040518060e0016040528060608152602001600073ffffffffffffffffffffffffffffffffffffffff1681526020016060815260200160608152602001600015158152602001600015158152602001606081525090565b604051806080016040528060608152602001600073ffffffffffffffffffffffffffffffffffffffff168152602001606081526020016000151581525090565b604051806080016040528060608152602001600073ffffffffffffffffffffffffffffffffffffffff168152602001600081526020016000151581525090565b6040518060a00160405280600073ffffffffffffffffffffffffffffffffffffffff1681526020016060815260200160608152602001600015158152602001606081525090565b6000819050919050565b61209681612083565b82525050565b60006020820190506120b1600083018461208d565b92915050565b6000604051905090565b600080fd5b600080fd5b600080fd5b600080fd5b6000601f19601f8301169050919050565b7f4e487b7100000000000000000000000000000000000000000000000000000000600052604160045260246000fd5b61211e826120d5565b810181811067ffffffffffffffff8211171561213d5761213c6120e6565b5b80604052505050565b60006121506120b7565b905061215c8282612115565b919050565b600067ffffffffffffffff82111561217c5761217b6120e6565b5b612185826120d5565b9050602081019050919050565b82818337600083830152505050565b60006121b46121af84612161565b612146565b9050828152602081018484840111156121d0576121cf6120d0565b5b6121db848285612192565b509392505050565b600082601f8301126121f8576121f76120cb565b5b81356122088482602086016121a1565b91505092915050565b600060208284031215612227576122266120c1565b5b600082013567ffffffffffffffff811115612245576122446120c6565b5b612251848285016121e3565b91505092915050565b600073ffffffffffffffffffffffffffffffffffffffff82169050919050565b60006122858261225a565b9050919050565b6122958161227a565b81146122a057600080fd5b50565b6000813590506122b28161228c565b92915050565b60008115159050919050565b6122cd816122b8565b81146122d857600080fd5b50565b6000813590506122ea816122c4565b92915050565b60008060008060008060c0878903121561230d5761230c6120c1565b5b600087013567ffffffffffffffff81111561232b5761232a6120c6565b5b61233789828a016121e3565b965050602061234889828a016122a3565b955050604087013567ffffffffffffffff811115612369576123686120c6565b5b61237589828a016121e3565b945050606087013567ffffffffffffffff811115612396576123956120c6565b5b6123a289828a016121e3565b93505060806123b389828a016122db565b92505060a087013567ffffffffffffffff8111156123d4576123d36120c6565b5b6123e089828a016121e3565b9150509295509295509295565b6123f681612083565b811461240157600080fd5b50565b600081359050612413816123ed565b92915050565b60006020828403121561242f5761242e6120c1565b5b600061243d84828501612404565b91505092915050565b61244f8161227a565b82525050565b600081519050919050565b600082825260208201905092915050565b60005b8381101561248f578082015181840152602081019050612474565b60008484015250505050565b60006124a682612455565b6124b08185612460565b93506124c0818560208601612471565b6124c9816120d5565b840191505092915050565b6124dd816122b8565b82525050565b600060a0820190506124f86000830188612446565b818103602083015261250a818761249b565b9050818103604083015261251e818661249b565b905061252d60608301856124d4565b818103608083015261253f818461249b565b90509695505050505050565b600080600060608486031215612564576125636120c1565b5b600084013567ffffffffffffffff811115612582576125816120c6565b5b61258e868287016121e3565b935050602061259f868287016122a3565b925050604084013567ffffffffffffffff8111156125c0576125bf6120c6565b5b6125cc868287016121e3565b9150509250925092565b6000806000606084860312156125ef576125ee6120c1565b5b600084013567ffffffffffffffff81111561260d5761260c6120c6565b5b612619868287016121e3565b935050602061262a868287016122a3565b925050604061263b86828701612404565b9150509250925092565b600060a08201905061265a6000830188612446565b818103602083015261266c818761249b565b90508181036040830152612680818661249b565b90508181036060830152612694818561249b565b905081810360808301526126a8818461249b565b90509695505050505050565b600060808201905081810360008301526126ce818761249b565b90506126dd6020830186612446565b81810360408301526126ef818561249b565b90506126fe60608301846124d4565b95945050505050565b60008060008060808587031215612721576127206120c1565b5b600061272f878288016122a3565b945050602085013567ffffffffffffffff8111156127505761274f6120c6565b5b61275c878288016121e3565b935050604085013567ffffffffffffffff81111561277d5761277c6120c6565b5b612789878288016121e3565b925050606085013567ffffffffffffffff8111156127aa576127a96120c6565b5b6127b6878288016121e3565b91505092959194509250565b600060e08201905081810360008301526127dc818a61249b565b90506127eb6020830189612446565b81810360408301526127fd818861249b565b90508181036060830152612811818761249b565b905061282060808301866124d4565b61282d60a08301856124d4565b81810360c083015261283f818461249b565b905098975050505050505050565b60006080820190508181036000830152612867818761249b565b90506128766020830186612446565b612883604083018561208d565b61289060608301846124d4565b95945050505050565b600081905092915050565b60006128af82612455565b6128b98185612899565b93506128c9818560208601612471565b80840191505092915050565b60006128e182846128a4565b915081905092915050565b7f416c726561647920457869737473000000000000000000000000000000000000600082015250565b6000612922600e83612460565b915061292d826128ec565b602082019050919050565b6000602082019050818103600083015261295181612915565b9050919050565b7f4e487b7100000000000000000000000000000000000000000000000000000000600052602260045260246000fd5b6000600282049050600182168061299f57607f821691505b6020821081036129b2576129b1612958565b5b50919050565b60008190508160005260206000209050919050565b60006020601f8301049050919050565b60008160020a8302905092915050565b600060088302612a1d7fffffffffffffffffffffffffffffffffffffffffffffffffffffffffffffffff826129dd565b612a2786836129dd565b95508019841693508086168417925050509392505050565b6000819050919050565b6000612a64612a5f612a5a84612083565b612a3f565b612083565b9050919050565b6000819050919050565b612a7e83612a49565b612a92612a8a82612a6b565b8484546129ed565b825550505050565b600090565b612aa7612a9a565b612ab2818484612a75565b505050565b5b81811015612ad657612acb600082612a9f565b600181019050612ab8565b5050565b601f821115612b1b57612aec816129b8565b612af5846129cd565b81016020851015612b04578190505b612b18612b10856129cd565b830182612ab7565b50505b505050565b60008160020a8304905092915050565b6000612b4160001984600802612b20565b1980831691505092915050565b6000612b5a8383612b30565b9150826002028217905092915050565b612b7382612455565b67ffffffffffffffff811115612b8c57612b8b6120e6565b5b612b968254612987565b612ba1828285612ada565b600060209050601f831160018114612bd45760008415612bc2578287015190505b612bcc8582612b4e565b865550612c34565b601f198416612be2866129b8565b60005b82811015612c0a57848901518255600182019150602085019450602081019050612be5565b86831015612c275784890151612c23601f891682612b30565b8355505b6001600288020188555050505b505050505050565b7f4e487b7100000000000000000000000000000000000000000000000000000000600052603260045260246000fdfea26469706673582212200c0cef832c65575de1d058dc9884c10bf91ef5a130269e345ee9d726f3a6130564736f6c6343000812003360806040523480156200001157600080fd5b5060405162000ef238038062000ef2833981810160405281019062000037919062000304565b856000806101000a81548173ffffffffffffffffffffffffffffffffffffffff021916908373ffffffffffffffffffffffffffffffffffffffff16021790555083600190816200008891906200066d565b5084600260006101000a81548173ffffffffffffffffffffffffffffffffffffffff021916908373ffffffffffffffffffffffffffffffffffffffff1602179055508260039081620000db91906200066d565b508160049081620000ed91906200066d565b508060059081620000ff91906200066d565b5050505050505062000754565b6000604051905090565b600080fd5b600080fd5b600073ffffffffffffffffffffffffffffffffffffffff82169050919050565b60006200014d8262000120565b9050919050565b6200015f8162000140565b81146200016b57600080fd5b50565b6000815190506200017f8162000154565b92915050565b600080fd5b600080fd5b6000601f19601f8301169050919050565b7f4e487b7100000000000000000000000000000000000000000000000000000000600052604160045260246000fd5b620001da826200018f565b810181811067ffffffffffffffff82111715620001fc57620001fb620001a0565b5b80604052505050565b6000620002116200010c565b90506200021f8282620001cf565b919050565b600067ffffffffffffffff821115620002425762000241620001a0565b5b6200024d826200018f565b9050602081019050919050565b60005b838110156200027a5780820151818401526020810190506200025d565b60008484015250505050565b60006200029d620002978462000224565b62000205565b905082815260208101848484011115620002bc57620002bb6200018a565b5b620002c98482856200025a565b509392505050565b600082601f830112620002e957620002e862000185565b5b8151620002fb84826020860162000286565b91505092915050565b60008060008060008060c0878903121562000324576200032362000116565b5b60006200033489828a016200016e565b96505060206200034789828a016200016e565b955050604087015167ffffffffffffffff8111156200036b576200036a6200011b565b5b6200037989828a01620002d1565b945050606087015167ffffffffffffffff8111156200039d576200039c6200011b565b5b620003ab89828a01620002d1565b935050608087015167ffffffffffffffff811115620003cf57620003ce6200011b565b5b620003dd89828a01620002d1565b92505060a087015167ffffffffffffffff8111156200040157620004006200011b565b5b6200040f89828a01620002d1565b9150509295509295509295565b600081519050919050565b7f4e487b7100000000000000000000000000000000000000000000000000000000600052602260045260246000fd5b600060028204905060018216806200046f57607f821691505b60208210810362000485576200048462000427565b5b50919050565b60008190508160005260206000209050919050565b60006020601f8301049050919050565b60008160020a8302905092915050565b600060088302620004f27fffffffffffffffffffffffffffffffffffffffffffffffffffffffffffffffff82620004b0565b620004fe8683620004b0565b95508019841693508086168417925050509392505050565b6000819050919050565b6000819050919050565b60006200054b620005456200053f8462000516565b62000520565b62000516565b9050919050565b6000819050919050565b62000567836200052a565b6200057f620005768262000552565b848454620004c0565b825550505050565b600090565b6200059662000587565b620005a38184846200055c565b505050565b5b81811015620005cb57620005bf6000826200058c565b600181019050620005a9565b5050565b601f8211156200061a57620005e4816200048b565b620005ef84620004a0565b81016020851015620005ff578190505b620006176200060e85620004a0565b830182620005a8565b50505b505050565b60008160020a8304905092915050565b600062000642600019846008026200061f565b1980831691505092915050565b60006200065d83836200062f565b9150826002028217905092915050565b62000678826200041c565b67ffffffffffffffff811115620006945762000693620001a0565b5b620006a0825462000456565b620006ad828285620005cf565b600060209050601f831160018114620006e55760008415620006d0578287015190505b620006dc85826200064f565b8655506200074c565b601f198416620006f5866200048b565b60005b828110156200071f57848901518255600182019150602085019450602081019050620006f8565b868310156200073f57848901516200073b601f8916826200062f565b8355505b6001600288020188555050505b505050505050565b61078e80620007646000396000f3fe608060405234801561001057600080fd5b5060043610610068576000357c010000000000000000000000000000000000000000000000000000000090048062ac80951461006d57806352b9b9731461008957806359420e48146100a7578063e894d0a2146100d7575b600080fd5b610087600480360381019061008291906104e6565b6100f9565b005b6100916101b9565b60405161009e919061052c565b60405180910390f35b6100c160048036038101906100bc9190610573565b6101c6565b6040516100ce91906105af565b60405180910390f35b6100df61020e565b6040516100f095949392919061065a565b60405180910390f35b600260009054906101000a900473ffffffffffffffffffffffffffffffffffffffff1673ffffffffffffffffffffffffffffffffffffffff163373ffffffffffffffffffffffffffffffffffffffff161461015357600080fd5b6006819080600181540180825580915050600190039060005260206000200160009091909190916101000a81548173ffffffffffffffffffffffffffffffffffffffff021916908373ffffffffffffffffffffffffffffffffffffffff16021790555050565b6000600680549050905090565b6000600682815481106101dc576101db6106c9565b5b9060005260206000200160009054906101000a900473ffffffffffffffffffffffffffffffffffffffff169050919050565b6060600060608060606001600260009054906101000a900473ffffffffffffffffffffffffffffffffffffffff1660036004600584805461024e90610727565b80601f016020809104026020016040519081016040528092919081815260200182805461027a90610727565b80156102c75780601f1061029c576101008083540402835291602001916102c7565b820191906000526020600020905b8154815290600101906020018083116102aa57829003601f168201915b505050505094508280546102da90610727565b80601f016020809104026020016040519081016040528092919081815260200182805461030690610727565b80156103535780601f1061032857610100808354040283529160200191610353565b820191906000526020600020905b81548152906001019060200180831161033657829003601f168201915b5050505050925081805461036690610727565b80601f016020809104026020016040519081016040528092919081815260200182805461039290610727565b80156103df5780601f106103b4576101008083540402835291602001916103df565b820191906000526020600020905b8154815290600101906020018083116103c257829003601f168201915b505050505091508080546103f290610727565b80601f016020809104026020016040519081016040528092919081815260200182805461041e90610727565b801561046b5780601f106104405761010080835404028352916020019161046b565b820191906000526020600020905b81548152906001019060200180831161044e57829003601f168201915b50505050509050945094509450945094509091929394565b600080fd5b600073ffffffffffffffffffffffffffffffffffffffff82169050919050565b60006104b382610488565b9050919050565b6104c3816104a8565b81146104ce57600080fd5b50565b6000813590506104e0816104ba565b92915050565b6000602082840312156104fc576104fb610483565b5b600061050a848285016104d1565b91505092915050565b6000819050919050565b61052681610513565b82525050565b6000602082019050610541600083018461051d565b92915050565b61055081610513565b811461055b57600080fd5b50565b60008135905061056d81610547565b92915050565b60006020828403121561058957610588610483565b5b60006105978482850161055e565b91505092915050565b6105a9816104a8565b82525050565b60006020820190506105c460008301846105a0565b92915050565b600081519050919050565b600082825260208201905092915050565b60005b838110156106045780820151818401526020810190506105e9565b60008484015250505050565b6000601f19601f8301169050919050565b600061062c826105ca565b61063681856105d5565b93506106468185602086016105e6565b61064f81610610565b840191505092915050565b600060a08201905081810360008301526106748188610621565b905061068360208301876105a0565b81810360408301526106958186610621565b905081810360608301526106a98185610621565b905081810360808301526106bd8184610621565b90509695505050505050565b7f4e487b7100000000000000000000000000000000000000000000000000000000600052603260045260246000fd5b7f4e487b7100000000000000000000000000000000000000000000000000000000600052602260045260246000fd5b6000600282049050600182168061073f57607f821691505b602082108103610752576107516106f8565b5b5091905056fea2646970667358221220a9ddf2193650ab9d26a9549bf7db3e5f332e52191ef0fbb39dd71942864b139764736f6c63430008120033a26469706673582212201cb4594b3d1d55932070adf1aaa4e06072e44dc0f7e4c1b800325ed02480141d64736f6c63430008120033",
  "immutableReferences": {},
  "source": "// SPDX-License-Identifier: MIT\npragma solidity >=0.4.22 <0.9.0;\nimport \"./Organization.sol\";\nimport \"./Employee.sol\";\n\ncontract Admin {\n    address public owner;\n\n    mapping(address => address) registeredEmployeesmap;\n    mapping(address => address) registeredOrganizationmap;\n    address[] registeredEmployees;\n    address[] registeredOrganization;\n\n    // for search by name\n    mapping(string => address[]) empsmap;\n    mapping(string => address) orgsmap;\n    string[] emps;\n    string[] orgs;\n\n    constructor() {\n        owner = msg.sender;\n    }\n\n    modifier onlyOwner() {\n        require(msg.sender == owner);\n        _;\n    }\n\n    function createEmployee(\n        address _eth_address,\n        string memory _name,\n        string memory _location,\n        string memory _email,\n        string memory _description\n    ) public {\n\n        Employee emp = new Employee(\n            owner,\n            _eth_address,\n            _name,\n            _description,\n            _location,\n            _email\n        );\n        registeredEmployeesmap[_eth_address] = address(emp);\n        registeredEmployees.push(_eth_address);\n        // adding to search array\n        if (empsmap[_name].length == 0) {\n            emps.push(_name);\n        }\n        empsmap[_name].push(_eth_address);\n    }\n\n    function createOrganization(\n        address _eth_address,\n        string memory _name,\n        string memory _location,\n        string memory _email,\n        string memory _description\n    ) public onlyOwner {\n        require(registeredOrganizationmap[_eth_address] == address(0x0), \"Already registered\");\n        Organization org = new Organization(\n            owner,\n            _eth_address,\n            _name,\n            _description,\n            _location,\n            _email\n        );\n        registeredOrganizationmap[_eth_address] = address(org);\n        registeredOrganization.push(_eth_address);\n        // adding to search array\n        if (orgsmap[_name] == address(0x0)) {\n            orgs.push(_name);\n        }\n        orgsmap[_name] = _eth_address;\n    }\n\n    function isEmployee(address _employee_address) public view returns (bool) {\n        return registeredEmployeesmap[_employee_address] != address(0x0);\n    }\n\n    function isOrganization(\n        address _organization_address\n    ) public view returns (bool) {\n        return registeredOrganizationmap[_organization_address] != address(0x0);\n    }\n\n    function employeeCount() public view returns (uint256) {\n        return registeredEmployees.length;\n    }\n\n    function getEmployeeContractByAddress(\n        address _employee\n    ) public view returns (address) {\n        return registeredEmployeesmap[_employee];\n    }\n\n    function getEmployeeContractByIndex(\n        uint256 index\n    ) public view returns (address) {\n        return getEmployeeContractByAddress(registeredEmployees[index]);\n    }\n\n    function OrganizationCount() public view returns (uint256) {\n        return registeredOrganization.length;\n    }\n\n    function getOrganizationContractByAddress(\n        address _organization\n    ) public view returns (address) {\n        return registeredOrganizationmap[_organization];\n    }\n\n    function getOrganizationContractByIndex(\n        uint256 index\n    ) public view returns (address) {\n        return getOrganizationContractByAddress(registeredOrganization[index]);\n    }\n\n    // search emps or orgs by name\n\n    function getOrganizationByName(\n        string memory _name\n    ) public view returns (address) {\n        return orgsmap[_name];\n    }\n\n    function getEmployeesByName(\n        string memory _name,\n        uint256 _emp_index\n    ) public view returns (address) {\n        return empsmap[_name][_emp_index];\n    }\n\n    function getTotalEmployeeInEmpsByName(string memory _name)public\n    view\n    returns (uint256)\n  {\n    return empsmap[_name].length;\n  }\n\n    function getEmployeeNameByIndex(\n        uint256 _emp_index\n    ) public view returns (string memory) {\n        return emps[_emp_index];\n    }\n\n    function getOrganizationNameByIndex(\n        uint256 _org_index\n    ) public view returns (string memory) {\n        return orgs[_org_index];\n    }\n}\n",
  "sourcePath": "E:\\skillset\\src\\contracts\\Admin.sol",
  "compiler": {
    "name": "solc",
    "version": "0.8.18+commit.87f61d96.Emscripten.clang"
  },
  "schemaVersion": "3.4.12",
  "updatedAt": "2023-03-09T03:57:40.940Z",
  "networkType": "ethereum",
  "devdoc": {
    "kind": "dev",
    "methods": {},
    "version": 1
  },
  "userdoc": {
    "kind": "user",
    "methods": {},
    "version": 1
  }
}