{
  "contractName": "Admin",
  "abi": [
    {
      "inputs": [],
      "stateMutability": "nonpayable",
      "type": "constructor"
    },
    {
      "inputs": [],
      "name": "owner",
      "outputs": [
        {
          "internalType": "address",
          "name": "",
          "type": "address"
        }
      ],
      "stateMutability": "view",
      "type": "function",
      "constant": true
    },
    {
      "inputs": [
        {
          "internalType": "address",
          "name": "_eth_address",
          "type": "address"
        },
        {
          "internalType": "string",
          "name": "_name",
          "type": "string"
        },
        {
          "internalType": "string",
          "name": "_location",
          "type": "string"
        },
        {
          "internalType": "string",
          "name": "_description",
          "type": "string"
        }
      ],
      "name": "createEmployee",
      "outputs": [],
      "stateMutability": "nonpayable",
      "type": "function"
    },
    {
      "inputs": [
        {
          "internalType": "address",
          "name": "_eth_address",
          "type": "address"
        },
        {
          "internalType": "string",
          "name": "_name",
          "type": "string"
        },
        {
          "internalType": "string",
          "name": "_location",
          "type": "string"
        },
        {
          "internalType": "string",
          "name": "_description",
          "type": "string"
        }
      ],
      "name": "createOrganization",
      "outputs": [],
      "stateMutability": "nonpayable",
      "type": "function"
    },
    {
      "inputs": [
        {
          "internalType": "address",
          "name": "_employee_address",
          "type": "address"
        }
      ],
      "name": "isEmployee",
      "outputs": [
        {
          "internalType": "bool",
          "name": "",
          "type": "bool"
        }
      ],
      "stateMutability": "view",
      "type": "function",
      "constant": true
    },
    {
      "inputs": [
        {
          "internalType": "address",
          "name": "_organization_address",
          "type": "address"
        }
      ],
      "name": "isOrganization",
      "outputs": [
        {
          "internalType": "bool",
          "name": "",
          "type": "bool"
        }
      ],
      "stateMutability": "view",
      "type": "function",
      "constant": true
    },
    {
      "inputs": [],
      "name": "employeeCount",
      "outputs": [
        {
          "internalType": "uint256",
          "name": "",
          "type": "uint256"
        }
      ],
      "stateMutability": "view",
      "type": "function",
      "constant": true
    },
    {
      "inputs": [
        {
          "internalType": "address",
          "name": "_employee",
          "type": "address"
        }
      ],
      "name": "getEmployeeContractByAddress",
      "outputs": [
        {
          "internalType": "address",
          "name": "",
          "type": "address"
        }
      ],
      "stateMutability": "view",
      "type": "function",
      "constant": true
    },
    {
      "inputs": [
        {
          "internalType": "uint256",
          "name": "index",
          "type": "uint256"
        }
      ],
      "name": "getEmployeeContractByIndex",
      "outputs": [
        {
          "internalType": "address",
          "name": "",
          "type": "address"
        }
      ],
      "stateMutability": "view",
      "type": "function",
      "constant": true
    },
    {
      "inputs": [],
      "name": "OrganizationCount",
      "outputs": [
        {
          "internalType": "uint256",
          "name": "",
          "type": "uint256"
        }
      ],
      "stateMutability": "view",
      "type": "function",
      "constant": true
    },
    {
      "inputs": [
        {
          "internalType": "address",
          "name": "_organization",
          "type": "address"
        }
      ],
      "name": "getOrganizationContractByAddress",
      "outputs": [
        {
          "internalType": "address",
          "name": "",
          "type": "address"
        }
      ],
      "stateMutability": "view",
      "type": "function",
      "constant": true
    },
    {
      "inputs": [
        {
          "internalType": "uint256",
          "name": "index",
          "type": "uint256"
        }
      ],
      "name": "getOrganizationContractByIndex",
      "outputs": [
        {
          "internalType": "address",
          "name": "",
          "type": "address"
        }
      ],
      "stateMutability": "view",
      "type": "function",
      "constant": true
    }
  ],
  "bytecode": "0x608060405234801561001057600080fd5b50336000806101000a81548173ffffffffffffffffffffffffffffffffffffffff021916908373ffffffffffffffffffffffffffffffffffffffff1602179055506149ec806100606000396000f3fe60806040523480156200001157600080fd5b5060043610620000d5576000357c0100000000000000000000000000000000000000000000000000000000900480639047bf5811620000985780639047bf5814620001be578063a8d4d05a14620001e0578063b1ce8eab1462000200578063c684ba281462000236578063de324158146200026c578063ea66543f146200028e57620000d5565b806315d809f914620000da578063323ddfc414620001105780633f9803d61462000146578063447a81fe14620001665780638da5cb5b146200019c575b600080fd5b620000f86004803603810190620000f291906200090e565b620002c4565b60405162000107919062000985565b60405180910390f35b6200012e6004803603810190620001289190620009d3565b62000319565b6040516200013d919062000985565b60405180910390f35b6200016460048036038101906200015e919062000b67565b62000382565b005b6200018460048036038101906200017e91906200090e565b62000529565b60405162000193919062000985565b60405180910390f35b620001a66200057e565b604051620001b5919062000985565b60405180910390f35b620001c8620005a2565b604051620001d7919062000c47565b60405180910390f35b620001fe6004803603810190620001f8919062000b67565b620005af565b005b6200021e6004803603810190620002189190620009d3565b620006fd565b6040516200022d919062000c81565b60405180910390f35b6200025460048036038101906200024e9190620009d3565b62000795565b60405162000263919062000985565b60405180910390f35b62000276620007fe565b60405162000285919062000c47565b60405180910390f35b620002ac6004803603810190620002a69190620009d3565b6200080b565b604051620002bb919062000c81565b60405180910390f35b60006200031260048381548110620002e157620002e062000c9e565b5b9060005260206000200160009054906101000a900473ffffffffffffffffffffffffffffffffffffffff1662000795565b9050919050565b6000600160008373ffffffffffffffffffffffffffffffffffffffff1673ffffffffffffffffffffffffffffffffffffffff16815260200190815260200160002060009054906101000a900473ffffffffffffffffffffffffffffffffffffffff169050919050565b60008054906101000a900473ffffffffffffffffffffffffffffffffffffffff1673ffffffffffffffffffffffffffffffffffffffff163373ffffffffffffffffffffffffffffffffffffffff1614620003db57600080fd5b60008060009054906101000a900473ffffffffffffffffffffffffffffffffffffffff16858584866040516200041190620008a3565b6200042195949392919062000d56565b604051809103906000f0801580156200043e573d6000803e3d6000fd5b50905080600260008773ffffffffffffffffffffffffffffffffffffffff1673ffffffffffffffffffffffffffffffffffffffff16815260200190815260200160002060006101000a81548173ffffffffffffffffffffffffffffffffffffffff021916908373ffffffffffffffffffffffffffffffffffffffff1602179055506004859080600181540180825580915050600190039060005260206000200160009091909190916101000a81548173ffffffffffffffffffffffffffffffffffffffff021916908373ffffffffffffffffffffffffffffffffffffffff1602179055505050505050565b6000620005776003838154811062000546576200054562000c9e565b5b9060005260206000200160009054906101000a900473ffffffffffffffffffffffffffffffffffffffff1662000319565b9050919050565b60008054906101000a900473ffffffffffffffffffffffffffffffffffffffff1681565b6000600380549050905090565b60008060009054906101000a900473ffffffffffffffffffffffffffffffffffffffff1685858486604051620005e590620008b1565b620005f595949392919062000d56565b604051809103906000f08015801562000612573d6000803e3d6000fd5b50905080600160008773ffffffffffffffffffffffffffffffffffffffff1673ffffffffffffffffffffffffffffffffffffffff16815260200190815260200160002060006101000a81548173ffffffffffffffffffffffffffffffffffffffff021916908373ffffffffffffffffffffffffffffffffffffffff1602179055506003859080600181540180825580915050600190039060005260206000200160009091909190916101000a81548173ffffffffffffffffffffffffffffffffffffffff021916908373ffffffffffffffffffffffffffffffffffffffff1602179055505050505050565b60008073ffffffffffffffffffffffffffffffffffffffff16600260008473ffffffffffffffffffffffffffffffffffffffff1673ffffffffffffffffffffffffffffffffffffffff16815260200190815260200160002060009054906101000a900473ffffffffffffffffffffffffffffffffffffffff1673ffffffffffffffffffffffffffffffffffffffff1614159050919050565b6000600260008373ffffffffffffffffffffffffffffffffffffffff1673ffffffffffffffffffffffffffffffffffffffff16815260200190815260200160002060009054906101000a900473ffffffffffffffffffffffffffffffffffffffff169050919050565b6000600480549050905090565b60008073ffffffffffffffffffffffffffffffffffffffff16600160008473ffffffffffffffffffffffffffffffffffffffff1673ffffffffffffffffffffffffffffffffffffffff16815260200190815260200160002060009054906101000a900473ffffffffffffffffffffffffffffffffffffffff1673ffffffffffffffffffffffffffffffffffffffff1614159050919050565b610b2f8062000dc983390190565b6130bf80620018f883390190565b6000604051905090565b600080fd5b600080fd5b6000819050919050565b620008e881620008d3565b8114620008f457600080fd5b50565b6000813590506200090881620008dd565b92915050565b600060208284031215620009275762000926620008c9565b5b60006200093784828501620008f7565b91505092915050565b600073ffffffffffffffffffffffffffffffffffffffff82169050919050565b60006200096d8262000940565b9050919050565b6200097f8162000960565b82525050565b60006020820190506200099c600083018462000974565b92915050565b620009ad8162000960565b8114620009b957600080fd5b50565b600081359050620009cd81620009a2565b92915050565b600060208284031215620009ec57620009eb620008c9565b5b6000620009fc84828501620009bc565b91505092915050565b600080fd5b600080fd5b6000601f19601f8301169050919050565b7f4e487b7100000000000000000000000000000000000000000000000000000000600052604160045260246000fd5b62000a5a8262000a0f565b810181811067ffffffffffffffff8211171562000a7c5762000a7b62000a20565b5b80604052505050565b600062000a91620008bf565b905062000a9f828262000a4f565b919050565b600067ffffffffffffffff82111562000ac25762000ac162000a20565b5b62000acd8262000a0f565b9050602081019050919050565b82818337600083830152505050565b600062000b0062000afa8462000aa4565b62000a85565b90508281526020810184848401111562000b1f5762000b1e62000a0a565b5b62000b2c84828562000ada565b509392505050565b600082601f83011262000b4c5762000b4b62000a05565b5b813562000b5e84826020860162000ae9565b91505092915050565b6000806000806080858703121562000b845762000b83620008c9565b5b600062000b9487828801620009bc565b945050602085013567ffffffffffffffff81111562000bb85762000bb7620008ce565b5b62000bc68782880162000b34565b935050604085013567ffffffffffffffff81111562000bea5762000be9620008ce565b5b62000bf88782880162000b34565b925050606085013567ffffffffffffffff81111562000c1c5762000c1b620008ce565b5b62000c2a8782880162000b34565b91505092959194509250565b62000c4181620008d3565b82525050565b600060208201905062000c5e600083018462000c36565b92915050565b60008115159050919050565b62000c7b8162000c64565b82525050565b600060208201905062000c98600083018462000c70565b92915050565b7f4e487b7100000000000000000000000000000000000000000000000000000000600052603260045260246000fd5b600081519050919050565b600082825260208201905092915050565b60005b8381101562000d0957808201518184015260208101905062000cec565b60008484015250505050565b600062000d228262000ccd565b62000d2e818562000cd8565b935062000d4081856020860162000ce9565b62000d4b8162000a0f565b840191505092915050565b600060a08201905062000d6d600083018862000974565b62000d7c602083018762000974565b818103604083015262000d90818662000d15565b9050818103606083015262000da6818562000d15565b9050818103608083015262000dbc818462000d15565b9050969550505050505056fe60806040523480156200001157600080fd5b5060405162000b2f38038062000b2f8339818101604052810190620000379190620002f1565b846000806101000a81548173ffffffffffffffffffffffffffffffffffffffff021916908373ffffffffffffffffffffffffffffffffffffffff160217905550826001908162000088919062000627565b5083600260006101000a81548173ffffffffffffffffffffffffffffffffffffffff021916908373ffffffffffffffffffffffffffffffffffffffff1602179055508160039081620000db919062000627565b508060049081620000ed919062000627565b5050505050506200070e565b6000604051905090565b600080fd5b600080fd5b600073ffffffffffffffffffffffffffffffffffffffff82169050919050565b60006200013a826200010d565b9050919050565b6200014c816200012d565b81146200015857600080fd5b50565b6000815190506200016c8162000141565b92915050565b600080fd5b600080fd5b6000601f19601f8301169050919050565b7f4e487b7100000000000000000000000000000000000000000000000000000000600052604160045260246000fd5b620001c7826200017c565b810181811067ffffffffffffffff82111715620001e957620001e86200018d565b5b80604052505050565b6000620001fe620000f9565b90506200020c8282620001bc565b919050565b600067ffffffffffffffff8211156200022f576200022e6200018d565b5b6200023a826200017c565b9050602081019050919050565b60005b83811015620002675780820151818401526020810190506200024a565b60008484015250505050565b60006200028a620002848462000211565b620001f2565b905082815260208101848484011115620002a957620002a862000177565b5b620002b684828562000247565b509392505050565b600082601f830112620002d657620002d562000172565b5b8151620002e884826020860162000273565b91505092915050565b600080600080600060a0868803121562000310576200030f62000103565b5b600062000320888289016200015b565b955050602062000333888289016200015b565b945050604086015167ffffffffffffffff81111562000357576200035662000108565b5b6200036588828901620002be565b935050606086015167ffffffffffffffff81111562000389576200038862000108565b5b6200039788828901620002be565b925050608086015167ffffffffffffffff811115620003bb57620003ba62000108565b5b620003c988828901620002be565b9150509295509295909350565b600081519050919050565b7f4e487b7100000000000000000000000000000000000000000000000000000000600052602260045260246000fd5b600060028204905060018216806200042957607f821691505b6020821081036200043f576200043e620003e1565b5b50919050565b60008190508160005260206000209050919050565b60006020601f8301049050919050565b60008160020a8302905092915050565b600060088302620004ac7fffffffffffffffffffffffffffffffffffffffffffffffffffffffffffffffff826200046a565b620004b886836200046a565b95508019841693508086168417925050509392505050565b6000819050919050565b6000819050919050565b600062000505620004ff620004f984620004d0565b620004da565b620004d0565b9050919050565b6000819050919050565b6200052183620004e4565b6200053962000530826200050c565b8484546200047a565b825550505050565b600090565b6200055062000541565b6200055d81848462000516565b505050565b5b8181101562000585576200057960008262000546565b60018101905062000563565b5050565b601f821115620005d4576200059e8162000445565b620005a9846200045a565b81016020851015620005b9578190505b620005d1620005c8856200045a565b83018262000562565b50505b505050565b60008160020a8304905092915050565b6000620005fc60001984600802620005d9565b1980831691505092915050565b6000620006178383620005e9565b9150826002028217905092915050565b6200063282620003d6565b67ffffffffffffffff8111156200064e576200064d6200018d565b5b6200065a825462000410565b6200066782828562000589565b600060209050601f8311600181146200069f57600084156200068a578287015190505b62000696858262000609565b86555062000706565b601f198416620006af8662000445565b60005b82811015620006d957848901518255600182019150602085019450602081019050620006b2565b86831015620006f95784890151620006f5601f891682620005e9565b8355505b6001600288020188555050505b505050505050565b610411806200071e6000396000f3fe608060405234801561001057600080fd5b5060043610610048576000357c010000000000000000000000000000000000000000000000000000000090048063e894d0a21461004d575b600080fd5b61005561006e565b6040516100659493929190610321565b60405180910390f35b606060006060806001600260009054906101000a900473ffffffffffffffffffffffffffffffffffffffff16600360048380546100aa906103aa565b80601f01602080910402602001604051908101604052809291908181526020018280546100d6906103aa565b80156101235780601f106100f857610100808354040283529160200191610123565b820191906000526020600020905b81548152906001019060200180831161010657829003601f168201915b50505050509350818054610136906103aa565b80601f0160208091040260200160405190810160405280929190818152602001828054610162906103aa565b80156101af5780601f10610184576101008083540402835291602001916101af565b820191906000526020600020905b81548152906001019060200180831161019257829003601f168201915b505050505091508080546101c2906103aa565b80601f01602080910402602001604051908101604052809291908181526020018280546101ee906103aa565b801561023b5780601f106102105761010080835404028352916020019161023b565b820191906000526020600020905b81548152906001019060200180831161021e57829003601f168201915b50505050509050935093509350935090919293565b600081519050919050565b600082825260208201905092915050565b60005b8381101561028a57808201518184015260208101905061026f565b60008484015250505050565b6000601f19601f8301169050919050565b60006102b282610250565b6102bc818561025b565b93506102cc81856020860161026c565b6102d581610296565b840191505092915050565b600073ffffffffffffffffffffffffffffffffffffffff82169050919050565b600061030b826102e0565b9050919050565b61031b81610300565b82525050565b6000608082019050818103600083015261033b81876102a7565b905061034a6020830186610312565b818103604083015261035c81856102a7565b9050818103606083015261037081846102a7565b905095945050505050565b7f4e487b7100000000000000000000000000000000000000000000000000000000600052602260045260246000fd5b600060028204905060018216806103c257607f821691505b6020821081036103d5576103d461037b565b5b5091905056fea26469706673582212208b5e5806532342067a73dc771d677a480f19f3a295ed93c7672ea165cd0ac8ff64736f6c6343000812003360806040523480156200001157600080fd5b50604051620030bf380380620030bf8339818101604052810190620000379190620002f1565b846000806101000a81548173ffffffffffffffffffffffffffffffffffffffff021916908373ffffffffffffffffffffffffffffffffffffffff160217905550826004908162000088919062000627565b5083600160006101000a81548173ffffffffffffffffffffffffffffffffffffffff021916908373ffffffffffffffffffffffffffffffffffffffff1602179055508160029081620000db919062000627565b508060039081620000ed919062000627565b5050505050506200070e565b6000604051905090565b600080fd5b600080fd5b600073ffffffffffffffffffffffffffffffffffffffff82169050919050565b60006200013a826200010d565b9050919050565b6200014c816200012d565b81146200015857600080fd5b50565b6000815190506200016c8162000141565b92915050565b600080fd5b600080fd5b6000601f19601f8301169050919050565b7f4e487b7100000000000000000000000000000000000000000000000000000000600052604160045260246000fd5b620001c7826200017c565b810181811067ffffffffffffffff82111715620001e957620001e86200018d565b5b80604052505050565b6000620001fe620000f9565b90506200020c8282620001bc565b919050565b600067ffffffffffffffff8211156200022f576200022e6200018d565b5b6200023a826200017c565b9050602081019050919050565b60005b83811015620002675780820151818401526020810190506200024a565b60008484015250505050565b60006200028a620002848462000211565b620001f2565b905082815260208101848484011115620002a957620002a862000177565b5b620002b684828562000247565b509392505050565b600082601f830112620002d657620002d562000172565b5b8151620002e884826020860162000273565b91505092915050565b600080600080600060a0868803121562000310576200030f62000103565b5b600062000320888289016200015b565b955050602062000333888289016200015b565b945050604086015167ffffffffffffffff81111562000357576200035662000108565b5b6200036588828901620002be565b935050606086015167ffffffffffffffff81111562000389576200038862000108565b5b6200039788828901620002be565b925050608086015167ffffffffffffffff811115620003bb57620003ba62000108565b5b620003c988828901620002be565b9150509295509295909350565b600081519050919050565b7f4e487b7100000000000000000000000000000000000000000000000000000000600052602260045260246000fd5b600060028204905060018216806200042957607f821691505b6020821081036200043f576200043e620003e1565b5b50919050565b60008190508160005260206000209050919050565b60006020601f8301049050919050565b60008160020a8302905092915050565b600060088302620004ac7fffffffffffffffffffffffffffffffffffffffffffffffffffffffffffffffff826200046a565b620004b886836200046a565b95508019841693508086168417925050509392505050565b6000819050919050565b6000819050919050565b600062000505620004ff620004f984620004d0565b620004da565b620004d0565b9050919050565b6000819050919050565b6200052183620004e4565b6200053962000530826200050c565b8484546200047a565b825550505050565b600090565b6200055062000541565b6200055d81848462000516565b505050565b5b8181101562000585576200057960008262000546565b60018101905062000563565b5050565b601f821115620005d4576200059e8162000445565b620005a9846200045a565b81016020851015620005b9578190505b620005d1620005c8856200045a565b83018262000562565b50505b505050565b60008160020a8304905092915050565b6000620005fc60001984600802620005d9565b1980831691505092915050565b6000620006178383620005e9565b9150826002028217905092915050565b6200063282620003d6565b67ffffffffffffffff8111156200064e576200064d6200018d565b5b6200065a825462000410565b6200066782828562000589565b600060209050601f8311600181146200069f57600084156200068a578287015190505b62000696858262000609565b86555062000706565b601f198416620006af8662000445565b60005b82811015620006d957848901518255600182019150602085019450602081019050620006b2565b86831015620006f95784890151620006f5601f891682620005e9565b8355505b6001600288020188555050505b505050505050565b6129a1806200071e6000396000f3fe608060405234801561001057600080fd5b5060043610610128576000357c01000000000000000000000000000000000000000000000000000000009004806394fb3da7116100bf578063cf6431c61161008e578063cf6431c6146102a7578063d57e0ad6146102c3578063f1d9efb2146102f8578063f5e616a614610314578063fee7989e1461031e57610128565b806394fb3da714610219578063a3e3bf7d14610237578063adb8bfd114610258578063c07f7d161461028b57610128565b80636212fa02116100fb5780636212fa021461018f578063645f29a8146101ad57806368d91c85146101e15780637b1d2d00146101fd57610128565b806305f53b291461012d5780632e1083d01461014b57806344afd1341461016757806344f034ae14610185575b600080fd5b610135610351565b6040516101429190611e69565b60405180910390f35b61016560048036038101906101609190611fde565b61035e565b005b61016f610414565b60405161017c9190611e69565b60405180910390f35b61018d610421565b005b610197610519565b6040516101a49190611e69565b60405180910390f35b6101c760048036038101906101c29190612053565b610526565b6040516101d895949392919061215b565b60405180910390f35b6101fb60048036038101906101f691906121ef565b610589565b005b6102176004803603810190610212919061227a565b610736565b005b6102216108d8565b60405161022e9190611e69565b60405180910390f35b61023f6108e5565b60405161024f94939291906122e9565b60405180910390f35b610272600480360381019061026d9190612053565b610ac7565b6040516102829493929190612343565b60405180910390f35b6102a560048036038101906102a09190612396565b610b8d565b005b6102c160048036038101906102bc9190611fde565b610da9565b005b6102dd60048036038101906102d89190612053565b610e5f565b6040516102ef96959493929190612451565b60405180910390f35b610312600480360381019061030d91906124ce565b610ec6565b005b61031c611102565b005b61033860048036038101906103339190612053565b6111fa565b60405161034894939291906125b9565b60405180910390f35b6000600680549050905090565b60058160405161036e9190612641565b908152602001604051809103902060010160009054906101000a900473ffffffffffffffffffffffffffffffffffffffff1673ffffffffffffffffffffffffffffffffffffffff163373ffffffffffffffffffffffffffffffffffffffff16146103d757600080fd5b60016005826040516103e99190612641565b908152602001604051809103902060030160006101000a81548160ff02191690831515021790555050565b6000600880549050905090565b600073ffffffffffffffffffffffffffffffffffffffff16600960003373ffffffffffffffffffffffffffffffffffffffff1673ffffffffffffffffffffffffffffffffffffffff16815260200190815260200160002060010160009054906101000a900473ffffffffffffffffffffffffffffffffffffffff1673ffffffffffffffffffffffffffffffffffffffff16036104bc57600080fd5b6001600960003373ffffffffffffffffffffffffffffffffffffffff1673ffffffffffffffffffffffffffffffffffffffff16815260200190815260200160002060040160006101000a81548160ff021916908315150217905550565b6000600c80549050905090565b600060608060006060610576600c878154811061054657610545612658565b5b9060005260206000200160009054906101000a900473ffffffffffffffffffffffffffffffffffffffff166112bf565b9450945094509450945091939590929450565b600160009054906101000a900473ffffffffffffffffffffffffffffffffffffffff1673ffffffffffffffffffffffffffffffffffffffff163373ffffffffffffffffffffffffffffffffffffffff16146105e357600080fd5b6105eb611d3b565b83816000018190525082816020019073ffffffffffffffffffffffffffffffffffffffff16908173ffffffffffffffffffffffffffffffffffffffff16815250508181604001819052506000816060019015159081151581525050806005856040516106579190612641565b9081526020016040518091039020600082015181600001908161067a9190612899565b5060208201518160010160006101000a81548173ffffffffffffffffffffffffffffffffffffffff021916908373ffffffffffffffffffffffffffffffffffffffff16021790555060408201518160020190816106d79190612899565b5060608201518160030160006101000a81548160ff02191690831515021790555090505060068490806001815401808255809150506001900390600052602060002001600090919091909150908161072f9190612899565b5050505050565b600160009054906101000a900473ffffffffffffffffffffffffffffffffffffffff1673ffffffffffffffffffffffffffffffffffffffff163373ffffffffffffffffffffffffffffffffffffffff161461079057600080fd5b610798611d7b565b83816000018190525082816020019073ffffffffffffffffffffffffffffffffffffffff16908173ffffffffffffffffffffffffffffffffffffffff1681525050818160400181815250506000816060019015159081151581525050806007856040516108059190612641565b908152602001604051809103902060008201518160000190816108289190612899565b5060208201518160010160006101000a81548173ffffffffffffffffffffffffffffffffffffffff021916908373ffffffffffffffffffffffffffffffffffffffff1602179055506040820151816002015560608201518160030160006101000a81548160ff0219169083151502179055509050506008849080600181540180825580915050600190039060005260206000200160009091909190915090816108d19190612899565b5050505050565b6000600a80549050905090565b60006060806060600160009054906101000a900473ffffffffffffffffffffffffffffffffffffffff16600460026003828054610921906126b6565b80601f016020809104026020016040519081016040528092919081815260200182805461094d906126b6565b801561099a5780601f1061096f5761010080835404028352916020019161099a565b820191906000526020600020905b81548152906001019060200180831161097d57829003601f168201915b505050505092508180546109ad906126b6565b80601f01602080910402602001604051908101604052809291908181526020018280546109d9906126b6565b8015610a265780601f106109fb57610100808354040283529160200191610a26565b820191906000526020600020905b815481529060010190602001808311610a0957829003601f168201915b50505050509150808054610a39906126b6565b80601f0160208091040260200160405190810160405280929190818152602001828054610a65906126b6565b8015610ab25780601f10610a8757610100808354040283529160200191610ab2565b820191906000526020600020905b815481529060010190602001808311610a9557829003601f168201915b50505050509050935093509350935090919293565b6060600060606000610b7e60068681548110610ae657610ae5612658565b5b906000526020600020018054610afb906126b6565b80601f0160208091040260200160405190810160405280929190818152602001828054610b27906126b6565b8015610b745780601f10610b4957610100808354040283529160200191610b74565b820191906000526020600020905b815481529060010190602001808311610b5757829003601f168201915b50505050506115f8565b93509350935093509193509193565b600160009054906101000a900473ffffffffffffffffffffffffffffffffffffffff1673ffffffffffffffffffffffffffffffffffffffff163373ffffffffffffffffffffffffffffffffffffffff1614610be757600080fd5b610bef611dbb565b84816000019073ffffffffffffffffffffffffffffffffffffffff16908173ffffffffffffffffffffffffffffffffffffffff1681525050838160200181905250828160400181905250600081606001901515908115158152505081816080018190525080600b60008773ffffffffffffffffffffffffffffffffffffffff1673ffffffffffffffffffffffffffffffffffffffff16815260200190815260200160002060008201518160000160006101000a81548173ffffffffffffffffffffffffffffffffffffffff021916908373ffffffffffffffffffffffffffffffffffffffff1602179055506020820151816001019081610cef9190612899565b506040820151816002019081610d059190612899565b5060608201518160030160006101000a81548160ff0219169083151502179055506080820151816004019081610d3b9190612899565b50905050600c859080600181540180825580915050600190039060005260206000200160009091909190916101000a81548173ffffffffffffffffffffffffffffffffffffffff021916908373ffffffffffffffffffffffffffffffffffffffff1602179055505050505050565b600781604051610db99190612641565b908152602001604051809103902060010160009054906101000a900473ffffffffffffffffffffffffffffffffffffffff1673ffffffffffffffffffffffffffffffffffffffff163373ffffffffffffffffffffffffffffffffffffffff1614610e2257600080fd5b6001600782604051610e349190612641565b908152602001604051809103902060030160006101000a81548160ff02191690831515021790555050565b6060600060608060006060610eb1600a8881548110610e8157610e80612658565b5b9060005260206000200160009054906101000a900473ffffffffffffffffffffffffffffffffffffffff166117da565b95509550955095509550955091939550919395565b600160009054906101000a900473ffffffffffffffffffffffffffffffffffffffff1673ffffffffffffffffffffffffffffffffffffffff163373ffffffffffffffffffffffffffffffffffffffff1614610f2057600080fd5b610f28611e02565b85816000018190525084816020019073ffffffffffffffffffffffffffffffffffffffff16908173ffffffffffffffffffffffffffffffffffffffff16815250508381604001819052508281606001819052506000816080019015159081151581525050818160a0018190525080600960008773ffffffffffffffffffffffffffffffffffffffff1673ffffffffffffffffffffffffffffffffffffffff1681526020019081526020016000206000820151816000019081610fea9190612899565b5060208201518160010160006101000a81548173ffffffffffffffffffffffffffffffffffffffff021916908373ffffffffffffffffffffffffffffffffffffffff16021790555060408201518160020190816110479190612899565b50606082015181600301908161105d9190612899565b5060808201518160040160006101000a81548160ff02191690831515021790555060a08201518160050190816110939190612899565b50905050600a859080600181540180825580915050600190039060005260206000200160009091909190916101000a81548173ffffffffffffffffffffffffffffffffffffffff021916908373ffffffffffffffffffffffffffffffffffffffff160217905550505050505050565b600073ffffffffffffffffffffffffffffffffffffffff16600b60003373ffffffffffffffffffffffffffffffffffffffff1673ffffffffffffffffffffffffffffffffffffffff16815260200190815260200160002060000160009054906101000a900473ffffffffffffffffffffffffffffffffffffffff1673ffffffffffffffffffffffffffffffffffffffff160361119d57600080fd5b6001600b60003373ffffffffffffffffffffffffffffffffffffffff1673ffffffffffffffffffffffffffffffffffffffff16815260200190815260200160002060030160006101000a81548160ff021916908315150217905550565b606060008060006112b06008868154811061121857611217612658565b5b90600052602060002001805461122d906126b6565b80601f0160208091040260200160405190810160405280929190818152602001828054611259906126b6565b80156112a65780601f1061127b576101008083540402835291602001916112a6565b820191906000526020600020905b81548152906001019060200180831161128957829003601f168201915b5050505050611be5565b93509350935093509193509193565b600060608060006060600b60008773ffffffffffffffffffffffffffffffffffffffff1673ffffffffffffffffffffffffffffffffffffffff16815260200190815260200160002060000160009054906101000a900473ffffffffffffffffffffffffffffffffffffffff16600b60008873ffffffffffffffffffffffffffffffffffffffff1673ffffffffffffffffffffffffffffffffffffffff168152602001908152602001600020600101600b60008973ffffffffffffffffffffffffffffffffffffffff1673ffffffffffffffffffffffffffffffffffffffff168152602001908152602001600020600201600b60008a73ffffffffffffffffffffffffffffffffffffffff1673ffffffffffffffffffffffffffffffffffffffff16815260200190815260200160002060030160009054906101000a900460ff16600b60008b73ffffffffffffffffffffffffffffffffffffffff1673ffffffffffffffffffffffffffffffffffffffff16815260200190815260200160002060040183805461144d906126b6565b80601f0160208091040260200160405190810160405280929190818152602001828054611479906126b6565b80156114c65780601f1061149b576101008083540402835291602001916114c6565b820191906000526020600020905b8154815290600101906020018083116114a957829003601f168201915b505050505093508280546114d9906126b6565b80601f0160208091040260200160405190810160405280929190818152602001828054611505906126b6565b80156115525780601f1061152757610100808354040283529160200191611552565b820191906000526020600020905b81548152906001019060200180831161153557829003601f168201915b50505050509250808054611565906126b6565b80601f0160208091040260200160405190810160405280929190818152602001828054611591906126b6565b80156115de5780601f106115b3576101008083540402835291602001916115de565b820191906000526020600020905b8154815290600101906020018083116115c157829003601f168201915b505050505090509450945094509450945091939590929450565b60606000606060006005856040516116109190612641565b90815260200160405180910390206000016005866040516116319190612641565b908152602001604051809103902060010160009054906101000a900473ffffffffffffffffffffffffffffffffffffffff166005876040516116739190612641565b90815260200160405180910390206002016005886040516116949190612641565b908152602001604051809103902060030160009054906101000a900460ff168380546116bf906126b6565b80601f01602080910402602001604051908101604052809291908181526020018280546116eb906126b6565b80156117385780601f1061170d57610100808354040283529160200191611738565b820191906000526020600020905b81548152906001019060200180831161171b57829003601f168201915b5050505050935081805461174b906126b6565b80601f0160208091040260200160405190810160405280929190818152602001828054611777906126b6565b80156117c45780601f10611799576101008083540402835291602001916117c4565b820191906000526020600020905b8154815290600101906020018083116117a757829003601f168201915b5050505050915093509350935093509193509193565b6060600060608060006060600960008873ffffffffffffffffffffffffffffffffffffffff1673ffffffffffffffffffffffffffffffffffffffff168152602001908152602001600020600001600960008973ffffffffffffffffffffffffffffffffffffffff1673ffffffffffffffffffffffffffffffffffffffff16815260200190815260200160002060010160009054906101000a900473ffffffffffffffffffffffffffffffffffffffff16600960008a73ffffffffffffffffffffffffffffffffffffffff1673ffffffffffffffffffffffffffffffffffffffff168152602001908152602001600020600201600960008b73ffffffffffffffffffffffffffffffffffffffff1673ffffffffffffffffffffffffffffffffffffffff168152602001908152602001600020600301600960008c73ffffffffffffffffffffffffffffffffffffffff1673ffffffffffffffffffffffffffffffffffffffff16815260200190815260200160002060040160009054906101000a900460ff16600960008d73ffffffffffffffffffffffffffffffffffffffff1673ffffffffffffffffffffffffffffffffffffffff1681526020019081526020016000206005018580546119ac906126b6565b80601f01602080910402602001604051908101604052809291908181526020018280546119d8906126b6565b8015611a255780601f106119fa57610100808354040283529160200191611a25565b820191906000526020600020905b815481529060010190602001808311611a0857829003601f168201915b50505050509550838054611a38906126b6565b80601f0160208091040260200160405190810160405280929190818152602001828054611a64906126b6565b8015611ab15780601f10611a8657610100808354040283529160200191611ab1565b820191906000526020600020905b815481529060010190602001808311611a9457829003601f168201915b50505050509350828054611ac4906126b6565b80601f0160208091040260200160405190810160405280929190818152602001828054611af0906126b6565b8015611b3d5780601f10611b1257610100808354040283529160200191611b3d565b820191906000526020600020905b815481529060010190602001808311611b2057829003601f168201915b50505050509250808054611b50906126b6565b80601f0160208091040260200160405190810160405280929190818152602001828054611b7c906126b6565b8015611bc95780601f10611b9e57610100808354040283529160200191611bc9565b820191906000526020600020905b815481529060010190602001808311611bac57829003601f168201915b5050505050905095509550955095509550955091939550919395565b60606000806000600785604051611bfc9190612641565b9081526020016040518091039020600001600786604051611c1d9190612641565b908152602001604051809103902060010160009054906101000a900473ffffffffffffffffffffffffffffffffffffffff16600787604051611c5f9190612641565b908152602001604051809103902060020154600788604051611c819190612641565b908152602001604051809103902060030160009054906101000a900460ff16838054611cac906126b6565b80601f0160208091040260200160405190810160405280929190818152602001828054611cd8906126b6565b8015611d255780601f10611cfa57610100808354040283529160200191611d25565b820191906000526020600020905b815481529060010190602001808311611d0857829003601f168201915b5050505050935093509350935093509193509193565b604051806080016040528060608152602001600073ffffffffffffffffffffffffffffffffffffffff168152602001606081526020016000151581525090565b604051806080016040528060608152602001600073ffffffffffffffffffffffffffffffffffffffff168152602001600081526020016000151581525090565b6040518060a00160405280600073ffffffffffffffffffffffffffffffffffffffff1681526020016060815260200160608152602001600015158152602001606081525090565b6040518060c0016040528060608152602001600073ffffffffffffffffffffffffffffffffffffffff1681526020016060815260200160608152602001600015158152602001606081525090565b6000819050919050565b611e6381611e50565b82525050565b6000602082019050611e7e6000830184611e5a565b92915050565b6000604051905090565b600080fd5b600080fd5b600080fd5b600080fd5b6000601f19601f8301169050919050565b7f4e487b7100000000000000000000000000000000000000000000000000000000600052604160045260246000fd5b611eeb82611ea2565b810181811067ffffffffffffffff82111715611f0a57611f09611eb3565b5b80604052505050565b6000611f1d611e84565b9050611f298282611ee2565b919050565b600067ffffffffffffffff821115611f4957611f48611eb3565b5b611f5282611ea2565b9050602081019050919050565b82818337600083830152505050565b6000611f81611f7c84611f2e565b611f13565b905082815260208101848484011115611f9d57611f9c611e9d565b5b611fa8848285611f5f565b509392505050565b600082601f830112611fc557611fc4611e98565b5b8135611fd5848260208601611f6e565b91505092915050565b600060208284031215611ff457611ff3611e8e565b5b600082013567ffffffffffffffff81111561201257612011611e93565b5b61201e84828501611fb0565b91505092915050565b61203081611e50565b811461203b57600080fd5b50565b60008135905061204d81612027565b92915050565b60006020828403121561206957612068611e8e565b5b60006120778482850161203e565b91505092915050565b600073ffffffffffffffffffffffffffffffffffffffff82169050919050565b60006120ab82612080565b9050919050565b6120bb816120a0565b82525050565b600081519050919050565b600082825260208201905092915050565b60005b838110156120fb5780820151818401526020810190506120e0565b60008484015250505050565b6000612112826120c1565b61211c81856120cc565b935061212c8185602086016120dd565b61213581611ea2565b840191505092915050565b60008115159050919050565b61215581612140565b82525050565b600060a08201905061217060008301886120b2565b81810360208301526121828187612107565b905081810360408301526121968186612107565b90506121a5606083018561214c565b81810360808301526121b78184612107565b90509695505050505050565b6121cc816120a0565b81146121d757600080fd5b50565b6000813590506121e9816121c3565b92915050565b60008060006060848603121561220857612207611e8e565b5b600084013567ffffffffffffffff81111561222657612225611e93565b5b61223286828701611fb0565b9350506020612243868287016121da565b925050604084013567ffffffffffffffff81111561226457612263611e93565b5b61227086828701611fb0565b9150509250925092565b60008060006060848603121561229357612292611e8e565b5b600084013567ffffffffffffffff8111156122b1576122b0611e93565b5b6122bd86828701611fb0565b93505060206122ce868287016121da565b92505060406122df8682870161203e565b9150509250925092565b60006080820190506122fe60008301876120b2565b81810360208301526123108186612107565b905081810360408301526123248185612107565b905081810360608301526123388184612107565b905095945050505050565b6000608082019050818103600083015261235d8187612107565b905061236c60208301866120b2565b818103604083015261237e8185612107565b905061238d606083018461214c565b95945050505050565b600080600080608085870312156123b0576123af611e8e565b5b60006123be878288016121da565b945050602085013567ffffffffffffffff8111156123df576123de611e93565b5b6123eb87828801611fb0565b935050604085013567ffffffffffffffff81111561240c5761240b611e93565b5b61241887828801611fb0565b925050606085013567ffffffffffffffff81111561243957612438611e93565b5b61244587828801611fb0565b91505092959194509250565b600060c082019050818103600083015261246b8189612107565b905061247a60208301886120b2565b818103604083015261248c8187612107565b905081810360608301526124a08186612107565b90506124af608083018561214c565b81810360a08301526124c18184612107565b9050979650505050505050565b600080600080600060a086880312156124ea576124e9611e8e565b5b600086013567ffffffffffffffff81111561250857612507611e93565b5b61251488828901611fb0565b9550506020612525888289016121da565b945050604086013567ffffffffffffffff81111561254657612545611e93565b5b61255288828901611fb0565b935050606086013567ffffffffffffffff81111561257357612572611e93565b5b61257f88828901611fb0565b925050608086013567ffffffffffffffff8111156125a05761259f611e93565b5b6125ac88828901611fb0565b9150509295509295909350565b600060808201905081810360008301526125d38187612107565b90506125e260208301866120b2565b6125ef6040830185611e5a565b6125fc606083018461214c565b95945050505050565b600081905092915050565b600061261b826120c1565b6126258185612605565b93506126358185602086016120dd565b80840191505092915050565b600061264d8284612610565b915081905092915050565b7f4e487b7100000000000000000000000000000000000000000000000000000000600052603260045260246000fd5b7f4e487b7100000000000000000000000000000000000000000000000000000000600052602260045260246000fd5b600060028204905060018216806126ce57607f821691505b6020821081036126e1576126e0612687565b5b50919050565b60008190508160005260206000209050919050565b60006020601f8301049050919050565b60008160020a8302905092915050565b60006008830261274c7fffffffffffffffffffffffffffffffffffffffffffffffffffffffffffffffff8261270c565b612756868361270c565b95508019841693508086168417925050509392505050565b6000819050919050565b600061279361278e61278984611e50565b61276e565b611e50565b9050919050565b6000819050919050565b6127ad83612778565b6127c16127b98261279a565b84845461271c565b825550505050565b600090565b6127d66127c9565b6127e18184846127a4565b505050565b5b81811015612805576127fa6000826127ce565b6001810190506127e7565b5050565b601f82111561284a5761281b816126e7565b612824846126fc565b81016020851015612833578190505b61284761283f856126fc565b8301826127e6565b50505b505050565b60008160020a8304905092915050565b60006128706000198460080261284f565b1980831691505092915050565b6000612889838361285f565b9150826002028217905092915050565b6128a2826120c1565b67ffffffffffffffff8111156128bb576128ba611eb3565b5b6128c582546126b6565b6128d0828285612809565b600060209050601f83116001811461290357600084156128f1578287015190505b6128fb858261287d565b865550612963565b601f198416612911866126e7565b60005b8281101561293957848901518255600182019150602085019450602081019050612914565b868310156129565784890151612952601f89168261285f565b8355505b6001600288020188555050505b50505050505056fea26469706673582212207d87805d3f8d53adf5e0a6fcec5d8471e8ad952f1b76c377f83269eace0a56e764736f6c63430008120033a26469706673582212207e6abd7f5632e9c8722979acb72e6d670596b3b989f33188a9ebc6fdce48451064736f6c63430008120033",
  "immutableReferences": {},
  "source": "// SPDX-License-Identifier: MIT\npragma solidity >=0.4.22 <0.9.0;\nimport \"./Organization.sol\";\nimport \"./Employee.sol\";\n\ncontract Admin {\n    address public owner;\n\n    mapping(address => address) registeredEmployeesmap;\n    mapping(address => address) registeredOrganizationmap;\n    address[] registeredEmployees;\n    address[] registeredOrganization;\n\n    constructor() {\n        owner = msg.sender;\n    }\n\n    modifier onlyOwner() {\n        require(msg.sender == owner);\n        _;\n    }\n\n    function createEmployee(\n        address _eth_address,\n        string memory _name,\n        string memory _location,\n        string memory _description\n    ) public {\n        Employee emp = new Employee(\n            owner,\n            _eth_address,\n            _name,\n            _description,\n            _location\n        );\n        registeredEmployeesmap[_eth_address] = address(emp);\n        registeredEmployees.push(_eth_address);\n    }\n\n    function createOrganization(\n        address _eth_address,\n        string memory _name,\n        string memory _location,\n        string memory _description\n    ) public onlyOwner {\n        Organization org = new Organization(\n            owner,\n            _eth_address,\n            _name,\n            _description,\n            _location\n        );\n        registeredOrganizationmap[_eth_address] = address(org);\n        registeredOrganization.push(_eth_address);\n    }\n\n    function isEmployee(address _employee_address) public view returns (bool) {\n        return registeredEmployeesmap[_employee_address] != address(0x0);\n    }\n\n    function isOrganization(\n        address _organization_address\n    ) public view returns (bool) {\n        return registeredOrganizationmap[_organization_address] != address(0x0);\n    }\n\n    \n  function employeeCount() public view returns (uint256) {\n    return registeredEmployees.length;\n  }\n\n  function getEmployeeContractByAddress(address _employee)\n    public\n    view\n    returns (address)\n  {\n    return registeredEmployeesmap[_employee];\n  }\n\n  function getEmployeeContractByIndex(uint256 index)\n    public\n    view\n    returns (address)\n  {\n    return getEmployeeContractByAddress(registeredEmployees[index]);\n  }\n\n  function OrganizationCount() public view returns (uint256) {\n    return registeredOrganization.length;\n  }\n\n  function getOrganizationContractByAddress(address _organization)\n    public\n    view\n    returns (address)\n  {\n    return registeredOrganizationmap[_organization];\n  }\n\n  function getOrganizationContractByIndex(uint256 index)\n    public\n    view\n    returns (address)\n  {\n    return getOrganizationContractByAddress(registeredOrganization[index]);\n  }\n}\n",
  "sourcePath": "E:\\skillset\\src\\contracts\\Admin.sol",
  "compiler": {
    "name": "solc",
    "version": "0.8.18+commit.87f61d96.Emscripten.clang"
  },
  "schemaVersion": "3.4.12",
  "updatedAt": "2023-03-07T16:38:25.455Z",
  "networkType": "ethereum",
  "devdoc": {
    "kind": "dev",
    "methods": {},
    "version": 1
  },
  "userdoc": {
    "kind": "user",
    "methods": {},
    "version": 1
  }
}