{
  "contractName": "Employee",
  "abi": [
    {
      "inputs": [
        {
          "internalType": "address",
          "name": "_admin",
          "type": "address"
        },
        {
          "internalType": "address",
          "name": "_employee_address",
          "type": "address"
        },
        {
          "internalType": "string",
          "name": "_name",
          "type": "string"
        },
        {
          "internalType": "string",
          "name": "_description",
          "type": "string"
        },
        {
          "internalType": "string",
          "name": "_location",
          "type": "string"
        }
      ],
      "stateMutability": "nonpayable",
      "type": "constructor"
    },
    {
      "inputs": [],
      "name": "getEmployeeInfo",
      "outputs": [
        {
          "internalType": "address",
          "name": "",
          "type": "address"
        },
        {
          "internalType": "string",
          "name": "",
          "type": "string"
        },
        {
          "internalType": "string",
          "name": "",
          "type": "string"
        },
        {
          "internalType": "string",
          "name": "",
          "type": "string"
        }
      ],
      "stateMutability": "view",
      "type": "function"
    },
    {
      "inputs": [
        {
          "internalType": "string",
          "name": "_name",
          "type": "string"
        },
        {
          "internalType": "address",
          "name": "_organization",
          "type": "address"
        },
        {
          "internalType": "string",
          "name": "_experience",
          "type": "string"
        }
      ],
      "name": "addskill",
      "outputs": [],
      "stateMutability": "nonpayable",
      "type": "function"
    },
    {
      "inputs": [
        {
          "internalType": "string",
          "name": "_name",
          "type": "string"
        }
      ],
      "name": "endorseSkill",
      "outputs": [],
      "stateMutability": "nonpayable",
      "type": "function"
    },
    {
      "inputs": [],
      "name": "getSkillCount",
      "outputs": [
        {
          "internalType": "uint256",
          "name": "",
          "type": "uint256"
        }
      ],
      "stateMutability": "view",
      "type": "function"
    },
    {
      "inputs": [
        {
          "internalType": "uint256",
          "name": "_index",
          "type": "uint256"
        }
      ],
      "name": "getskillByIndex",
      "outputs": [
        {
          "internalType": "string",
          "name": "",
          "type": "string"
        },
        {
          "internalType": "address",
          "name": "",
          "type": "address"
        },
        {
          "internalType": "string",
          "name": "",
          "type": "string"
        },
        {
          "internalType": "bool",
          "name": "",
          "type": "bool"
        }
      ],
      "stateMutability": "view",
      "type": "function"
    },
    {
      "inputs": [
        {
          "internalType": "string",
          "name": "_name",
          "type": "string"
        },
        {
          "internalType": "address",
          "name": "_organization",
          "type": "address"
        },
        {
          "internalType": "uint256",
          "name": "_score",
          "type": "uint256"
        }
      ],
      "name": "addCertification",
      "outputs": [],
      "stateMutability": "nonpayable",
      "type": "function"
    },
    {
      "inputs": [
        {
          "internalType": "string",
          "name": "_name",
          "type": "string"
        }
      ],
      "name": "endorseCertification",
      "outputs": [],
      "stateMutability": "nonpayable",
      "type": "function"
    },
    {
      "inputs": [],
      "name": "getCertificationCount",
      "outputs": [
        {
          "internalType": "uint256",
          "name": "",
          "type": "uint256"
        }
      ],
      "stateMutability": "view",
      "type": "function"
    },
    {
      "inputs": [
        {
          "internalType": "uint256",
          "name": "_index",
          "type": "uint256"
        }
      ],
      "name": "getCertificationByIndex",
      "outputs": [
        {
          "internalType": "string",
          "name": "",
          "type": "string"
        },
        {
          "internalType": "address",
          "name": "",
          "type": "address"
        },
        {
          "internalType": "uint256",
          "name": "",
          "type": "uint256"
        },
        {
          "internalType": "bool",
          "name": "",
          "type": "bool"
        }
      ],
      "stateMutability": "view",
      "type": "function"
    },
    {
      "inputs": [
        {
          "internalType": "string",
          "name": "_role",
          "type": "string"
        },
        {
          "internalType": "address",
          "name": "_organization",
          "type": "address"
        },
        {
          "internalType": "string",
          "name": "_startdate",
          "type": "string"
        },
        {
          "internalType": "string",
          "name": "_enddate",
          "type": "string"
        },
        {
          "internalType": "bool",
          "name": "_current",
          "type": "bool"
        },
        {
          "internalType": "string",
          "name": "_description",
          "type": "string"
        }
      ],
      "name": "addWorkExp",
      "outputs": [],
      "stateMutability": "nonpayable",
      "type": "function"
    },
    {
      "inputs": [],
      "name": "endorseWorkExp",
      "outputs": [],
      "stateMutability": "nonpayable",
      "type": "function"
    },
    {
      "inputs": [],
      "name": "getWorkExpCount",
      "outputs": [
        {
          "internalType": "uint256",
          "name": "",
          "type": "uint256"
        }
      ],
      "stateMutability": "view",
      "type": "function"
    },
    {
      "inputs": [
        {
          "internalType": "uint256",
          "name": "_index",
          "type": "uint256"
        }
      ],
      "name": "getWorkExpByIndex",
      "outputs": [
        {
          "internalType": "string",
          "name": "",
          "type": "string"
        },
        {
          "internalType": "address",
          "name": "",
          "type": "address"
        },
        {
          "internalType": "string",
          "name": "",
          "type": "string"
        },
        {
          "internalType": "string",
          "name": "",
          "type": "string"
        },
        {
          "internalType": "bool",
          "name": "",
          "type": "bool"
        },
        {
          "internalType": "bool",
          "name": "",
          "type": "bool"
        },
        {
          "internalType": "string",
          "name": "",
          "type": "string"
        }
      ],
      "stateMutability": "view",
      "type": "function"
    },
    {
      "inputs": [
        {
          "internalType": "address",
          "name": "_institute",
          "type": "address"
        },
        {
          "internalType": "string",
          "name": "_startdate",
          "type": "string"
        },
        {
          "internalType": "string",
          "name": "_enddate",
          "type": "string"
        },
        {
          "internalType": "string",
          "name": "_description",
          "type": "string"
        }
      ],
      "name": "addEducation",
      "outputs": [],
      "stateMutability": "nonpayable",
      "type": "function"
    },
    {
      "inputs": [],
      "name": "endorseEducation",
      "outputs": [],
      "stateMutability": "nonpayable",
      "type": "function"
    },
    {
      "inputs": [],
      "name": "getEducationCount",
      "outputs": [
        {
          "internalType": "uint256",
          "name": "",
          "type": "uint256"
        }
      ],
      "stateMutability": "view",
      "type": "function"
    },
    {
      "inputs": [
        {
          "internalType": "uint256",
          "name": "_index",
          "type": "uint256"
        }
      ],
      "name": "getEducationByIndex",
      "outputs": [
        {
          "internalType": "address",
          "name": "",
          "type": "address"
        },
        {
          "internalType": "string",
          "name": "",
          "type": "string"
        },
        {
          "internalType": "string",
          "name": "",
          "type": "string"
        },
        {
          "internalType": "bool",
          "name": "",
          "type": "bool"
        },
        {
          "internalType": "string",
          "name": "",
          "type": "string"
        }
      ],
      "stateMutability": "view",
      "type": "function"
    }
  ],
  "bytecode": "0x60806040523480156200001157600080fd5b50604051620031a0380380620031a08339818101604052810190620000379190620002f1565b846000806101000a81548173ffffffffffffffffffffffffffffffffffffffff021916908373ffffffffffffffffffffffffffffffffffffffff160217905550826004908162000088919062000627565b5083600160006101000a81548173ffffffffffffffffffffffffffffffffffffffff021916908373ffffffffffffffffffffffffffffffffffffffff1602179055508160029081620000db919062000627565b508060039081620000ed919062000627565b5050505050506200070e565b6000604051905090565b600080fd5b600080fd5b600073ffffffffffffffffffffffffffffffffffffffff82169050919050565b60006200013a826200010d565b9050919050565b6200014c816200012d565b81146200015857600080fd5b50565b6000815190506200016c8162000141565b92915050565b600080fd5b600080fd5b6000601f19601f8301169050919050565b7f4e487b7100000000000000000000000000000000000000000000000000000000600052604160045260246000fd5b620001c7826200017c565b810181811067ffffffffffffffff82111715620001e957620001e86200018d565b5b80604052505050565b6000620001fe620000f9565b90506200020c8282620001bc565b919050565b600067ffffffffffffffff8211156200022f576200022e6200018d565b5b6200023a826200017c565b9050602081019050919050565b60005b83811015620002675780820151818401526020810190506200024a565b60008484015250505050565b60006200028a620002848462000211565b620001f2565b905082815260208101848484011115620002a957620002a862000177565b5b620002b684828562000247565b509392505050565b600082601f830112620002d657620002d562000172565b5b8151620002e884826020860162000273565b91505092915050565b600080600080600060a0868803121562000310576200030f62000103565b5b600062000320888289016200015b565b955050602062000333888289016200015b565b945050604086015167ffffffffffffffff81111562000357576200035662000108565b5b6200036588828901620002be565b935050606086015167ffffffffffffffff81111562000389576200038862000108565b5b6200039788828901620002be565b925050608086015167ffffffffffffffff811115620003bb57620003ba62000108565b5b620003c988828901620002be565b9150509295509295909350565b600081519050919050565b7f4e487b7100000000000000000000000000000000000000000000000000000000600052602260045260246000fd5b600060028204905060018216806200042957607f821691505b6020821081036200043f576200043e620003e1565b5b50919050565b60008190508160005260206000209050919050565b60006020601f8301049050919050565b60008160020a8302905092915050565b600060088302620004ac7fffffffffffffffffffffffffffffffffffffffffffffffffffffffffffffffff826200046a565b620004b886836200046a565b95508019841693508086168417925050509392505050565b6000819050919050565b6000819050919050565b600062000505620004ff620004f984620004d0565b620004da565b620004d0565b9050919050565b6000819050919050565b6200052183620004e4565b6200053962000530826200050c565b8484546200047a565b825550505050565b600090565b6200055062000541565b6200055d81848462000516565b505050565b5b8181101562000585576200057960008262000546565b60018101905062000563565b5050565b601f821115620005d4576200059e8162000445565b620005a9846200045a565b81016020851015620005b9578190505b620005d1620005c8856200045a565b83018262000562565b50505b505050565b60008160020a8304905092915050565b6000620005fc60001984600802620005d9565b1980831691505092915050565b6000620006178383620005e9565b9150826002028217905092915050565b6200063282620003d6565b67ffffffffffffffff8111156200064e576200064d6200018d565b5b6200065a825462000410565b6200066782828562000589565b600060209050601f8311600181146200069f57600084156200068a578287015190505b62000696858262000609565b86555062000706565b601f198416620006af8662000445565b60005b82811015620006d957848901518255600182019150602085019450602081019050620006b2565b86831015620006f95784890151620006f5601f891682620005e9565b8355505b6001600288020188555050505b505050505050565b612a82806200071e6000396000f3fe608060405234801561001057600080fd5b5060043610610128576000357c0100000000000000000000000000000000000000000000000000000000900480637b1d2d00116100bf578063c07f7d161161008e578063c07f7d16146102a7578063cf6431c6146102c3578063d57e0ad6146102df578063f5e616a614610315578063fee7989e1461031f57610128565b80637b1d2d001461021957806394fb3da714610235578063a3e3bf7d14610253578063adb8bfd11461027457610128565b8063542047a0116100fb578063542047a01461018f5780636212fa02146101ab578063645f29a8146101c957806368d91c85146101fd57610128565b806305f53b291461012d5780632e1083d01461014b57806344afd1341461016757806344f034ae14610185575b600080fd5b610135610352565b6040516101429190611efe565b60405180910390f35b61016560048036038101906101609190612073565b61035f565b005b61016f610415565b60405161017c9190611efe565b60405180910390f35b61018d610422565b005b6101a960048036038101906101a49190612152565b61051a565b005b6101b3610787565b6040516101c09190611efe565b60405180910390f35b6101e360048036038101906101de919061227b565b610794565b6040516101f4959493929190612345565b60405180910390f35b610217600480360381019061021291906123ad565b6107f7565b005b610233600480360381019061022e9190612438565b6109a4565b005b61023d610b46565b60405161024a9190611efe565b60405180910390f35b61025b610b53565b60405161026b94939291906124a7565b60405180910390f35b61028e6004803603810190610289919061227b565b610d35565b60405161029e9493929190612501565b60405180910390f35b6102c160048036038101906102bc9190612554565b610dfb565b005b6102dd60048036038101906102d89190612073565b611017565b005b6102f960048036038101906102f4919061227b565b6110cd565b60405161030c979695949392919061260f565b60405180910390f35b61031d611139565b005b6103396004803603810190610334919061227b565b611231565b604051610349949392919061269a565b60405180910390f35b6000600680549050905090565b60058160405161036f9190612722565b908152602001604051809103902060010160009054906101000a900473ffffffffffffffffffffffffffffffffffffffff1673ffffffffffffffffffffffffffffffffffffffff163373ffffffffffffffffffffffffffffffffffffffff16146103d857600080fd5b60016005826040516103ea9190612722565b908152602001604051809103902060030160006101000a81548160ff02191690831515021790555050565b6000600880549050905090565b600073ffffffffffffffffffffffffffffffffffffffff16600960003373ffffffffffffffffffffffffffffffffffffffff1673ffffffffffffffffffffffffffffffffffffffff16815260200190815260200160002060010160009054906101000a900473ffffffffffffffffffffffffffffffffffffffff1673ffffffffffffffffffffffffffffffffffffffff16036104bd57600080fd5b6001600960003373ffffffffffffffffffffffffffffffffffffffff1673ffffffffffffffffffffffffffffffffffffffff16815260200190815260200160002060040160006101000a81548160ff021916908315150217905550565b600160009054906101000a900473ffffffffffffffffffffffffffffffffffffffff1673ffffffffffffffffffffffffffffffffffffffff163373ffffffffffffffffffffffffffffffffffffffff161461057457600080fd5b61057c611dc7565b86816000018190525085816020019073ffffffffffffffffffffffffffffffffffffffff16908173ffffffffffffffffffffffffffffffffffffffff16815250508481604001819052508381606001819052506000816080019015159081151581525050818160c00181905250828160a001901515908115158152505080600960008873ffffffffffffffffffffffffffffffffffffffff1673ffffffffffffffffffffffffffffffffffffffff168152602001908152602001600020600082015181600001908161064e919061294b565b5060208201518160010160006101000a81548173ffffffffffffffffffffffffffffffffffffffff021916908373ffffffffffffffffffffffffffffffffffffffff16021790555060408201518160020190816106ab919061294b565b5060608201518160030190816106c1919061294b565b5060808201518160040160006101000a81548160ff02191690831515021790555060a08201518160040160016101000a81548160ff02191690831515021790555060c0820151816005019081610717919061294b565b50905050600a869080600181540180825580915050600190039060005260206000200160009091909190916101000a81548173ffffffffffffffffffffffffffffffffffffffff021916908373ffffffffffffffffffffffffffffffffffffffff16021790555050505050505050565b6000600c80549050905090565b6000606080600060606107e4600c87815481106107b4576107b3612a1d565b5b9060005260206000200160009054906101000a900473ffffffffffffffffffffffffffffffffffffffff166112f6565b9450945094509450945091939590929450565b600160009054906101000a900473ffffffffffffffffffffffffffffffffffffffff1673ffffffffffffffffffffffffffffffffffffffff163373ffffffffffffffffffffffffffffffffffffffff161461085157600080fd5b610859611e1e565b83816000018190525082816020019073ffffffffffffffffffffffffffffffffffffffff16908173ffffffffffffffffffffffffffffffffffffffff16815250508181604001819052506000816060019015159081151581525050806005856040516108c59190612722565b908152602001604051809103902060008201518160000190816108e8919061294b565b5060208201518160010160006101000a81548173ffffffffffffffffffffffffffffffffffffffff021916908373ffffffffffffffffffffffffffffffffffffffff1602179055506040820151816002019081610945919061294b565b5060608201518160030160006101000a81548160ff02191690831515021790555090505060068490806001815401808255809150506001900390600052602060002001600090919091909150908161099d919061294b565b5050505050565b600160009054906101000a900473ffffffffffffffffffffffffffffffffffffffff1673ffffffffffffffffffffffffffffffffffffffff163373ffffffffffffffffffffffffffffffffffffffff16146109fe57600080fd5b610a06611e5e565b83816000018190525082816020019073ffffffffffffffffffffffffffffffffffffffff16908173ffffffffffffffffffffffffffffffffffffffff168152505081816040018181525050600081606001901515908115158152505080600785604051610a739190612722565b90815260200160405180910390206000820151816000019081610a96919061294b565b5060208201518160010160006101000a81548173ffffffffffffffffffffffffffffffffffffffff021916908373ffffffffffffffffffffffffffffffffffffffff1602179055506040820151816002015560608201518160030160006101000a81548160ff021916908315150217905550905050600884908060018154018082558091505060019003906000526020600020016000909190919091509081610b3f919061294b565b5050505050565b6000600a80549050905090565b60006060806060600160009054906101000a900473ffffffffffffffffffffffffffffffffffffffff16600460026003828054610b8f90612768565b80601f0160208091040260200160405190810160405280929190818152602001828054610bbb90612768565b8015610c085780601f10610bdd57610100808354040283529160200191610c08565b820191906000526020600020905b815481529060010190602001808311610beb57829003601f168201915b50505050509250818054610c1b90612768565b80601f0160208091040260200160405190810160405280929190818152602001828054610c4790612768565b8015610c945780601f10610c6957610100808354040283529160200191610c94565b820191906000526020600020905b815481529060010190602001808311610c7757829003601f168201915b50505050509150808054610ca790612768565b80601f0160208091040260200160405190810160405280929190818152602001828054610cd390612768565b8015610d205780601f10610cf557610100808354040283529160200191610d20565b820191906000526020600020905b815481529060010190602001808311610d0357829003601f168201915b50505050509050935093509350935090919293565b6060600060606000610dec60068681548110610d5457610d53612a1d565b5b906000526020600020018054610d6990612768565b80601f0160208091040260200160405190810160405280929190818152602001828054610d9590612768565b8015610de25780601f10610db757610100808354040283529160200191610de2565b820191906000526020600020905b815481529060010190602001808311610dc557829003601f168201915b505050505061162f565b93509350935093509193509193565b600160009054906101000a900473ffffffffffffffffffffffffffffffffffffffff1673ffffffffffffffffffffffffffffffffffffffff163373ffffffffffffffffffffffffffffffffffffffff1614610e5557600080fd5b610e5d611e9e565b84816000019073ffffffffffffffffffffffffffffffffffffffff16908173ffffffffffffffffffffffffffffffffffffffff1681525050838160200181905250828160400181905250600081606001901515908115158152505081816080018190525080600b60008773ffffffffffffffffffffffffffffffffffffffff1673ffffffffffffffffffffffffffffffffffffffff16815260200190815260200160002060008201518160000160006101000a81548173ffffffffffffffffffffffffffffffffffffffff021916908373ffffffffffffffffffffffffffffffffffffffff1602179055506020820151816001019081610f5d919061294b565b506040820151816002019081610f73919061294b565b5060608201518160030160006101000a81548160ff0219169083151502179055506080820151816004019081610fa9919061294b565b50905050600c859080600181540180825580915050600190039060005260206000200160009091909190916101000a81548173ffffffffffffffffffffffffffffffffffffffff021916908373ffffffffffffffffffffffffffffffffffffffff1602179055505050505050565b6007816040516110279190612722565b908152602001604051809103902060010160009054906101000a900473ffffffffffffffffffffffffffffffffffffffff1673ffffffffffffffffffffffffffffffffffffffff163373ffffffffffffffffffffffffffffffffffffffff161461109057600080fd5b60016007826040516110a29190612722565b908152602001604051809103902060030160006101000a81548160ff02191690831515021790555050565b606060006060806000806060611120600a89815481106110f0576110ef612a1d565b5b9060005260206000200160009054906101000a900473ffffffffffffffffffffffffffffffffffffffff16611811565b9650965096509650965096509650919395979092949650565b600073ffffffffffffffffffffffffffffffffffffffff16600b60003373ffffffffffffffffffffffffffffffffffffffff1673ffffffffffffffffffffffffffffffffffffffff16815260200190815260200160002060000160009054906101000a900473ffffffffffffffffffffffffffffffffffffffff1673ffffffffffffffffffffffffffffffffffffffff16036111d457600080fd5b6001600b60003373ffffffffffffffffffffffffffffffffffffffff1673ffffffffffffffffffffffffffffffffffffffff16815260200190815260200160002060030160006101000a81548160ff021916908315150217905550565b606060008060006112e76008868154811061124f5761124e612a1d565b5b90600052602060002001805461126490612768565b80601f016020809104026020016040519081016040528092919081815260200182805461129090612768565b80156112dd5780601f106112b2576101008083540402835291602001916112dd565b820191906000526020600020905b8154815290600101906020018083116112c057829003601f168201915b5050505050611c71565b93509350935093509193509193565b600060608060006060600b60008773ffffffffffffffffffffffffffffffffffffffff1673ffffffffffffffffffffffffffffffffffffffff16815260200190815260200160002060000160009054906101000a900473ffffffffffffffffffffffffffffffffffffffff16600b60008873ffffffffffffffffffffffffffffffffffffffff1673ffffffffffffffffffffffffffffffffffffffff168152602001908152602001600020600101600b60008973ffffffffffffffffffffffffffffffffffffffff1673ffffffffffffffffffffffffffffffffffffffff168152602001908152602001600020600201600b60008a73ffffffffffffffffffffffffffffffffffffffff1673ffffffffffffffffffffffffffffffffffffffff16815260200190815260200160002060030160009054906101000a900460ff16600b60008b73ffffffffffffffffffffffffffffffffffffffff1673ffffffffffffffffffffffffffffffffffffffff16815260200190815260200160002060040183805461148490612768565b80601f01602080910402602001604051908101604052809291908181526020018280546114b090612768565b80156114fd5780601f106114d2576101008083540402835291602001916114fd565b820191906000526020600020905b8154815290600101906020018083116114e057829003601f168201915b5050505050935082805461151090612768565b80601f016020809104026020016040519081016040528092919081815260200182805461153c90612768565b80156115895780601f1061155e57610100808354040283529160200191611589565b820191906000526020600020905b81548152906001019060200180831161156c57829003601f168201915b5050505050925080805461159c90612768565b80601f01602080910402602001604051908101604052809291908181526020018280546115c890612768565b80156116155780601f106115ea57610100808354040283529160200191611615565b820191906000526020600020905b8154815290600101906020018083116115f857829003601f168201915b505050505090509450945094509450945091939590929450565b60606000606060006005856040516116479190612722565b90815260200160405180910390206000016005866040516116689190612722565b908152602001604051809103902060010160009054906101000a900473ffffffffffffffffffffffffffffffffffffffff166005876040516116aa9190612722565b90815260200160405180910390206002016005886040516116cb9190612722565b908152602001604051809103902060030160009054906101000a900460ff168380546116f690612768565b80601f016020809104026020016040519081016040528092919081815260200182805461172290612768565b801561176f5780601f106117445761010080835404028352916020019161176f565b820191906000526020600020905b81548152906001019060200180831161175257829003601f168201915b5050505050935081805461178290612768565b80601f01602080910402602001604051908101604052809291908181526020018280546117ae90612768565b80156117fb5780601f106117d0576101008083540402835291602001916117fb565b820191906000526020600020905b8154815290600101906020018083116117de57829003601f168201915b5050505050915093509350935093509193509193565b606060006060806000806060600960008973ffffffffffffffffffffffffffffffffffffffff1673ffffffffffffffffffffffffffffffffffffffff168152602001908152602001600020600001600960008a73ffffffffffffffffffffffffffffffffffffffff1673ffffffffffffffffffffffffffffffffffffffff16815260200190815260200160002060010160009054906101000a900473ffffffffffffffffffffffffffffffffffffffff16600960008b73ffffffffffffffffffffffffffffffffffffffff1673ffffffffffffffffffffffffffffffffffffffff168152602001908152602001600020600201600960008c73ffffffffffffffffffffffffffffffffffffffff1673ffffffffffffffffffffffffffffffffffffffff168152602001908152602001600020600301600960008d73ffffffffffffffffffffffffffffffffffffffff1673ffffffffffffffffffffffffffffffffffffffff16815260200190815260200160002060040160019054906101000a900460ff16600960008e73ffffffffffffffffffffffffffffffffffffffff1673ffffffffffffffffffffffffffffffffffffffff16815260200190815260200160002060040160009054906101000a900460ff16600960008f73ffffffffffffffffffffffffffffffffffffffff1673ffffffffffffffffffffffffffffffffffffffff168152602001908152602001600020600501868054611a3490612768565b80601f0160208091040260200160405190810160405280929190818152602001828054611a6090612768565b8015611aad5780601f10611a8257610100808354040283529160200191611aad565b820191906000526020600020905b815481529060010190602001808311611a9057829003601f168201915b50505050509650848054611ac090612768565b80601f0160208091040260200160405190810160405280929190818152602001828054611aec90612768565b8015611b395780601f10611b0e57610100808354040283529160200191611b39565b820191906000526020600020905b815481529060010190602001808311611b1c57829003601f168201915b50505050509450838054611b4c90612768565b80601f0160208091040260200160405190810160405280929190818152602001828054611b7890612768565b8015611bc55780601f10611b9a57610100808354040283529160200191611bc5565b820191906000526020600020905b815481529060010190602001808311611ba857829003601f168201915b50505050509350808054611bd890612768565b80601f0160208091040260200160405190810160405280929190818152602001828054611c0490612768565b8015611c515780601f10611c2657610100808354040283529160200191611c51565b820191906000526020600020905b815481529060010190602001808311611c3457829003601f168201915b505050505090509650965096509650965096509650919395979092949650565b60606000806000600785604051611c889190612722565b9081526020016040518091039020600001600786604051611ca99190612722565b908152602001604051809103902060010160009054906101000a900473ffffffffffffffffffffffffffffffffffffffff16600787604051611ceb9190612722565b908152602001604051809103902060020154600788604051611d0d9190612722565b908152602001604051809103902060030160009054906101000a900460ff16838054611d3890612768565b80601f0160208091040260200160405190810160405280929190818152602001828054611d6490612768565b8015611db15780601f10611d8657610100808354040283529160200191611db1565b820191906000526020600020905b815481529060010190602001808311611d9457829003601f168201915b5050505050935093509350935093509193509193565b6040518060e0016040528060608152602001600073ffffffffffffffffffffffffffffffffffffffff1681526020016060815260200160608152602001600015158152602001600015158152602001606081525090565b604051806080016040528060608152602001600073ffffffffffffffffffffffffffffffffffffffff168152602001606081526020016000151581525090565b604051806080016040528060608152602001600073ffffffffffffffffffffffffffffffffffffffff168152602001600081526020016000151581525090565b6040518060a00160405280600073ffffffffffffffffffffffffffffffffffffffff1681526020016060815260200160608152602001600015158152602001606081525090565b6000819050919050565b611ef881611ee5565b82525050565b6000602082019050611f136000830184611eef565b92915050565b6000604051905090565b600080fd5b600080fd5b600080fd5b600080fd5b6000601f19601f8301169050919050565b7f4e487b7100000000000000000000000000000000000000000000000000000000600052604160045260246000fd5b611f8082611f37565b810181811067ffffffffffffffff82111715611f9f57611f9e611f48565b5b80604052505050565b6000611fb2611f19565b9050611fbe8282611f77565b919050565b600067ffffffffffffffff821115611fde57611fdd611f48565b5b611fe782611f37565b9050602081019050919050565b82818337600083830152505050565b600061201661201184611fc3565b611fa8565b90508281526020810184848401111561203257612031611f32565b5b61203d848285611ff4565b509392505050565b600082601f83011261205a57612059611f2d565b5b813561206a848260208601612003565b91505092915050565b60006020828403121561208957612088611f23565b5b600082013567ffffffffffffffff8111156120a7576120a6611f28565b5b6120b384828501612045565b91505092915050565b600073ffffffffffffffffffffffffffffffffffffffff82169050919050565b60006120e7826120bc565b9050919050565b6120f7816120dc565b811461210257600080fd5b50565b600081359050612114816120ee565b92915050565b60008115159050919050565b61212f8161211a565b811461213a57600080fd5b50565b60008135905061214c81612126565b92915050565b60008060008060008060c0878903121561216f5761216e611f23565b5b600087013567ffffffffffffffff81111561218d5761218c611f28565b5b61219989828a01612045565b96505060206121aa89828a01612105565b955050604087013567ffffffffffffffff8111156121cb576121ca611f28565b5b6121d789828a01612045565b945050606087013567ffffffffffffffff8111156121f8576121f7611f28565b5b61220489828a01612045565b935050608061221589828a0161213d565b92505060a087013567ffffffffffffffff81111561223657612235611f28565b5b61224289828a01612045565b9150509295509295509295565b61225881611ee5565b811461226357600080fd5b50565b6000813590506122758161224f565b92915050565b60006020828403121561229157612290611f23565b5b600061229f84828501612266565b91505092915050565b6122b1816120dc565b82525050565b600081519050919050565b600082825260208201905092915050565b60005b838110156122f15780820151818401526020810190506122d6565b60008484015250505050565b6000612308826122b7565b61231281856122c2565b93506123228185602086016122d3565b61232b81611f37565b840191505092915050565b61233f8161211a565b82525050565b600060a08201905061235a60008301886122a8565b818103602083015261236c81876122fd565b9050818103604083015261238081866122fd565b905061238f6060830185612336565b81810360808301526123a181846122fd565b90509695505050505050565b6000806000606084860312156123c6576123c5611f23565b5b600084013567ffffffffffffffff8111156123e4576123e3611f28565b5b6123f086828701612045565b935050602061240186828701612105565b925050604084013567ffffffffffffffff81111561242257612421611f28565b5b61242e86828701612045565b9150509250925092565b60008060006060848603121561245157612450611f23565b5b600084013567ffffffffffffffff81111561246f5761246e611f28565b5b61247b86828701612045565b935050602061248c86828701612105565b925050604061249d86828701612266565b9150509250925092565b60006080820190506124bc60008301876122a8565b81810360208301526124ce81866122fd565b905081810360408301526124e281856122fd565b905081810360608301526124f681846122fd565b905095945050505050565b6000608082019050818103600083015261251b81876122fd565b905061252a60208301866122a8565b818103604083015261253c81856122fd565b905061254b6060830184612336565b95945050505050565b6000806000806080858703121561256e5761256d611f23565b5b600061257c87828801612105565b945050602085013567ffffffffffffffff81111561259d5761259c611f28565b5b6125a987828801612045565b935050604085013567ffffffffffffffff8111156125ca576125c9611f28565b5b6125d687828801612045565b925050606085013567ffffffffffffffff8111156125f7576125f6611f28565b5b61260387828801612045565b91505092959194509250565b600060e0820190508181036000830152612629818a6122fd565b905061263860208301896122a8565b818103604083015261264a81886122fd565b9050818103606083015261265e81876122fd565b905061266d6080830186612336565b61267a60a0830185612336565b81810360c083015261268c81846122fd565b905098975050505050505050565b600060808201905081810360008301526126b481876122fd565b90506126c360208301866122a8565b6126d06040830185611eef565b6126dd6060830184612336565b95945050505050565b600081905092915050565b60006126fc826122b7565b61270681856126e6565b93506127168185602086016122d3565b80840191505092915050565b600061272e82846126f1565b915081905092915050565b7f4e487b7100000000000000000000000000000000000000000000000000000000600052602260045260246000fd5b6000600282049050600182168061278057607f821691505b60208210810361279357612792612739565b5b50919050565b60008190508160005260206000209050919050565b60006020601f8301049050919050565b60008160020a8302905092915050565b6000600883026127fe7fffffffffffffffffffffffffffffffffffffffffffffffffffffffffffffffff826127be565b61280886836127be565b95508019841693508086168417925050509392505050565b6000819050919050565b600061284561284061283b84611ee5565b612820565b611ee5565b9050919050565b6000819050919050565b61285f8361282a565b61287361286b8261284c565b8484546127ce565b825550505050565b600090565b61288861287b565b612893818484612856565b505050565b5b818110156128b7576128ac600082612880565b600181019050612899565b5050565b601f8211156128fc576128cd81612799565b6128d6846127ae565b810160208510156128e5578190505b6128f96128f1856127ae565b830182612898565b50505b505050565b60008160020a8304905092915050565b600061292260001984600802612901565b1980831691505092915050565b600061293b8383612911565b9150826002028217905092915050565b612954826122b7565b67ffffffffffffffff81111561296d5761296c611f48565b5b6129778254612768565b6129828282856128bb565b600060209050601f8311600181146129b557600084156129a3578287015190505b6129ad858261292f565b865550612a15565b601f1984166129c386612799565b60005b828110156129eb578489015182556001820191506020850194506020810190506129c6565b86831015612a085784890151612a04601f891682612911565b8355505b6001600288020188555050505b505050505050565b7f4e487b7100000000000000000000000000000000000000000000000000000000600052603260045260246000fdfea264697066735822122089e9739bf125f5c71e3d4df6f67087fc9fc01f93f4d21cc276b8b8da9aa07aa764736f6c63430008120033",
  "immutableReferences": {},
  "source": "// SPDX-License-Identifier: MIT\npragma solidity >=0.4.22 <0.9.0;\n\ncontract Employee {\n  address admin;\n  address employee_address;\n  string description;\n  string location;\n  string name;\n\n  constructor(\n    address _admin,\n    address _employee_address,\n    string memory _name,\n    string memory _description,\n    string memory _location\n  ) {\n    admin = _admin;\n    name = _name;\n    employee_address = _employee_address;\n    description = _description;\n    location = _location;\n  }\n\n  modifier OnlyEmployee() {\n    require(msg.sender == employee_address);\n    _;\n  }\n\n  function getEmployeeInfo()\n    public\n    view\n    returns (\n      address,\n      string memory,\n      string memory,\n      string memory\n    )\n  {\n    return (employee_address, name, description, location);\n  }\n\n   /*********************************************************SKILL SECTION**********************************************************/\n\n  struct skillInfo {\n    string name;\n    address organization;\n    string experience;\n    bool endorsed;\n  }\n\n  mapping(string => skillInfo) skillmap;\n  string[] skills;\n\n  function addskill(\n    string memory _name,\n    address _organization,\n    string memory _experience\n  ) public OnlyEmployee {\n    skillInfo memory newskillInfo;\n    newskillInfo.name = _name;\n    newskillInfo.organization = _organization;\n    newskillInfo.experience = _experience;\n    newskillInfo.endorsed = false;\n    skillmap[_name] = newskillInfo;\n    skills.push(_name);\n  }\n\n  function endorseSkill(string memory _name) public {\n    require(msg.sender == skillmap[_name].organization);\n    skillmap[_name].endorsed = true;\n  }\n\n  function getSkillByName(string memory _name)\n    private\n    view\n    returns (\n      string memory,\n      address,\n      string memory,\n      bool\n    )\n  {\n    return (\n      skillmap[_name].name,\n      skillmap[_name].organization,\n      skillmap[_name].experience,\n      skillmap[_name].endorsed\n    );\n  }\n\n  function getSkillCount() public view returns (uint256) {\n    return skills.length;\n  }\n\n  function getskillByIndex(uint256 _index)\n    public\n    view\n    returns (\n      string memory,\n      address,\n      string memory,\n      bool\n    )\n  {\n    return getSkillByName(skills[_index]);\n  }\n\n  /*********************************************************CERTIFICATION SECTION**********************************************************/\n\n  struct certificationInfo {\n    string name;\n    address organization;\n    uint256 score;\n    bool endorsed;\n  }\n\n  mapping(string => certificationInfo) certificationmap;\n  string[] certifications;\n\n  function addCertification(\n    string memory _name,\n    address _organization,\n    uint256 _score\n  ) public OnlyEmployee {\n    certificationInfo memory newcertificationInfo;\n    newcertificationInfo.name = _name;\n    newcertificationInfo.organization = _organization;\n    newcertificationInfo.score = _score;\n    newcertificationInfo.endorsed = false;\n    certificationmap[_name] = newcertificationInfo;\n    certifications.push(_name);\n  }\n\n  function endorseCertification(string memory _name) public {\n    require(msg.sender == certificationmap[_name].organization);\n    certificationmap[_name].endorsed = true;\n  }\n\n  function getCertificationByName(string memory _name)\n    private\n    view\n    returns (\n      string memory,\n      address,\n      uint256,\n      bool\n    )\n  {\n    return (\n      certificationmap[_name].name,\n      certificationmap[_name].organization,\n      certificationmap[_name].score,\n      certificationmap[_name].endorsed\n    );\n  }\n\n  function getCertificationCount() public view returns (uint256) {\n    return certifications.length;\n  }\n\n  function getCertificationByIndex(uint256 _index)\n    public\n    view\n    returns (\n      string memory,\n      address,\n      uint256,\n      bool\n    )\n  {\n    return getCertificationByName(certifications[_index]);\n  }\n\n  /********************************************************************Work Experience Section********************************************************************/\n\n  struct workexpInfo {\n    string role;\n    address organization;\n    string startdate;\n    string enddate;\n    bool endorsed;\n    bool current;\n    string description;\n  }\n\n  mapping(address => workexpInfo) workexpmap;\n  address[] workexps;\n\n  function addWorkExp(\n    string memory _role,\n    address _organization,\n    string memory _startdate,\n    string memory _enddate,\n    bool _current,\n    string memory _description\n  ) public OnlyEmployee {\n    workexpInfo memory newworkexp;\n    newworkexp.role = _role;\n    newworkexp.organization = _organization;\n    newworkexp.startdate = _startdate;\n    newworkexp.enddate = _enddate;\n    newworkexp.endorsed = false;\n    newworkexp.description = _description;\n    newworkexp.current = _current;\n    workexpmap[_organization] = newworkexp;\n    workexps.push(_organization);\n  }\n\n  function endorseWorkExp() public {\n    require(workexpmap[msg.sender].organization != address(0x0));\n    workexpmap[msg.sender].endorsed = true;\n  }\n\n  function getWorkExpByAddress(address _organization)\n    private\n    view\n    returns (\n      string memory,\n      address,\n      string memory,\n      string memory,\n      bool,\n      bool,\n      string memory\n    )\n  {\n    return (\n      workexpmap[_organization].role,\n      workexpmap[_organization].organization,\n      workexpmap[_organization].startdate,\n      workexpmap[_organization].enddate,\n      workexpmap[_organization].current,\n      workexpmap[_organization].endorsed,\n      workexpmap[_organization].description\n    );\n  }\n\n  function getWorkExpCount() public view returns (uint256) {\n    return workexps.length;\n  }\n\n  function getWorkExpByIndex(uint256 _index)\n    public\n    view\n    returns (\n      string memory,\n      address,\n      string memory,\n      string memory,\n      bool,\n      bool,\n      string memory\n    )\n  {\n    return getWorkExpByAddress(workexps[_index]);\n  }\n\n  /********************************************************************Education Section********************************************************************/\n\n  struct educationInfo {\n    address institute;\n    string startdate;\n    string enddate;\n    bool endorsed;\n    string description;\n  }\n\n  mapping(address => educationInfo) educationmap;\n  address[] educations;\n\n  function addEducation(\n    address _institute,\n    string memory _startdate,\n    string memory _enddate,\n    string memory _description\n  ) public OnlyEmployee {\n    educationInfo memory newEducation;\n    newEducation.institute = _institute;\n    newEducation.startdate = _startdate;\n    newEducation.enddate = _enddate;\n    newEducation.endorsed = false;\n    newEducation.description = _description;\n    educationmap[_institute] = newEducation;\n    educations.push(_institute);\n  }\n\n  function endorseEducation() public {\n    require(educationmap[msg.sender].institute != address(0x0));\n    educationmap[msg.sender].endorsed = true;\n  }\n\n  function getEducationByAddress(address _institute)\n    private\n    view\n    returns (\n      address,\n      string memory,\n      string memory,\n      bool,\n      string memory\n    )\n  {\n    return (\n      educationmap[_institute].institute,\n      educationmap[_institute].startdate,\n      educationmap[_institute].enddate,\n      educationmap[_institute].endorsed,\n      educationmap[_institute].description\n    );\n  }\n\n  function getEducationCount() public view returns (uint256) {\n    return educations.length;\n  }\n\n  function getEducationByIndex(uint256 _index)\n    public\n    view\n    returns (\n      address,\n      string memory,\n      string memory,\n      bool,\n      string memory\n    )\n  {\n    return getEducationByAddress(educations[_index]);\n  }\n}\n\n",
  "sourcePath": "E:\\skillset\\src\\contracts\\Employee.sol",
  "compiler": {
    "name": "solc",
    "version": "0.8.18+commit.87f61d96.Emscripten.clang"
  },
  "schemaVersion": "3.4.12",
  "updatedAt": "2023-03-08T15:58:40.957Z",
  "devdoc": {
    "kind": "dev",
    "methods": {},
    "version": 1
  },
  "userdoc": {
    "kind": "user",
    "methods": {},
    "version": 1
  }
}