{
  "contractName": "Employee",
  "abi": [
    {
      "inputs": [
        {
          "internalType": "address",
          "name": "_admin",
          "type": "address"
        },
        {
          "internalType": "address",
          "name": "_employee_address",
          "type": "address"
        },
        {
          "internalType": "string",
          "name": "_name",
          "type": "string"
        },
        {
          "internalType": "string",
          "name": "_description",
          "type": "string"
        },
        {
          "internalType": "string",
          "name": "_location",
          "type": "string"
        },
        {
          "internalType": "string",
          "name": "_email",
          "type": "string"
        }
      ],
      "stateMutability": "nonpayable",
      "type": "constructor"
    },
    {
      "inputs": [],
      "name": "getEmployeeInfo",
      "outputs": [
        {
          "internalType": "address",
          "name": "",
          "type": "address"
        },
        {
          "internalType": "string",
          "name": "",
          "type": "string"
        },
        {
          "internalType": "string",
          "name": "",
          "type": "string"
        },
        {
          "internalType": "string",
          "name": "",
          "type": "string"
        },
        {
          "internalType": "string",
          "name": "",
          "type": "string"
        }
      ],
      "stateMutability": "view",
      "type": "function"
    },
    {
      "inputs": [
        {
          "internalType": "string",
          "name": "_name",
          "type": "string"
        },
        {
          "internalType": "address",
          "name": "_organization",
          "type": "address"
        },
        {
          "internalType": "string",
          "name": "_experience",
          "type": "string"
        }
      ],
      "name": "addskill",
      "outputs": [],
      "stateMutability": "nonpayable",
      "type": "function"
    },
    {
      "inputs": [
        {
          "internalType": "string",
          "name": "_name",
          "type": "string"
        }
      ],
      "name": "endorseSkill",
      "outputs": [],
      "stateMutability": "nonpayable",
      "type": "function"
    },
    {
      "inputs": [],
      "name": "getSkillCount",
      "outputs": [
        {
          "internalType": "uint256",
          "name": "",
          "type": "uint256"
        }
      ],
      "stateMutability": "view",
      "type": "function"
    },
    {
      "inputs": [
        {
          "internalType": "uint256",
          "name": "_index",
          "type": "uint256"
        }
      ],
      "name": "getskillByIndex",
      "outputs": [
        {
          "internalType": "string",
          "name": "",
          "type": "string"
        },
        {
          "internalType": "address",
          "name": "",
          "type": "address"
        },
        {
          "internalType": "string",
          "name": "",
          "type": "string"
        },
        {
          "internalType": "bool",
          "name": "",
          "type": "bool"
        }
      ],
      "stateMutability": "view",
      "type": "function"
    },
    {
      "inputs": [
        {
          "internalType": "string",
          "name": "_name",
          "type": "string"
        },
        {
          "internalType": "address",
          "name": "_organization",
          "type": "address"
        },
        {
          "internalType": "uint256",
          "name": "_score",
          "type": "uint256"
        }
      ],
      "name": "addCertification",
      "outputs": [],
      "stateMutability": "nonpayable",
      "type": "function"
    },
    {
      "inputs": [
        {
          "internalType": "string",
          "name": "_name",
          "type": "string"
        }
      ],
      "name": "endorseCertification",
      "outputs": [],
      "stateMutability": "nonpayable",
      "type": "function"
    },
    {
      "inputs": [],
      "name": "getCertificationCount",
      "outputs": [
        {
          "internalType": "uint256",
          "name": "",
          "type": "uint256"
        }
      ],
      "stateMutability": "view",
      "type": "function"
    },
    {
      "inputs": [
        {
          "internalType": "uint256",
          "name": "_index",
          "type": "uint256"
        }
      ],
      "name": "getCertificationByIndex",
      "outputs": [
        {
          "internalType": "string",
          "name": "",
          "type": "string"
        },
        {
          "internalType": "address",
          "name": "",
          "type": "address"
        },
        {
          "internalType": "uint256",
          "name": "",
          "type": "uint256"
        },
        {
          "internalType": "bool",
          "name": "",
          "type": "bool"
        }
      ],
      "stateMutability": "view",
      "type": "function"
    },
    {
      "inputs": [
        {
          "internalType": "string",
          "name": "_role",
          "type": "string"
        },
        {
          "internalType": "address",
          "name": "_organization",
          "type": "address"
        },
        {
          "internalType": "string",
          "name": "_startdate",
          "type": "string"
        },
        {
          "internalType": "string",
          "name": "_enddate",
          "type": "string"
        },
        {
          "internalType": "bool",
          "name": "_current",
          "type": "bool"
        },
        {
          "internalType": "string",
          "name": "_description",
          "type": "string"
        }
      ],
      "name": "addWorkExp",
      "outputs": [],
      "stateMutability": "nonpayable",
      "type": "function"
    },
    {
      "inputs": [],
      "name": "endorseWorkExp",
      "outputs": [],
      "stateMutability": "nonpayable",
      "type": "function"
    },
    {
      "inputs": [],
      "name": "getWorkExpCount",
      "outputs": [
        {
          "internalType": "uint256",
          "name": "",
          "type": "uint256"
        }
      ],
      "stateMutability": "view",
      "type": "function"
    },
    {
      "inputs": [
        {
          "internalType": "uint256",
          "name": "_index",
          "type": "uint256"
        }
      ],
      "name": "getWorkExpByIndex",
      "outputs": [
        {
          "internalType": "string",
          "name": "",
          "type": "string"
        },
        {
          "internalType": "address",
          "name": "",
          "type": "address"
        },
        {
          "internalType": "string",
          "name": "",
          "type": "string"
        },
        {
          "internalType": "string",
          "name": "",
          "type": "string"
        },
        {
          "internalType": "bool",
          "name": "",
          "type": "bool"
        },
        {
          "internalType": "bool",
          "name": "",
          "type": "bool"
        },
        {
          "internalType": "string",
          "name": "",
          "type": "string"
        }
      ],
      "stateMutability": "view",
      "type": "function"
    },
    {
      "inputs": [
        {
          "internalType": "address",
          "name": "_institute",
          "type": "address"
        },
        {
          "internalType": "string",
          "name": "_startdate",
          "type": "string"
        },
        {
          "internalType": "string",
          "name": "_enddate",
          "type": "string"
        },
        {
          "internalType": "string",
          "name": "_description",
          "type": "string"
        }
      ],
      "name": "addEducation",
      "outputs": [],
      "stateMutability": "nonpayable",
      "type": "function"
    },
    {
      "inputs": [],
      "name": "endorseEducation",
      "outputs": [],
      "stateMutability": "nonpayable",
      "type": "function"
    },
    {
      "inputs": [],
      "name": "getEducationCount",
      "outputs": [
        {
          "internalType": "uint256",
          "name": "",
          "type": "uint256"
        }
      ],
      "stateMutability": "view",
      "type": "function"
    },
    {
      "inputs": [
        {
          "internalType": "uint256",
          "name": "_index",
          "type": "uint256"
        }
      ],
      "name": "getEducationByIndex",
      "outputs": [
        {
          "internalType": "address",
          "name": "",
          "type": "address"
        },
        {
          "internalType": "string",
          "name": "",
          "type": "string"
        },
        {
          "internalType": "string",
          "name": "",
          "type": "string"
        },
        {
          "internalType": "bool",
          "name": "",
          "type": "bool"
        },
        {
          "internalType": "string",
          "name": "",
          "type": "string"
        }
      ],
      "stateMutability": "view",
      "type": "function"
    }
  ],
  "bytecode": "0x60806040523480156200001157600080fd5b506040516200340538038062003405833981810160405281019062000037919062000304565b856000806101000a81548173ffffffffffffffffffffffffffffffffffffffff021916908373ffffffffffffffffffffffffffffffffffffffff16021790555083600490816200008891906200066d565b5084600160006101000a81548173ffffffffffffffffffffffffffffffffffffffff021916908373ffffffffffffffffffffffffffffffffffffffff1602179055508260029081620000db91906200066d565b508160039081620000ed91906200066d565b508060059081620000ff91906200066d565b5050505050505062000754565b6000604051905090565b600080fd5b600080fd5b600073ffffffffffffffffffffffffffffffffffffffff82169050919050565b60006200014d8262000120565b9050919050565b6200015f8162000140565b81146200016b57600080fd5b50565b6000815190506200017f8162000154565b92915050565b600080fd5b600080fd5b6000601f19601f8301169050919050565b7f4e487b7100000000000000000000000000000000000000000000000000000000600052604160045260246000fd5b620001da826200018f565b810181811067ffffffffffffffff82111715620001fc57620001fb620001a0565b5b80604052505050565b6000620002116200010c565b90506200021f8282620001cf565b919050565b600067ffffffffffffffff821115620002425762000241620001a0565b5b6200024d826200018f565b9050602081019050919050565b60005b838110156200027a5780820151818401526020810190506200025d565b60008484015250505050565b60006200029d620002978462000224565b62000205565b905082815260208101848484011115620002bc57620002bb6200018a565b5b620002c98482856200025a565b509392505050565b600082601f830112620002e957620002e862000185565b5b8151620002fb84826020860162000286565b91505092915050565b60008060008060008060c0878903121562000324576200032362000116565b5b60006200033489828a016200016e565b96505060206200034789828a016200016e565b955050604087015167ffffffffffffffff8111156200036b576200036a6200011b565b5b6200037989828a01620002d1565b945050606087015167ffffffffffffffff8111156200039d576200039c6200011b565b5b620003ab89828a01620002d1565b935050608087015167ffffffffffffffff811115620003cf57620003ce6200011b565b5b620003dd89828a01620002d1565b92505060a087015167ffffffffffffffff8111156200040157620004006200011b565b5b6200040f89828a01620002d1565b9150509295509295509295565b600081519050919050565b7f4e487b7100000000000000000000000000000000000000000000000000000000600052602260045260246000fd5b600060028204905060018216806200046f57607f821691505b60208210810362000485576200048462000427565b5b50919050565b60008190508160005260206000209050919050565b60006020601f8301049050919050565b60008160020a8302905092915050565b600060088302620004f27fffffffffffffffffffffffffffffffffffffffffffffffffffffffffffffffff82620004b0565b620004fe8683620004b0565b95508019841693508086168417925050509392505050565b6000819050919050565b6000819050919050565b60006200054b620005456200053f8462000516565b62000520565b62000516565b9050919050565b6000819050919050565b62000567836200052a565b6200057f620005768262000552565b848454620004c0565b825550505050565b600090565b6200059662000587565b620005a38184846200055c565b505050565b5b81811015620005cb57620005bf6000826200058c565b600181019050620005a9565b5050565b601f8211156200061a57620005e4816200048b565b620005ef84620004a0565b81016020851015620005ff578190505b620006176200060e85620004a0565b830182620005a8565b50505b505050565b60008160020a8304905092915050565b600062000642600019846008026200061f565b1980831691505092915050565b60006200065d83836200062f565b9150826002028217905092915050565b62000678826200041c565b67ffffffffffffffff811115620006945762000693620001a0565b5b620006a0825462000456565b620006ad828285620005cf565b600060209050601f831160018114620006e55760008415620006d0578287015190505b620006dc85826200064f565b8655506200074c565b601f198416620006f5866200048b565b60005b828110156200071f57848901518255600182019150602085019450602081019050620006f8565b868310156200073f57848901516200073b601f8916826200062f565b8355505b6001600288020188555050505b505050505050565b612ca180620007646000396000f3fe608060405234801561001057600080fd5b5060043610610128576000357c0100000000000000000000000000000000000000000000000000000000900480637b1d2d00116100bf578063c07f7d161161008e578063c07f7d16146102a8578063cf6431c6146102c4578063d57e0ad6146102e0578063f5e616a614610316578063fee7989e1461032057610128565b80637b1d2d001461021957806394fb3da714610235578063a3e3bf7d14610253578063adb8bfd11461027557610128565b8063542047a0116100fb578063542047a01461018f5780636212fa02146101ab578063645f29a8146101c957806368d91c85146101fd57610128565b806305f53b291461012d5780632e1083d01461014b57806344afd1341461016757806344f034ae14610185575b600080fd5b610135610353565b604051610142919061209c565b60405180910390f35b61016560048036038101906101609190612211565b610360565b005b61016f610416565b60405161017c919061209c565b60405180910390f35b61018d610423565b005b6101a960048036038101906101a491906122f0565b61051b565b005b6101b3610893565b6040516101c0919061209c565b60405180910390f35b6101e360048036038101906101de9190612419565b6108a0565b6040516101f49594939291906124e3565b60405180910390f35b6102176004803603810190610212919061254b565b610903565b005b610233600480360381019061022e91906125d6565b610ab0565b005b61023d610c52565b60405161024a919061209c565b60405180910390f35b61025b610c5f565b60405161026c959493929190612645565b60405180910390f35b61028f600480360381019061028a9190612419565b610ed3565b60405161029f94939291906126b4565b60405180910390f35b6102c260048036038101906102bd9190612707565b610f99565b005b6102de60048036038101906102d99190612211565b6111b5565b005b6102fa60048036038101906102f59190612419565b61126b565b60405161030d97969594939291906127c2565b60405180910390f35b61031e6112d7565b005b61033a60048036038101906103359190612419565b6113cf565b60405161034a949392919061284d565b60405180910390f35b6000600780549050905090565b60068160405161037091906128d5565b908152602001604051809103902060010160009054906101000a900473ffffffffffffffffffffffffffffffffffffffff1673ffffffffffffffffffffffffffffffffffffffff163373ffffffffffffffffffffffffffffffffffffffff16146103d957600080fd5b60016006826040516103eb91906128d5565b908152602001604051809103902060030160006101000a81548160ff02191690831515021790555050565b6000600980549050905090565b600073ffffffffffffffffffffffffffffffffffffffff16600a60003373ffffffffffffffffffffffffffffffffffffffff1673ffffffffffffffffffffffffffffffffffffffff16815260200190815260200160002060010160009054906101000a900473ffffffffffffffffffffffffffffffffffffffff1673ffffffffffffffffffffffffffffffffffffffff16036104be57600080fd5b6001600a60003373ffffffffffffffffffffffffffffffffffffffff1673ffffffffffffffffffffffffffffffffffffffff16815260200190815260200160002060040160006101000a81548160ff021916908315150217905550565b600160009054906101000a900473ffffffffffffffffffffffffffffffffffffffff1673ffffffffffffffffffffffffffffffffffffffff163373ffffffffffffffffffffffffffffffffffffffff161461057557600080fd5b8473ffffffffffffffffffffffffffffffffffffffff16600a60008773ffffffffffffffffffffffffffffffffffffffff1673ffffffffffffffffffffffffffffffffffffffff16815260200190815260200160002060010160009054906101000a900473ffffffffffffffffffffffffffffffffffffffff1673ffffffffffffffffffffffffffffffffffffffff1603610645576040517f08c379a000000000000000000000000000000000000000000000000000000000815260040161063c90612938565b60405180910390fd5b61064d611f65565b86816000018190525085816020019073ffffffffffffffffffffffffffffffffffffffff16908173ffffffffffffffffffffffffffffffffffffffff16815250508481604001819052506000816080019015159081151581525050818160c0018190525060011515831515036106ea57828160a0019015159081151581525050604051806020016040528060008152508160600181905250610705565b83816060018190525060008160a00190151590811515815250505b80600a60008873ffffffffffffffffffffffffffffffffffffffff1673ffffffffffffffffffffffffffffffffffffffff168152602001908152602001600020600082015181600001908161075a9190612b6a565b5060208201518160010160006101000a81548173ffffffffffffffffffffffffffffffffffffffff021916908373ffffffffffffffffffffffffffffffffffffffff16021790555060408201518160020190816107b79190612b6a565b5060608201518160030190816107cd9190612b6a565b5060808201518160040160006101000a81548160ff02191690831515021790555060a08201518160040160016101000a81548160ff02191690831515021790555060c08201518160050190816108239190612b6a565b50905050600b869080600181540180825580915050600190039060005260206000200160009091909190916101000a81548173ffffffffffffffffffffffffffffffffffffffff021916908373ffffffffffffffffffffffffffffffffffffffff16021790555050505050505050565b6000600d80549050905090565b6000606080600060606108f0600d87815481106108c0576108bf612c3c565b5b9060005260206000200160009054906101000a900473ffffffffffffffffffffffffffffffffffffffff16611494565b9450945094509450945091939590929450565b600160009054906101000a900473ffffffffffffffffffffffffffffffffffffffff1673ffffffffffffffffffffffffffffffffffffffff163373ffffffffffffffffffffffffffffffffffffffff161461095d57600080fd5b610965611fbc565b83816000018190525082816020019073ffffffffffffffffffffffffffffffffffffffff16908173ffffffffffffffffffffffffffffffffffffffff16815250508181604001819052506000816060019015159081151581525050806006856040516109d191906128d5565b908152602001604051809103902060008201518160000190816109f49190612b6a565b5060208201518160010160006101000a81548173ffffffffffffffffffffffffffffffffffffffff021916908373ffffffffffffffffffffffffffffffffffffffff1602179055506040820151816002019081610a519190612b6a565b5060608201518160030160006101000a81548160ff021916908315150217905550905050600784908060018154018082558091505060019003906000526020600020016000909190919091509081610aa99190612b6a565b5050505050565b600160009054906101000a900473ffffffffffffffffffffffffffffffffffffffff1673ffffffffffffffffffffffffffffffffffffffff163373ffffffffffffffffffffffffffffffffffffffff1614610b0a57600080fd5b610b12611ffc565b83816000018190525082816020019073ffffffffffffffffffffffffffffffffffffffff16908173ffffffffffffffffffffffffffffffffffffffff168152505081816040018181525050600081606001901515908115158152505080600885604051610b7f91906128d5565b90815260200160405180910390206000820151816000019081610ba29190612b6a565b5060208201518160010160006101000a81548173ffffffffffffffffffffffffffffffffffffffff021916908373ffffffffffffffffffffffffffffffffffffffff1602179055506040820151816002015560608201518160030160006101000a81548160ff021916908315150217905550905050600984908060018154018082558091505060019003906000526020600020016000909190919091509081610c4b9190612b6a565b5050505050565b6000600b80549050905090565b6000606080606080600160009054906101000a900473ffffffffffffffffffffffffffffffffffffffff166004600260036005838054610c9e90612987565b80601f0160208091040260200160405190810160405280929190818152602001828054610cca90612987565b8015610d175780601f10610cec57610100808354040283529160200191610d17565b820191906000526020600020905b815481529060010190602001808311610cfa57829003601f168201915b50505050509350828054610d2a90612987565b80601f0160208091040260200160405190810160405280929190818152602001828054610d5690612987565b8015610da35780601f10610d7857610100808354040283529160200191610da3565b820191906000526020600020905b815481529060010190602001808311610d8657829003601f168201915b50505050509250818054610db690612987565b80601f0160208091040260200160405190810160405280929190818152602001828054610de290612987565b8015610e2f5780601f10610e0457610100808354040283529160200191610e2f565b820191906000526020600020905b815481529060010190602001808311610e1257829003601f168201915b50505050509150808054610e4290612987565b80601f0160208091040260200160405190810160405280929190818152602001828054610e6e90612987565b8015610ebb5780601f10610e9057610100808354040283529160200191610ebb565b820191906000526020600020905b815481529060010190602001808311610e9e57829003601f168201915b50505050509050945094509450945094509091929394565b6060600060606000610f8a60078681548110610ef257610ef1612c3c565b5b906000526020600020018054610f0790612987565b80601f0160208091040260200160405190810160405280929190818152602001828054610f3390612987565b8015610f805780601f10610f5557610100808354040283529160200191610f80565b820191906000526020600020905b815481529060010190602001808311610f6357829003601f168201915b50505050506117cd565b93509350935093509193509193565b600160009054906101000a900473ffffffffffffffffffffffffffffffffffffffff1673ffffffffffffffffffffffffffffffffffffffff163373ffffffffffffffffffffffffffffffffffffffff1614610ff357600080fd5b610ffb61203c565b84816000019073ffffffffffffffffffffffffffffffffffffffff16908173ffffffffffffffffffffffffffffffffffffffff1681525050838160200181905250828160400181905250600081606001901515908115158152505081816080018190525080600c60008773ffffffffffffffffffffffffffffffffffffffff1673ffffffffffffffffffffffffffffffffffffffff16815260200190815260200160002060008201518160000160006101000a81548173ffffffffffffffffffffffffffffffffffffffff021916908373ffffffffffffffffffffffffffffffffffffffff16021790555060208201518160010190816110fb9190612b6a565b5060408201518160020190816111119190612b6a565b5060608201518160030160006101000a81548160ff02191690831515021790555060808201518160040190816111479190612b6a565b50905050600d859080600181540180825580915050600190039060005260206000200160009091909190916101000a81548173ffffffffffffffffffffffffffffffffffffffff021916908373ffffffffffffffffffffffffffffffffffffffff1602179055505050505050565b6008816040516111c591906128d5565b908152602001604051809103902060010160009054906101000a900473ffffffffffffffffffffffffffffffffffffffff1673ffffffffffffffffffffffffffffffffffffffff163373ffffffffffffffffffffffffffffffffffffffff161461122e57600080fd5b600160088260405161124091906128d5565b908152602001604051809103902060030160006101000a81548160ff02191690831515021790555050565b6060600060608060008060606112be600b898154811061128e5761128d612c3c565b5b9060005260206000200160009054906101000a900473ffffffffffffffffffffffffffffffffffffffff166119af565b9650965096509650965096509650919395979092949650565b600073ffffffffffffffffffffffffffffffffffffffff16600c60003373ffffffffffffffffffffffffffffffffffffffff1673ffffffffffffffffffffffffffffffffffffffff16815260200190815260200160002060000160009054906101000a900473ffffffffffffffffffffffffffffffffffffffff1673ffffffffffffffffffffffffffffffffffffffff160361137257600080fd5b6001600c60003373ffffffffffffffffffffffffffffffffffffffff1673ffffffffffffffffffffffffffffffffffffffff16815260200190815260200160002060030160006101000a81548160ff021916908315150217905550565b60606000806000611485600986815481106113ed576113ec612c3c565b5b90600052602060002001805461140290612987565b80601f016020809104026020016040519081016040528092919081815260200182805461142e90612987565b801561147b5780601f106114505761010080835404028352916020019161147b565b820191906000526020600020905b81548152906001019060200180831161145e57829003601f168201915b5050505050611e0f565b93509350935093509193509193565b600060608060006060600c60008773ffffffffffffffffffffffffffffffffffffffff1673ffffffffffffffffffffffffffffffffffffffff16815260200190815260200160002060000160009054906101000a900473ffffffffffffffffffffffffffffffffffffffff16600c60008873ffffffffffffffffffffffffffffffffffffffff1673ffffffffffffffffffffffffffffffffffffffff168152602001908152602001600020600101600c60008973ffffffffffffffffffffffffffffffffffffffff1673ffffffffffffffffffffffffffffffffffffffff168152602001908152602001600020600201600c60008a73ffffffffffffffffffffffffffffffffffffffff1673ffffffffffffffffffffffffffffffffffffffff16815260200190815260200160002060030160009054906101000a900460ff16600c60008b73ffffffffffffffffffffffffffffffffffffffff1673ffffffffffffffffffffffffffffffffffffffff16815260200190815260200160002060040183805461162290612987565b80601f016020809104026020016040519081016040528092919081815260200182805461164e90612987565b801561169b5780601f106116705761010080835404028352916020019161169b565b820191906000526020600020905b81548152906001019060200180831161167e57829003601f168201915b505050505093508280546116ae90612987565b80601f01602080910402602001604051908101604052809291908181526020018280546116da90612987565b80156117275780601f106116fc57610100808354040283529160200191611727565b820191906000526020600020905b81548152906001019060200180831161170a57829003601f168201915b5050505050925080805461173a90612987565b80601f016020809104026020016040519081016040528092919081815260200182805461176690612987565b80156117b35780601f10611788576101008083540402835291602001916117b3565b820191906000526020600020905b81548152906001019060200180831161179657829003601f168201915b505050505090509450945094509450945091939590929450565b60606000606060006006856040516117e591906128d5565b908152602001604051809103902060000160068660405161180691906128d5565b908152602001604051809103902060010160009054906101000a900473ffffffffffffffffffffffffffffffffffffffff1660068760405161184891906128d5565b908152602001604051809103902060020160068860405161186991906128d5565b908152602001604051809103902060030160009054906101000a900460ff1683805461189490612987565b80601f01602080910402602001604051908101604052809291908181526020018280546118c090612987565b801561190d5780601f106118e25761010080835404028352916020019161190d565b820191906000526020600020905b8154815290600101906020018083116118f057829003601f168201915b5050505050935081805461192090612987565b80601f016020809104026020016040519081016040528092919081815260200182805461194c90612987565b80156119995780601f1061196e57610100808354040283529160200191611999565b820191906000526020600020905b81548152906001019060200180831161197c57829003601f168201915b5050505050915093509350935093509193509193565b606060006060806000806060600a60008973ffffffffffffffffffffffffffffffffffffffff1673ffffffffffffffffffffffffffffffffffffffff168152602001908152602001600020600001600a60008a73ffffffffffffffffffffffffffffffffffffffff1673ffffffffffffffffffffffffffffffffffffffff16815260200190815260200160002060010160009054906101000a900473ffffffffffffffffffffffffffffffffffffffff16600a60008b73ffffffffffffffffffffffffffffffffffffffff1673ffffffffffffffffffffffffffffffffffffffff168152602001908152602001600020600201600a60008c73ffffffffffffffffffffffffffffffffffffffff1673ffffffffffffffffffffffffffffffffffffffff168152602001908152602001600020600301600a60008d73ffffffffffffffffffffffffffffffffffffffff1673ffffffffffffffffffffffffffffffffffffffff16815260200190815260200160002060040160019054906101000a900460ff16600a60008e73ffffffffffffffffffffffffffffffffffffffff1673ffffffffffffffffffffffffffffffffffffffff16815260200190815260200160002060040160009054906101000a900460ff16600a60008f73ffffffffffffffffffffffffffffffffffffffff1673ffffffffffffffffffffffffffffffffffffffff168152602001908152602001600020600501868054611bd290612987565b80601f0160208091040260200160405190810160405280929190818152602001828054611bfe90612987565b8015611c4b5780601f10611c2057610100808354040283529160200191611c4b565b820191906000526020600020905b815481529060010190602001808311611c2e57829003601f168201915b50505050509650848054611c5e90612987565b80601f0160208091040260200160405190810160405280929190818152602001828054611c8a90612987565b8015611cd75780601f10611cac57610100808354040283529160200191611cd7565b820191906000526020600020905b815481529060010190602001808311611cba57829003601f168201915b50505050509450838054611cea90612987565b80601f0160208091040260200160405190810160405280929190818152602001828054611d1690612987565b8015611d635780601f10611d3857610100808354040283529160200191611d63565b820191906000526020600020905b815481529060010190602001808311611d4657829003601f168201915b50505050509350808054611d7690612987565b80601f0160208091040260200160405190810160405280929190818152602001828054611da290612987565b8015611def5780601f10611dc457610100808354040283529160200191611def565b820191906000526020600020905b815481529060010190602001808311611dd257829003601f168201915b505050505090509650965096509650965096509650919395979092949650565b60606000806000600885604051611e2691906128d5565b9081526020016040518091039020600001600886604051611e4791906128d5565b908152602001604051809103902060010160009054906101000a900473ffffffffffffffffffffffffffffffffffffffff16600887604051611e8991906128d5565b908152602001604051809103902060020154600888604051611eab91906128d5565b908152602001604051809103902060030160009054906101000a900460ff16838054611ed690612987565b80601f0160208091040260200160405190810160405280929190818152602001828054611f0290612987565b8015611f4f5780601f10611f2457610100808354040283529160200191611f4f565b820191906000526020600020905b815481529060010190602001808311611f3257829003601f168201915b5050505050935093509350935093509193509193565b6040518060e0016040528060608152602001600073ffffffffffffffffffffffffffffffffffffffff1681526020016060815260200160608152602001600015158152602001600015158152602001606081525090565b604051806080016040528060608152602001600073ffffffffffffffffffffffffffffffffffffffff168152602001606081526020016000151581525090565b604051806080016040528060608152602001600073ffffffffffffffffffffffffffffffffffffffff168152602001600081526020016000151581525090565b6040518060a00160405280600073ffffffffffffffffffffffffffffffffffffffff1681526020016060815260200160608152602001600015158152602001606081525090565b6000819050919050565b61209681612083565b82525050565b60006020820190506120b1600083018461208d565b92915050565b6000604051905090565b600080fd5b600080fd5b600080fd5b600080fd5b6000601f19601f8301169050919050565b7f4e487b7100000000000000000000000000000000000000000000000000000000600052604160045260246000fd5b61211e826120d5565b810181811067ffffffffffffffff8211171561213d5761213c6120e6565b5b80604052505050565b60006121506120b7565b905061215c8282612115565b919050565b600067ffffffffffffffff82111561217c5761217b6120e6565b5b612185826120d5565b9050602081019050919050565b82818337600083830152505050565b60006121b46121af84612161565b612146565b9050828152602081018484840111156121d0576121cf6120d0565b5b6121db848285612192565b509392505050565b600082601f8301126121f8576121f76120cb565b5b81356122088482602086016121a1565b91505092915050565b600060208284031215612227576122266120c1565b5b600082013567ffffffffffffffff811115612245576122446120c6565b5b612251848285016121e3565b91505092915050565b600073ffffffffffffffffffffffffffffffffffffffff82169050919050565b60006122858261225a565b9050919050565b6122958161227a565b81146122a057600080fd5b50565b6000813590506122b28161228c565b92915050565b60008115159050919050565b6122cd816122b8565b81146122d857600080fd5b50565b6000813590506122ea816122c4565b92915050565b60008060008060008060c0878903121561230d5761230c6120c1565b5b600087013567ffffffffffffffff81111561232b5761232a6120c6565b5b61233789828a016121e3565b965050602061234889828a016122a3565b955050604087013567ffffffffffffffff811115612369576123686120c6565b5b61237589828a016121e3565b945050606087013567ffffffffffffffff811115612396576123956120c6565b5b6123a289828a016121e3565b93505060806123b389828a016122db565b92505060a087013567ffffffffffffffff8111156123d4576123d36120c6565b5b6123e089828a016121e3565b9150509295509295509295565b6123f681612083565b811461240157600080fd5b50565b600081359050612413816123ed565b92915050565b60006020828403121561242f5761242e6120c1565b5b600061243d84828501612404565b91505092915050565b61244f8161227a565b82525050565b600081519050919050565b600082825260208201905092915050565b60005b8381101561248f578082015181840152602081019050612474565b60008484015250505050565b60006124a682612455565b6124b08185612460565b93506124c0818560208601612471565b6124c9816120d5565b840191505092915050565b6124dd816122b8565b82525050565b600060a0820190506124f86000830188612446565b818103602083015261250a818761249b565b9050818103604083015261251e818661249b565b905061252d60608301856124d4565b818103608083015261253f818461249b565b90509695505050505050565b600080600060608486031215612564576125636120c1565b5b600084013567ffffffffffffffff811115612582576125816120c6565b5b61258e868287016121e3565b935050602061259f868287016122a3565b925050604084013567ffffffffffffffff8111156125c0576125bf6120c6565b5b6125cc868287016121e3565b9150509250925092565b6000806000606084860312156125ef576125ee6120c1565b5b600084013567ffffffffffffffff81111561260d5761260c6120c6565b5b612619868287016121e3565b935050602061262a868287016122a3565b925050604061263b86828701612404565b9150509250925092565b600060a08201905061265a6000830188612446565b818103602083015261266c818761249b565b90508181036040830152612680818661249b565b90508181036060830152612694818561249b565b905081810360808301526126a8818461249b565b90509695505050505050565b600060808201905081810360008301526126ce818761249b565b90506126dd6020830186612446565b81810360408301526126ef818561249b565b90506126fe60608301846124d4565b95945050505050565b60008060008060808587031215612721576127206120c1565b5b600061272f878288016122a3565b945050602085013567ffffffffffffffff8111156127505761274f6120c6565b5b61275c878288016121e3565b935050604085013567ffffffffffffffff81111561277d5761277c6120c6565b5b612789878288016121e3565b925050606085013567ffffffffffffffff8111156127aa576127a96120c6565b5b6127b6878288016121e3565b91505092959194509250565b600060e08201905081810360008301526127dc818a61249b565b90506127eb6020830189612446565b81810360408301526127fd818861249b565b90508181036060830152612811818761249b565b905061282060808301866124d4565b61282d60a08301856124d4565b81810360c083015261283f818461249b565b905098975050505050505050565b60006080820190508181036000830152612867818761249b565b90506128766020830186612446565b612883604083018561208d565b61289060608301846124d4565b95945050505050565b600081905092915050565b60006128af82612455565b6128b98185612899565b93506128c9818560208601612471565b80840191505092915050565b60006128e182846128a4565b915081905092915050565b7f416c726561647920457869737473000000000000000000000000000000000000600082015250565b6000612922600e83612460565b915061292d826128ec565b602082019050919050565b6000602082019050818103600083015261295181612915565b9050919050565b7f4e487b7100000000000000000000000000000000000000000000000000000000600052602260045260246000fd5b6000600282049050600182168061299f57607f821691505b6020821081036129b2576129b1612958565b5b50919050565b60008190508160005260206000209050919050565b60006020601f8301049050919050565b60008160020a8302905092915050565b600060088302612a1d7fffffffffffffffffffffffffffffffffffffffffffffffffffffffffffffffff826129dd565b612a2786836129dd565b95508019841693508086168417925050509392505050565b6000819050919050565b6000612a64612a5f612a5a84612083565b612a3f565b612083565b9050919050565b6000819050919050565b612a7e83612a49565b612a92612a8a82612a6b565b8484546129ed565b825550505050565b600090565b612aa7612a9a565b612ab2818484612a75565b505050565b5b81811015612ad657612acb600082612a9f565b600181019050612ab8565b5050565b601f821115612b1b57612aec816129b8565b612af5846129cd565b81016020851015612b04578190505b612b18612b10856129cd565b830182612ab7565b50505b505050565b60008160020a8304905092915050565b6000612b4160001984600802612b20565b1980831691505092915050565b6000612b5a8383612b30565b9150826002028217905092915050565b612b7382612455565b67ffffffffffffffff811115612b8c57612b8b6120e6565b5b612b968254612987565b612ba1828285612ada565b600060209050601f831160018114612bd45760008415612bc2578287015190505b612bcc8582612b4e565b865550612c34565b601f198416612be2866129b8565b60005b82811015612c0a57848901518255600182019150602085019450602081019050612be5565b86831015612c275784890151612c23601f891682612b30565b8355505b6001600288020188555050505b505050505050565b7f4e487b7100000000000000000000000000000000000000000000000000000000600052603260045260246000fdfea26469706673582212200c0cef832c65575de1d058dc9884c10bf91ef5a130269e345ee9d726f3a6130564736f6c63430008120033",
  "immutableReferences": {},
  "source": "// SPDX-License-Identifier: MIT\npragma solidity >=0.4.22 <0.9.0;\n\ncontract Employee {\n  address admin;\n  address employee_address;\n  string description;\n  string location;\n  string name;\n  string email;\n\n  constructor(\n    address _admin,\n    address _employee_address,\n    string memory _name,\n    string memory _description,\n    string memory _location,\n    string memory _email\n  ) {\n    admin = _admin;\n    name = _name;\n    employee_address = _employee_address;\n    description = _description;\n    location = _location;\n    email = _email;\n  }\n\n  modifier OnlyEmployee() {\n    require(msg.sender == employee_address);\n    _;\n  }\n\n  function getEmployeeInfo()\n    public\n    view\n    returns (\n      address,\n      string memory,\n      string memory,\n      string memory,\n      string memory\n    )\n  {\n    return (employee_address, name, description, location, email);\n  }\n\n   /*********************************************************SKILL SECTION**********************************************************/\n\n  struct skillInfo {\n    string name;\n    address organization;\n    string experience;\n    bool endorsed;\n  }\n\n  mapping(string => skillInfo) skillmap;\n  string[] skills;\n\n  function addskill(\n    string memory _name,\n    address _organization,\n    string memory _experience\n  ) public OnlyEmployee {\n    skillInfo memory newskillInfo;\n    newskillInfo.name = _name;\n    newskillInfo.organization = _organization;\n    newskillInfo.experience = _experience;\n    newskillInfo.endorsed = false;\n    skillmap[_name] = newskillInfo;\n    skills.push(_name);\n  }\n\n  function endorseSkill(string memory _name) public {\n    require(msg.sender == skillmap[_name].organization);\n    skillmap[_name].endorsed = true;\n  }\n\n  function getSkillByName(string memory _name)\n    private\n    view\n    returns (\n      string memory,\n      address,\n      string memory,\n      bool\n    )\n  {\n    return (\n      skillmap[_name].name,\n      skillmap[_name].organization,\n      skillmap[_name].experience,\n      skillmap[_name].endorsed\n    );\n  }\n\n  function getSkillCount() public view returns (uint256) {\n    return skills.length;\n  }\n\n  function getskillByIndex(uint256 _index)\n    public\n    view\n    returns (\n      string memory,\n      address,\n      string memory,\n      bool\n    )\n  {\n    return getSkillByName(skills[_index]);\n  }\n\n  /*********************************************************CERTIFICATION SECTION**********************************************************/\n\n  struct certificationInfo {\n    string name;\n    address organization;\n    uint256 score;\n    bool endorsed;\n  }\n\n  mapping(string => certificationInfo) certificationmap;\n  string[] certifications;\n\n  function addCertification(\n    string memory _name,\n    address _organization,\n    uint256 _score\n  ) public OnlyEmployee {\n    certificationInfo memory newcertificationInfo;\n    newcertificationInfo.name = _name;\n    newcertificationInfo.organization = _organization;\n    newcertificationInfo.score = _score;\n    newcertificationInfo.endorsed = false;\n    certificationmap[_name] = newcertificationInfo;\n    certifications.push(_name);\n  }\n\n  function endorseCertification(string memory _name) public {\n    require(msg.sender == certificationmap[_name].organization);\n    certificationmap[_name].endorsed = true;\n  }\n\n  function getCertificationByName(string memory _name)\n    private\n    view\n    returns (\n      string memory,\n      address,\n      uint256,\n      bool\n    )\n  {\n    return (\n      certificationmap[_name].name,\n      certificationmap[_name].organization,\n      certificationmap[_name].score,\n      certificationmap[_name].endorsed\n    );\n  }\n\n  function getCertificationCount() public view returns (uint256) {\n    return certifications.length;\n  }\n\n  function getCertificationByIndex(uint256 _index)\n    public\n    view\n    returns (\n      string memory,\n      address,\n      uint256,\n      bool\n    )\n  {\n    return getCertificationByName(certifications[_index]);\n  }\n\n  /********************************************************************Work Experience Section********************************************************************/\n\n  struct workexpInfo {\n    string role;\n    address organization;\n    string startdate;\n    string enddate;\n    bool endorsed;\n    bool current;\n    string description;\n  }\n\n  mapping(address => workexpInfo) workexpmap;\n  address[] workexps;\n\n  function addWorkExp(\n    string memory _role,\n    address _organization,\n    string memory _startdate,\n    string memory _enddate,\n    bool _current,\n    string memory _description\n  ) public OnlyEmployee {\n    require(workexpmap[_organization].organization != _organization, \"Already Exists\");\n    workexpInfo memory newworkexp;\n    newworkexp.role = _role;\n    newworkexp.organization = _organization;\n    newworkexp.startdate = _startdate;\n    newworkexp.endorsed = false;\n    newworkexp.description = _description;\n    if (_current==true){\n      newworkexp.current = _current;\n      newworkexp.enddate = '';\n    } else {\n      newworkexp.enddate = _enddate;\n      newworkexp.current = false;\n    }\n    workexpmap[_organization] = newworkexp;\n    workexps.push(_organization);\n  }\n\n  function endorseWorkExp() public {\n    require(workexpmap[msg.sender].organization != address(0x0));\n    workexpmap[msg.sender].endorsed = true;\n  }\n\n  function getWorkExpByAddress(address _organization)\n    private\n    view\n    returns (\n      string memory,\n      address,\n      string memory,\n      string memory,\n      bool,\n      bool,\n      string memory\n    )\n  {\n    return (\n      workexpmap[_organization].role,\n      workexpmap[_organization].organization,\n      workexpmap[_organization].startdate,\n      workexpmap[_organization].enddate,\n      workexpmap[_organization].current,\n      workexpmap[_organization].endorsed,\n      workexpmap[_organization].description\n    );\n  }\n\n  function getWorkExpCount() public view returns (uint256) {\n    return workexps.length;\n  }\n\n  function getWorkExpByIndex(uint256 _index)\n    public\n    view\n    returns (\n      string memory,\n      address,\n      string memory,\n      string memory,\n      bool,\n      bool,\n      string memory\n    )\n  {\n    return getWorkExpByAddress(workexps[_index]);\n  }\n\n  /********************************************************************Education Section********************************************************************/\n\n  struct educationInfo {\n    address institute;\n    string startdate;\n    string enddate;\n    bool endorsed;\n    string description;\n  }\n\n  mapping(address => educationInfo) educationmap;\n  address[] educations;\n\n  function addEducation(\n    address _institute,\n    string memory _startdate,\n    string memory _enddate,\n    string memory _description\n  ) public OnlyEmployee {\n    educationInfo memory newEducation;\n    newEducation.institute = _institute;\n    newEducation.startdate = _startdate;\n    newEducation.enddate = _enddate;\n    newEducation.endorsed = false;\n    newEducation.description = _description;\n    educationmap[_institute] = newEducation;\n    educations.push(_institute);\n  }\n\n  function endorseEducation() public {\n    require(educationmap[msg.sender].institute != address(0x0));\n    educationmap[msg.sender].endorsed = true;\n  }\n\n  function getEducationByAddress(address _institute)\n    private\n    view\n    returns (\n      address,\n      string memory,\n      string memory,\n      bool,\n      string memory\n    )\n  {\n    return (\n      educationmap[_institute].institute,\n      educationmap[_institute].startdate,\n      educationmap[_institute].enddate,\n      educationmap[_institute].endorsed,\n      educationmap[_institute].description\n    );\n  }\n\n  function getEducationCount() public view returns (uint256) {\n    return educations.length;\n  }\n\n  function getEducationByIndex(uint256 _index)\n    public\n    view\n    returns (\n      address,\n      string memory,\n      string memory,\n      bool,\n      string memory\n    )\n  {\n    return getEducationByAddress(educations[_index]);\n  }\n}\n\n",
  "sourcePath": "E:\\skillset\\src\\contracts\\Employee.sol",
  "compiler": {
    "name": "solc",
    "version": "0.8.18+commit.87f61d96.Emscripten.clang"
  },
  "schemaVersion": "3.4.12",
  "updatedAt": "2023-03-09T03:57:38.389Z",
  "devdoc": {
    "kind": "dev",
    "methods": {},
    "version": 1
  },
  "userdoc": {
    "kind": "user",
    "methods": {},
    "version": 1
  }
}