{
  "contractName": "Organization",
  "abi": [
    {
      "inputs": [
        {
          "internalType": "address",
          "name": "_admin",
          "type": "address"
        },
        {
          "internalType": "address",
          "name": "_organization_address",
          "type": "address"
        },
        {
          "internalType": "string",
          "name": "_name",
          "type": "string"
        },
        {
          "internalType": "string",
          "name": "_description",
          "type": "string"
        },
        {
          "internalType": "string",
          "name": "_location",
          "type": "string"
        },
        {
          "internalType": "string",
          "name": "_email",
          "type": "string"
        }
      ],
      "stateMutability": "nonpayable",
      "type": "constructor"
    },
    {
      "inputs": [],
      "name": "getOrganizationInfo",
      "outputs": [
        {
          "internalType": "string",
          "name": "",
          "type": "string"
        },
        {
          "internalType": "address",
          "name": "",
          "type": "address"
        },
        {
          "internalType": "string",
          "name": "",
          "type": "string"
        },
        {
          "internalType": "string",
          "name": "",
          "type": "string"
        },
        {
          "internalType": "string",
          "name": "",
          "type": "string"
        }
      ],
      "stateMutability": "view",
      "type": "function"
    },
    {
      "inputs": [
        {
          "internalType": "address",
          "name": "employee_address",
          "type": "address"
        }
      ],
      "name": "addEmployees",
      "outputs": [],
      "stateMutability": "nonpayable",
      "type": "function"
    },
    {
      "inputs": [],
      "name": "totalEmployees",
      "outputs": [
        {
          "internalType": "uint256",
          "name": "",
          "type": "uint256"
        }
      ],
      "stateMutability": "view",
      "type": "function"
    },
    {
      "inputs": [
        {
          "internalType": "uint256",
          "name": "index",
          "type": "uint256"
        }
      ],
      "name": "getEmployeeByIndex",
      "outputs": [
        {
          "internalType": "address",
          "name": "",
          "type": "address"
        }
      ],
      "stateMutability": "view",
      "type": "function"
    }
  ],
  "bytecode": "0x60806040523480156200001157600080fd5b5060405162000ef238038062000ef2833981810160405281019062000037919062000304565b856000806101000a81548173ffffffffffffffffffffffffffffffffffffffff021916908373ffffffffffffffffffffffffffffffffffffffff16021790555083600190816200008891906200066d565b5084600260006101000a81548173ffffffffffffffffffffffffffffffffffffffff021916908373ffffffffffffffffffffffffffffffffffffffff1602179055508260039081620000db91906200066d565b508160049081620000ed91906200066d565b508060059081620000ff91906200066d565b5050505050505062000754565b6000604051905090565b600080fd5b600080fd5b600073ffffffffffffffffffffffffffffffffffffffff82169050919050565b60006200014d8262000120565b9050919050565b6200015f8162000140565b81146200016b57600080fd5b50565b6000815190506200017f8162000154565b92915050565b600080fd5b600080fd5b6000601f19601f8301169050919050565b7f4e487b7100000000000000000000000000000000000000000000000000000000600052604160045260246000fd5b620001da826200018f565b810181811067ffffffffffffffff82111715620001fc57620001fb620001a0565b5b80604052505050565b6000620002116200010c565b90506200021f8282620001cf565b919050565b600067ffffffffffffffff821115620002425762000241620001a0565b5b6200024d826200018f565b9050602081019050919050565b60005b838110156200027a5780820151818401526020810190506200025d565b60008484015250505050565b60006200029d620002978462000224565b62000205565b905082815260208101848484011115620002bc57620002bb6200018a565b5b620002c98482856200025a565b509392505050565b600082601f830112620002e957620002e862000185565b5b8151620002fb84826020860162000286565b91505092915050565b60008060008060008060c0878903121562000324576200032362000116565b5b60006200033489828a016200016e565b96505060206200034789828a016200016e565b955050604087015167ffffffffffffffff8111156200036b576200036a6200011b565b5b6200037989828a01620002d1565b945050606087015167ffffffffffffffff8111156200039d576200039c6200011b565b5b620003ab89828a01620002d1565b935050608087015167ffffffffffffffff811115620003cf57620003ce6200011b565b5b620003dd89828a01620002d1565b92505060a087015167ffffffffffffffff8111156200040157620004006200011b565b5b6200040f89828a01620002d1565b9150509295509295509295565b600081519050919050565b7f4e487b7100000000000000000000000000000000000000000000000000000000600052602260045260246000fd5b600060028204905060018216806200046f57607f821691505b60208210810362000485576200048462000427565b5b50919050565b60008190508160005260206000209050919050565b60006020601f8301049050919050565b60008160020a8302905092915050565b600060088302620004f27fffffffffffffffffffffffffffffffffffffffffffffffffffffffffffffffff82620004b0565b620004fe8683620004b0565b95508019841693508086168417925050509392505050565b6000819050919050565b6000819050919050565b60006200054b620005456200053f8462000516565b62000520565b62000516565b9050919050565b6000819050919050565b62000567836200052a565b6200057f620005768262000552565b848454620004c0565b825550505050565b600090565b6200059662000587565b620005a38184846200055c565b505050565b5b81811015620005cb57620005bf6000826200058c565b600181019050620005a9565b5050565b601f8211156200061a57620005e4816200048b565b620005ef84620004a0565b81016020851015620005ff578190505b620006176200060e85620004a0565b830182620005a8565b50505b505050565b60008160020a8304905092915050565b600062000642600019846008026200061f565b1980831691505092915050565b60006200065d83836200062f565b9150826002028217905092915050565b62000678826200041c565b67ffffffffffffffff811115620006945762000693620001a0565b5b620006a0825462000456565b620006ad828285620005cf565b600060209050601f831160018114620006e55760008415620006d0578287015190505b620006dc85826200064f565b8655506200074c565b601f198416620006f5866200048b565b60005b828110156200071f57848901518255600182019150602085019450602081019050620006f8565b868310156200073f57848901516200073b601f8916826200062f565b8355505b6001600288020188555050505b505050505050565b61078e80620007646000396000f3fe608060405234801561001057600080fd5b5060043610610068576000357c010000000000000000000000000000000000000000000000000000000090048062ac80951461006d57806352b9b9731461008957806359420e48146100a7578063e894d0a2146100d7575b600080fd5b610087600480360381019061008291906104e6565b6100f9565b005b6100916101b9565b60405161009e919061052c565b60405180910390f35b6100c160048036038101906100bc9190610573565b6101c6565b6040516100ce91906105af565b60405180910390f35b6100df61020e565b6040516100f095949392919061065a565b60405180910390f35b600260009054906101000a900473ffffffffffffffffffffffffffffffffffffffff1673ffffffffffffffffffffffffffffffffffffffff163373ffffffffffffffffffffffffffffffffffffffff161461015357600080fd5b6006819080600181540180825580915050600190039060005260206000200160009091909190916101000a81548173ffffffffffffffffffffffffffffffffffffffff021916908373ffffffffffffffffffffffffffffffffffffffff16021790555050565b6000600680549050905090565b6000600682815481106101dc576101db6106c9565b5b9060005260206000200160009054906101000a900473ffffffffffffffffffffffffffffffffffffffff169050919050565b6060600060608060606001600260009054906101000a900473ffffffffffffffffffffffffffffffffffffffff1660036004600584805461024e90610727565b80601f016020809104026020016040519081016040528092919081815260200182805461027a90610727565b80156102c75780601f1061029c576101008083540402835291602001916102c7565b820191906000526020600020905b8154815290600101906020018083116102aa57829003601f168201915b505050505094508280546102da90610727565b80601f016020809104026020016040519081016040528092919081815260200182805461030690610727565b80156103535780601f1061032857610100808354040283529160200191610353565b820191906000526020600020905b81548152906001019060200180831161033657829003601f168201915b5050505050925081805461036690610727565b80601f016020809104026020016040519081016040528092919081815260200182805461039290610727565b80156103df5780601f106103b4576101008083540402835291602001916103df565b820191906000526020600020905b8154815290600101906020018083116103c257829003601f168201915b505050505091508080546103f290610727565b80601f016020809104026020016040519081016040528092919081815260200182805461041e90610727565b801561046b5780601f106104405761010080835404028352916020019161046b565b820191906000526020600020905b81548152906001019060200180831161044e57829003601f168201915b50505050509050945094509450945094509091929394565b600080fd5b600073ffffffffffffffffffffffffffffffffffffffff82169050919050565b60006104b382610488565b9050919050565b6104c3816104a8565b81146104ce57600080fd5b50565b6000813590506104e0816104ba565b92915050565b6000602082840312156104fc576104fb610483565b5b600061050a848285016104d1565b91505092915050565b6000819050919050565b61052681610513565b82525050565b6000602082019050610541600083018461051d565b92915050565b61055081610513565b811461055b57600080fd5b50565b60008135905061056d81610547565b92915050565b60006020828403121561058957610588610483565b5b60006105978482850161055e565b91505092915050565b6105a9816104a8565b82525050565b60006020820190506105c460008301846105a0565b92915050565b600081519050919050565b600082825260208201905092915050565b60005b838110156106045780820151818401526020810190506105e9565b60008484015250505050565b6000601f19601f8301169050919050565b600061062c826105ca565b61063681856105d5565b93506106468185602086016105e6565b61064f81610610565b840191505092915050565b600060a08201905081810360008301526106748188610621565b905061068360208301876105a0565b81810360408301526106958186610621565b905081810360608301526106a98185610621565b905081810360808301526106bd8184610621565b90509695505050505050565b7f4e487b7100000000000000000000000000000000000000000000000000000000600052603260045260246000fd5b7f4e487b7100000000000000000000000000000000000000000000000000000000600052602260045260246000fd5b6000600282049050600182168061073f57607f821691505b602082108103610752576107516106f8565b5b5091905056fea2646970667358221220a9ddf2193650ab9d26a9549bf7db3e5f332e52191ef0fbb39dd71942864b139764736f6c63430008120033",
  "immutableReferences": {},
  "source": "// SPDX-License-Identifier: MIT\npragma solidity >=0.4.22 <0.9.0;\n\ncontract Organization {\n  address admin;\n  string name;\n  address organization_address;\n  string description;\n  string location;\n  string email;\n\n  constructor(\n    address _admin,\n    address _organization_address,\n    string memory _name,\n    string memory _description,\n    string memory _location,\n    string memory _email\n  ) {\n    admin = _admin;\n    name = _name;\n    organization_address = _organization_address;\n    description = _description;\n    location = _location;\n    email = _email;\n  }\n\n  function getOrganizationInfo()\n    public\n    view\n    returns (\n      string memory,\n      address,\n      string memory,\n      string memory,\n      string memory\n    )\n  {\n    return (name, organization_address, description, location, email);\n  }\n\n  address[] allEmployees;\n\n  function addEmployees(address employee_address) public {\n    require(msg.sender == organization_address);\n    allEmployees.push(employee_address);\n  }\n\n  function totalEmployees() public view returns (uint256) {\n    return allEmployees.length;\n  }\n\n  function getEmployeeByIndex(uint256 index) public view returns (address) {\n    return allEmployees[index];\n  }\n}\n",
  "sourcePath": "E:\\skillset\\src\\contracts\\Organization.sol",
  "compiler": {
    "name": "solc",
    "version": "0.8.18+commit.87f61d96.Emscripten.clang"
  },
  "schemaVersion": "3.4.12",
  "updatedAt": "2023-03-09T01:33:02.182Z",
  "devdoc": {
    "kind": "dev",
    "methods": {},
    "version": 1
  },
  "userdoc": {
    "kind": "user",
    "methods": {},
    "version": 1
  }
}