{
  "contractName": "Skills",
  "abi": [
    {
      "inputs": [
        {
          "internalType": "string",
          "name": "_name",
          "type": "string"
        },
        {
          "internalType": "address",
          "name": "_employee",
          "type": "address"
        }
      ],
      "name": "addEmployeeToSkill",
      "outputs": [],
      "stateMutability": "nonpayable",
      "type": "function"
    },
    {
      "inputs": [],
      "name": "getSkillLength",
      "outputs": [
        {
          "internalType": "uint256",
          "name": "",
          "type": "uint256"
        }
      ],
      "stateMutability": "view",
      "type": "function",
      "constant": true
    },
    {
      "inputs": [
        {
          "internalType": "uint256",
          "name": "index",
          "type": "uint256"
        }
      ],
      "name": "getSkillsByIndex",
      "outputs": [
        {
          "internalType": "string",
          "name": "",
          "type": "string"
        }
      ],
      "stateMutability": "view",
      "type": "function",
      "constant": true
    },
    {
      "inputs": [
        {
          "internalType": "uint256",
          "name": "index",
          "type": "uint256"
        }
      ],
      "name": "getTotalEmployeeInSkillByIndex",
      "outputs": [
        {
          "internalType": "uint256",
          "name": "",
          "type": "uint256"
        }
      ],
      "stateMutability": "view",
      "type": "function",
      "constant": true
    },
    {
      "inputs": [
        {
          "internalType": "string",
          "name": "_name",
          "type": "string"
        }
      ],
      "name": "getTotalEmployeeInSkillByName",
      "outputs": [
        {
          "internalType": "uint256",
          "name": "",
          "type": "uint256"
        }
      ],
      "stateMutability": "view",
      "type": "function",
      "constant": true
    },
    {
      "inputs": [
        {
          "internalType": "uint256",
          "name": "skill_index",
          "type": "uint256"
        },
        {
          "internalType": "uint256",
          "name": "emp_index",
          "type": "uint256"
        }
      ],
      "name": "getEmployeeInSkillByIndex",
      "outputs": [
        {
          "internalType": "address",
          "name": "",
          "type": "address"
        }
      ],
      "stateMutability": "view",
      "type": "function",
      "constant": true
    },
    {
      "inputs": [
        {
          "internalType": "string",
          "name": "_name",
          "type": "string"
        },
        {
          "internalType": "uint256",
          "name": "emp_index",
          "type": "uint256"
        }
      ],
      "name": "getEmployeeBySkillName",
      "outputs": [
        {
          "internalType": "address",
          "name": "",
          "type": "address"
        }
      ],
      "stateMutability": "view",
      "type": "function",
      "constant": true
    }
  ],
  "bytecode": "0x608060405234801561001057600080fd5b50610d44806100206000396000f3fe608060405234801561001057600080fd5b506004361061009a576000357c0100000000000000000000000000000000000000000000000000000000900480638673de53116100785780638673de5314610109578063bb50d77214610139578063e518dc3c14610169578063f4cee617146101995761009a565b80632e2acc4c1461009f578063359c410f146100bb5780633dc1a6bc146100eb575b600080fd5b6100b960048036038101906100b49190610675565b6101c9565b005b6100d560048036038101906100d09190610707565b6102aa565b6040516100e29190610743565b60405180910390f35b6100f36102f1565b6040516101009190610743565b60405180910390f35b610123600480360381019061011e9190610707565b6102fe565b60405161013091906107dd565b60405180910390f35b610153600480360381019061014e91906107ff565b6103ae565b604051610160919061084e565b60405180910390f35b610183600480360381019061017e9190610869565b61042f565b6040516101909190610743565b60405180910390f35b6101b360048036038101906101ae91906108b2565b610459565b6040516101c0919061084e565b60405180910390f35b600080836040516101da919061094a565b90815260200160405180910390208054905003610227576001829080600181540180825580915050600190039060005260206000200160009091909190915090816102259190610b73565b505b600082604051610237919061094a565b9081526020016040518091039020819080600181540180825580915050600190039060005260206000200160009091909190916101000a81548173ffffffffffffffffffffffffffffffffffffffff021916908373ffffffffffffffffffffffffffffffffffffffff1602179055505050565b600080600183815481106102c1576102c0610c45565b5b906000526020600020016040516102d89190610cf7565b9081526020016040518091039020805490509050919050565b6000600180549050905090565b60606001828154811061031457610313610c45565b5b90600052602060002001805461032990610990565b80601f016020809104026020016040519081016040528092919081815260200182805461035590610990565b80156103a25780601f10610377576101008083540402835291602001916103a2565b820191906000526020600020905b81548152906001019060200180831161038557829003601f168201915b50505050509050919050565b600080600184815481106103c5576103c4610c45565b5b906000526020600020016040516103dc9190610cf7565b908152602001604051809103902082815481106103fc576103fb610c45565b5b9060005260206000200160009054906101000a900473ffffffffffffffffffffffffffffffffffffffff16905092915050565b60008082604051610440919061094a565b9081526020016040518091039020805490509050919050565b6000808360405161046a919061094a565b9081526020016040518091039020828154811061048a57610489610c45565b5b9060005260206000200160009054906101000a900473ffffffffffffffffffffffffffffffffffffffff16905092915050565b6000604051905090565b600080fd5b600080fd5b600080fd5b600080fd5b6000601f19601f8301169050919050565b7f4e487b7100000000000000000000000000000000000000000000000000000000600052604160045260246000fd5b610524826104db565b810181811067ffffffffffffffff82111715610543576105426104ec565b5b80604052505050565b60006105566104bd565b9050610562828261051b565b919050565b600067ffffffffffffffff821115610582576105816104ec565b5b61058b826104db565b9050602081019050919050565b82818337600083830152505050565b60006105ba6105b584610567565b61054c565b9050828152602081018484840111156105d6576105d56104d6565b5b6105e1848285610598565b509392505050565b600082601f8301126105fe576105fd6104d1565b5b813561060e8482602086016105a7565b91505092915050565b600073ffffffffffffffffffffffffffffffffffffffff82169050919050565b600061064282610617565b9050919050565b61065281610637565b811461065d57600080fd5b50565b60008135905061066f81610649565b92915050565b6000806040838503121561068c5761068b6104c7565b5b600083013567ffffffffffffffff8111156106aa576106a96104cc565b5b6106b6858286016105e9565b92505060206106c785828601610660565b9150509250929050565b6000819050919050565b6106e4816106d1565b81146106ef57600080fd5b50565b600081359050610701816106db565b92915050565b60006020828403121561071d5761071c6104c7565b5b600061072b848285016106f2565b91505092915050565b61073d816106d1565b82525050565b60006020820190506107586000830184610734565b92915050565b600081519050919050565b600082825260208201905092915050565b60005b8381101561079857808201518184015260208101905061077d565b60008484015250505050565b60006107af8261075e565b6107b98185610769565b93506107c981856020860161077a565b6107d2816104db565b840191505092915050565b600060208201905081810360008301526107f781846107a4565b905092915050565b60008060408385031215610816576108156104c7565b5b6000610824858286016106f2565b9250506020610835858286016106f2565b9150509250929050565b61084881610637565b82525050565b6000602082019050610863600083018461083f565b92915050565b60006020828403121561087f5761087e6104c7565b5b600082013567ffffffffffffffff81111561089d5761089c6104cc565b5b6108a9848285016105e9565b91505092915050565b600080604083850312156108c9576108c86104c7565b5b600083013567ffffffffffffffff8111156108e7576108e66104cc565b5b6108f3858286016105e9565b9250506020610904858286016106f2565b9150509250929050565b600081905092915050565b60006109248261075e565b61092e818561090e565b935061093e81856020860161077a565b80840191505092915050565b60006109568284610919565b915081905092915050565b7f4e487b7100000000000000000000000000000000000000000000000000000000600052602260045260246000fd5b600060028204905060018216806109a857607f821691505b6020821081036109bb576109ba610961565b5b50919050565b60008190508160005260206000209050919050565b60006020601f8301049050919050565b60008160020a8302905092915050565b600060088302610a267fffffffffffffffffffffffffffffffffffffffffffffffffffffffffffffffff826109e6565b610a3086836109e6565b95508019841693508086168417925050509392505050565b6000819050919050565b6000610a6d610a68610a63846106d1565b610a48565b6106d1565b9050919050565b6000819050919050565b610a8783610a52565b610a9b610a9382610a74565b8484546109f6565b825550505050565b600090565b610ab0610aa3565b610abb818484610a7e565b505050565b5b81811015610adf57610ad4600082610aa8565b600181019050610ac1565b5050565b601f821115610b2457610af5816109c1565b610afe846109d6565b81016020851015610b0d578190505b610b21610b19856109d6565b830182610ac0565b50505b505050565b60008160020a8304905092915050565b6000610b4a60001984600802610b29565b1980831691505092915050565b6000610b638383610b39565b9150826002028217905092915050565b610b7c8261075e565b67ffffffffffffffff811115610b9557610b946104ec565b5b610b9f8254610990565b610baa828285610ae3565b600060209050601f831160018114610bdd5760008415610bcb578287015190505b610bd58582610b57565b865550610c3d565b601f198416610beb866109c1565b60005b82811015610c1357848901518255600182019150602085019450602081019050610bee565b86831015610c305784890151610c2c601f891682610b39565b8355505b6001600288020188555050505b505050505050565b7f4e487b7100000000000000000000000000000000000000000000000000000000600052603260045260246000fd5b60008154610c8181610990565b610c8b818661090e565b94506001821660008114610ca65760018114610cbb57610cee565b60ff1983168652811515820286019350610cee565b610cc4856109c1565b60005b83811015610ce657815481890152600182019150602081019050610cc7565b838801955050505b50505092915050565b6000610d038284610c74565b91508190509291505056fea26469706673582212203d9afbb0b79b1444dac4a4aa33df4645e685e3eae831b28e4c15099870921c5f64736f6c63430008120033",
  "immutableReferences": {},
  "source": "// SPDX-License-Identifier: MIT\npragma solidity >=0.4.22 <0.9.0;\n\ncontract Skills {\n  mapping(string => address[]) skillmap;\n  string[] skill;\n\n  function addEmployeeToSkill(string memory _name, address _employee) public {\n    if (skillmap[_name].length == 0) {\n      skill.push(_name);\n    }\n    skillmap[_name].push(_employee);\n  }\n\n  function getSkillLength() public view returns (uint256) {\n    return skill.length;\n  }\n\n  function getSkillsByIndex(uint256 index) public view returns (string memory) {\n    return skill[index];\n  }\n\n  function getTotalEmployeeInSkillByIndex(uint256 index)\n    public\n    view\n    returns (uint256)\n  {\n    return skillmap[skill[index]].length;\n  }\n\n  function getTotalEmployeeInSkillByName(string memory _name)\n    public\n    view\n    returns (uint256)\n  {\n    return skillmap[_name].length;\n  }\n\n  function getEmployeeInSkillByIndex(uint256 skill_index, uint256 emp_index)\n    public\n    view\n    returns (address)\n  {\n    return skillmap[skill[skill_index]][emp_index];\n  }\n\n  function getEmployeeBySkillName(string memory _name, uint256 emp_index)\n    public\n    view\n    returns (address)\n  {\n    return skillmap[_name][emp_index];\n  }\n}\n",
  "sourcePath": "E:\\skillset\\src\\contracts\\Skills.sol",
  "compiler": {
    "name": "solc",
    "version": "0.8.18+commit.87f61d96.Emscripten.clang"
  },
  "schemaVersion": "3.4.12",
  "updatedAt": "2023-03-09T01:33:05.838Z",
  "networkType": "ethereum",
  "devdoc": {
    "kind": "dev",
    "methods": {},
    "version": 1
  },
  "userdoc": {
    "kind": "user",
    "methods": {},
    "version": 1
  }
}